S0110000536D617274486F6D652E7372656383
S11300000C942A000C9447000C9447000C9447006D
S11300100C9447000C9447000C9447000C94470040
S11300200C9447000C94BC000C9485000C944E0076
S11300300C9447000C9447000C9447000C94470020
S11300400C9447000C9447000C9447000C94470010
S11300500C94470011241FBECFE5D8E0DEBFCDBF0E
S113006010E0A0E6B0E0EAEEF1E002C005900D92E7
S1130070A036B107D9F720E0A0E6B0E001C01D9298
S1130080A636B207E1F70E9449000C94F3000C94E1
S11300900000CF93DF93CDB7DEB7FFCF1F920F924F
S11300A000905F000F9211242F933F934F935F931F
S11300B06F937F938F939F93AF93BF93EF93FF932C
S11300C0CF93DF93CDB7DEB780916000909161004C
S11300D0892B31F08091600090916100FC010995B9
S11300E00000DF91CF91FF91EF91BF91AF919F916C
S11300F08F917F916F915F914F913F912F910F90CD
S113010000925F000F901F9018951F920F9200901D
S11301105F000F9211242F933F934F935F936F933C
S11301207F938F939F93AF93BF93EF93FF93CF935B
S1130130DF93CDB7DEB78091620090916300892B85
S113014031F08091620090916300FC0109950000F8
S1130150DF91CF91FF91EF91BF91AF919F918F91DB
S11301607F916F915F914F913F912F910F900092EA
S11301705F000F901F9018951F920F9200905F00E0
S11301800F9211242F933F934F935F936F937F9319
S11301908F939F93AF93BF93EF93FF93CF93DF938B
S11301A0CDB7DEB78091640090916500892B31F062
S11301B08091640090916500FC0109950000DF9135
S11301C0CF91FF91EF91BF91AF919F918F917F91CB
S11301D06F915F914F913F912F910F9000925F002B
S10D01E00F901F901895F894FFCFBC
S9030000FC
