S0110000536D617274486F6D652E7372656383
S11300000C9438000C94B8040C94E1040C940A0584
S11300100C9419060C94F0050C9455000C9455009E
S11300200C9455000C94A6050C9460050C943705AB
S11300300C9455000C9466060C9455000C945500D1
S11300400C9455000C9455000C9455000C945500D8
S11300500C945500DA0BDC0BE20BE40BE60BE80B1B
S1130060ED0B780F7A0F7E0F800F820F840F870FAE
S113007011241FBECFE5D8E0DEBFCDBF14E0A0E65B
S1130080B0E0E2EDFAE202C005900D92AE38B1079D
S1130090D9F726E0AEE8B4E001C01D92AB3CB2074C
S11300A0E1F70E9457000C9467150C9400000E941D
S11300B082010E9492060E94CD060E9418070E94A7
S11300C0FB0C87E690E00E9442060E946D0D0E94A0
S11300D0E5070E94C7000E9492100E9488000E94B7
S11300E09410813019F40E948D0004C00E94C90C40
S11300F00E9490102FEF89EF90E0215080409040B3
S1130100E1F700C000000E94B8060E941A07E7CF7A
S113011041E062E081E00C94EA0241E062E081E0C7
S11301200C94530341E066E080E00C94EA0241E061
S113013066E080E00C94530340E066E080E00C94B9
S1130140530365E088E60E9489050E948B0241E022
S113015063E081E00C94EA020E948D02BC0180E01D
S113016090E00E943C1120E030EC4FE754E40E9400
S11301709B1020E030E048EC52E40E94CA110E9437
S11301800D11862F0C94900580E00C9490050C942E
S11301909002CF93C82F0E94A902EC2FF0E0E357FE
S11301A0FB4F908181E089278083CF910895E82FC8
S11301B0F0E0E357FB4F808108958FE99FE00197BA
S11301C0F1F700C0000041E064E082E00E945303C4
S11301D08FE99FE00197F1F700C0000040E064E080
S11301E082E00E9453038FE99FE00197F1F700C07A
S11301F000000895CF93C82F40E066E082E00E949B
S11302005303C4FB442740F960E082E00E94530397
S1130210C5FB442740F961E082E00E945303C6FB1A
S1130220442740F962E082E00E9453034C2F441FAC
S11302304427441F63E082E00E9453030E94DD00D0
S11302404C2F417060E082E00E945303C1FB4427BD
S113025040F961E082E00E945303C2FB442740F965
S113026062E082E00E945303C3FB442740F963E049
S113027082E00E945303CF910C94DD00CF93C82FEA
S113028041E066E082E00E945303C4FB442740F946
S113029060E082E00E945303C5FB442740F961E01B
S11302A082E00E945303C6FB442740F962E082E0E7
S11302B00E9453034C2F441F4427441F63E082E0F1
S11302C00E9453030E94DD004C2F417060E082E0E5
S11302D00E945303C1FB442740F961E082E00E947D
S11302E05303C2FB442740F962E082E00E945303B7
S11302F0C3FB442740F963E082E00E945303CF919B
S11303000C94DD0041E066E082E00E94EA0241E0F4
S113031065E082E00E94EA0241E064E082E00E943B
S1130320EA0241E060E082E00E94EA0241E061E02A
S113033082E00E94EA0241E062E082E00E94EA0276
S113034041E063E082E00E94EA0240E065E082E08E
S11303500E94530380E00E943E012FEF86E791E064
S1130360215080409040E1F700C0000083E00E94EB
S1130370FA008FE19EE40197F1F700C0000083E0EA
S11303800E94FA0087E592E00197F1F700C00000AF
S113039083E00E94FA0082E00E94FA0082E00E9458
S11303A0FA0088E20E94FA0088E00E94FA0080E0E5
S11303B00E94FA008CE00E94FA0080E00E94FA0099
S11303C086E00C94FA00882319F0813019F008951E
S11303D080E801C080EC860F0C94FA000C943E0176
S11303E00F931F93CF938C01C0E0F801EC0FF11D24
S11303F08081882321F00E943E01CF5FF6CFCF9108
S11304001F910F9108950F931F93CF93DF93CDB74F
S1130410DEB7A1970FB6F894DEBF0FBECDBF9F9392
S11304208F938FE091E09F938F938E010F5F1F4F07
S11304301F930F930E947D12C8010E94F0010F9038
S11304400F900F900F900F900F90A1960FB6F89405
S1130450DEBF0FBECDBFDF91CF911F910F910895E5
S11304600C94D70285E00E94DD02BC0180E090E09C
S11304700E943C112AE137E64CE950E40E94CA117B
S113048020E030E040E251E40E949B100E940D11F4
S1130490CB0108950F931F93CF9300E010E0C0E0C9
S11304A064E0600F81E00E94EC03002E01C0880F1D
S11304B00A94EAF7C82B0F5F1F4F0430110581F728
S11304C0EC2FF0E0EF58FF4F808180936000CF91D4
S11304D01F910F910C94F40CCF93C4E040E06C2F67
S11304E081E00E94EA02CF5FC830C1F76AE472E09B
S11304F080E00E94A30462E080E00E945D0480E04A
S11305000E944D04CF910C943305809160009FEFBD
S11305109093600008950C94D70287E00C94DD0258
S113052041E060E080E00E94EA0241E061E080E0B6
S11305300E94EA0241E062E080E00E94EA0241E0B7
S113054063E080E00E94EA0241E064E080E00C9411
S1130550EA02833079F028F4813041F0823041F0AE
S11305600895843049F0853049F0089560E007C06B
S113057061E005C062E003C063E001C064E080E0C4
S11305800C94BC03CF92EF920F93CF93C22F0E948F
S1130590EA028C2D0E94D7054E2D602F8C2FCF910F
S11305A00F91EF90CF900C94CF050C94DB05379A04
S11305B086B1876086B93E9A089597B1907E97B9BF
S11305C097B1892B87B9369A349BFECF349A84B17C
S11305D095B108958130F9F030F08230A1F1833083
S11305E009F449C00895413049F42AB381E090E008
S11305F001C0880F6A95EAF7822B0BC0411152C0E3
S11306002AB381E090E001C0880F6A95EAF78095EB
S113061082238ABB0895413049F427B381E090E0F6
S113062001C0880F6A95EAF7822B0BC041113AC0CA
S113063027B381E090E001C0880F6A95EAF78095BE
S1130640822387BB0895413049F424B381E090E0CC
S113065001C0880F6A95EAF7822B0BC0411122C0B2
S113066024B381E090E001C0880F6A95EAF7809591
S1130670822384BB0895413049F421B381E090E0A2
S113068001C0880F6A95EAF7822B0BC041110AC09A
S113069021B381E090E001C0880F6A95EAF7809564
S11306A0822381BB08958130F9F030F08230A1F1CA
S11306B0833009F449C00895413049F42BB381E0F3
S11306C090E001C0880F6A95EAF7822B0BC04111B4
S11306D052C02BB381E090E001C0880F6A95EAF71D
S11306E0809582238BBB0895413049F428B381E07F
S11306F090E001C0880F6A95EAF7822B0BC0411184
S11307003AC028B381E090E001C0880F6A95EAF707
S11307108095822388BB0895413049F425B381E054
S113072090E001C0880F6A95EAF7822B0BC0411153
S113073022C025B381E090E001C0880F6A95EAF7F2
S11307408095822385BB0895413049F422B381E02A
S113075090E001C0880F6A95EAF7822B0BC0411123
S11307600AC022B381E090E001C0880F6A95EAF7DD
S11307708095822382BB0895813081F028F08230F5
S1130780B9F08330F9F008952BB381E090E001C013
S1130790880F6A95EAF782278BBB089528B381E016
S11307A090E001C0880F6A95EAF7822788BB089514
S11307B025B381E090E001C0880F6A95EAF78227AB
S11307C085BB089522B381E090E001C0880F6A954B
S11307D0EAF7822782BB0895813049F030F08230F5
S11307E041F0833079F480B305C089B303C086B384
S11307F001C083B390E002C0959587956A95E2F7AE
S11308008170089580E00895E199FECF9FBB8EBB6F
S11308106DBBE29AE19A0895E199FECF9FBB8EBB2E
S1130820E09A8DB30895EF92FF920F931F93CF93A5
S1130830DF938C01EB017B01E40EF11CCE15DF0587
S113084040F4F80161918F01CE010E9404042196C5
S1130850F5CFDF91CF911F910F91FF90EF90089505
S1130860EF92FF920F931F93CF93DF938C01EB01D1
S11308707B01E40EF11CCE15DF0540F4CE010E948D
S11308800C04F80181938F012196F5CFDF91CF916C
S11308901F910F91FF90EF900895813039F018F077
S11308A0823039F008958BB7806405C08BB78068B7
S11308B002C08BB780628BBF08958130F9F018F0C5
S11308C08230B1F10895611103C085B78E7F04C0F1
S11308D0613039F485B7816085BF85B78D7F85BF69
S11308E00895623019F485B78E7F04C0633051F5E2
S11308F085B7816085BF85B78260F1CF611103C080
S113090085B78B7F04C0613031F485B7846085BFBF
S113091085B7877FE4CF623019F485B78B7F04C035
S1130920633081F485B7846085BF85B78860D7CF8D
S1130930623019F484B78F7B04C0633019F484B730
S1130940806484BF0895813049F018F0823059F0F2
S1130950089570939804609397040895709396048F
S11309606093950408957093940460939304089598
S11309701F920F920FB60F9211242F933F934F9310
S11309805F936F937F938F939F93AF93BF93EF93F3
S1130990FF93E0919704F0919804309709F009953A
S11309A0FF91EF91BF91AF919F918F917F916F9143
S11309B05F914F913F912F910F900FBE0F901F9019
S11309C018951F920F920FB60F9211242F933F93F5
S11309D04F935F936F937F938F939F93AF93BF9343
S11309E0EF93FF93E0919504F0919604309709F00A
S11309F00995FF91EF91BF91AF919F918F917F9155
S1130A006F915F914F913F912F910F900FBE0F9077
S1130A101F9018951F920F920FB60F9211242F93C7
S1130A203F934F935F936F937F938F939F93AF9372
S1130A30BF93EF93FF93E0919304F0919404309764
S1130A4009F00995FF91EF91BF91AF919F918F911B
S1130A507F916F915F914F913F912F910F900FBEB6
S1130A600F901F9018958FB780688FBF08951F92BD
S1130A700F920FB60F9211242F933F934F935F93CE
S1130A806F937F938F939F93AF93BF93EF93FF9352
S1130A90E0919B04F0919C04309709F00995FF9133
S1130AA0EF91BF91AF919F918F917F916F915F91E2
S1130AB04F913F912F910F900FBE0F901F9018955B
S1130AC01F920F920FB60F9211242F933F934F93BF
S1130AD05F936F937F938F939F93AF93BF93EF93A2
S1130AE0FF93E0919904F0919A04309709F00995E5
S1130AF0FF91EF91BF91AF919F918F917F916F91F2
S1130B005F914F913F912F910F900FBE0F901F90C7
S1130B10189593B7892B83BF83B7682B63BF089558
S1130B20682F70E080E090E00E943C1120E030E00B
S1130B3048EC52E40E949B1020E030E04FE753E47D
S1130B400E94CA110E940D116CBF08951F920F924A
S1130B500FB60F9211242F933F934F935F936F938C
S1130B607F938F939F93AF93BF93EF93FF93E09102
S1130B709D04F0919E04309709F00995FF91EF913F
S1130B80BF91AF919F918F917F916F915F914F91A1
S1130B903F912F910F900FBE0F901F9018959FB506
S1130BA0892B8FBD8EB5482B642B6EBD089590E0C4
S1130BB097BD86BD089590E09BBD8ABD089595B507
S1130BC0892B85BD08950C94DF0584BD089589B7EC
S1130BD0806489BF08959093A2048093A10408952A
S1130BE01F920F920FB60F9211242F933F934F939E
S1130BF05F936F937F938F939F93AF93BF93EF9381
S1130C00FF93E091A104F091A204309709F00995B3
S1130C10FF91EF91BF91AF919F918F917F916F91D0
S1130C205F914F913F912F910F900FBE0F901F90A6
S1130C3018951F920F920FB60F9211242F933F9382
S1130C404F935F936F937F938F939F93AF93BF93D0
S1130C50EF93FF93E0919F04F091A004309709F083
S1130C600995FF91EF91BF91AF919F918F917F91E2
S1130C706F915F914F913F912F910F900FBE0F9005
S1130C801F90189589B990BD539A549A579A86E83B
S1130C9080BD0C9433055D9BFECF8CB90895CF9332
S1130CA0DF93EC018991882319F00E944B06FACF57
S1130CB0DF91CF9108958091A304882329F01092A5
S1130CC0A3048091BF0408958FEF08951F920F929B
S1130CD00FB60F9211248F938CB18093BF0481E0DF
S1130CE08093A3048F910F900FBE0F901F901895BF
S1130CF01F93CF93DF93EC010E945B0610E08332D5
S1130D0051F08F3F29F0FE01E10FF11D80831F5F39
S1130D100E945B06F4CFC10FD11D1882DF91CF91E1
S1130D201F9108950E9492000E943002E0ECF4E0CA
S1130D3081E080838CE1818385E182830895E0EC06
S1130D40F4E0908181E0892780830895DC01119685
S1130D502C911197E0ECF4E0218312968C9182831C
S1130D6008956091C0047091C1048091C2040895F3
S1130D708091C004882371F0813071F40E943202A2
S1130D809091C104981710F40C9497009091C204A8
S1130D90891710F40C949C000895CF92DF92EF927F
S1130DA00F9387E8C82E83E1D82E93E0E92E08E15B
S1130DB022E841E065E083E00E94C2020F91EF90D7
S1130DC0DF90CF9008958CE697E00C94D50286EBE3
S1130DD093E00C94D50280916100882331F081E87E
S1130DE090E00E944F061092610080916200882377
S1130DF021F00E945B068093A4048091A4048F3F99
S1130E00B1F010926200833641F08F3619F08236C9
S1130E1039F408950E94E30607C00E94E70604C05F
S1130E2087EC90E00E944F0681E080936200089571
S1130E300C94A10080916300882321F0813021F477
S1130E400C94AC000C94C40008959091630081E06C
S1130E508927809363000895809163000895CF9259
S1130E60DF92EF92FF920F931F93CF93DF936C0166
S1130E70E62E88ED90E00E94F001C0E0F12C21E024
S1130E80E21AF1080C2F10E00E151F050CF049C0F2
S1130E900E948502D82F8434F1F481E0C83019F41B
S1130EA00E94FA003EC00E94FA0088EE90E00E9480
S1130EB0F0018FEF93ED20E3815090402040E1F763
S1130EC000C0000081E00E94FA0088ED90E00E94DA
S1130ED0F001C0E0D7CF833499F4CC2399F2C15008
S1130EE0F601EC0FF11D10826C2F81E00E94E301EA
S1130EF080E20E94EE016C2F81E00E94E301C2CFE8
S1130F008A3008F0BFCF6C2F81E00E94E3018AE2AF
S1130F100E94EE01F601E00FF11FD05DD083CF5F98
S1130F20B1CFF601E00FF11F1082DF91CF911F9135
S1130F300F91FF90EF90DF90CF9008950F931F9340
S1130F40CF93DF938C01C091A8048AE1C89FE0018C
S1130F501124BE016F5F7F4F40E1C8010E9413045A
S1130F60BE016F5E7F4F49E0C80140960E941304A2
S1130F70F801618DCE014A96DF91CF911F910F91B7
S1130F800C9404040F931F93CF93DF938C018AE195
S1130F90689FE0011124BE016F5F7F4F40E1C801EB
S1130FA00E943004BE016F5E7F4F49E0C801409645
S1130FB00E943004CE014A960E940C04F801818FED
S1130FC0DF91CF911F910F910895CF93DF938CE21E
S1130FD091E00E940C048F3F41F46091A8048CE2DC
S1130FE091E0DF91CF910C9404048CE291E00E9493
S1130FF00C048093A804C0E0DAE18091A804C81727
S113100050F4DC9FC00111246C2F8D539B4F0E9420
S1131010C207CF5FF2CFDF91CF910895CF92DF92D5
S1131020EF92FF920F931F93CF93C091A804CA30FD
S113103018F57B01BC018AE1C89F60011124860177
S11310400D531B4FC8010E944612B701C6018D52B1
S11310509B4F0E944612CF5FF801C18FC8010E94C6
S11310609E076091A8046F5F6093A8048CE291E0EE
S11310700E94040480E001C081E0CF911F910F9190
S1131080FF90EF90DF90CF900895AF92BF92CF92F0
S1131090DF92EF92FF920F931F93CF93DF93CDB71D
S11310A0DEB7E2970FB6F894DEBF0FBECDBF182FA0
S11310B0062F81E00E94FA008091A804811104C0E7
S11310C089EF90E00E94F0018AE1B82E98E0E92EC1
S11310D091E0F92E22E3A22ECE0101966C011017A5
S11310E020F58091A804181700F5B19EF001112491
S11310F0ED53FB4F818D1F928F93FF93EF93FF92DC
S1131100EF921F92AF92DF92CF920E944D12C601CE
S11311100E94F00160E081E00E94E3011F5F0FB6CE
S1131120F894DEBF0FBECDBFDACFE2960FB6F894C7
S1131130DEBF0FBECDBFDF91CF911F910F91FF9006
S1131140EF90DF90CF90BF90AF900895CF93DF934F
S1131150CDB7DEB729970FB6F894DEBF0FBECDBF6B
S113116080916800882349F081E00E94FA0082E1BE
S113117091E00E94F001109268000E948502809321
S113118067009FEF980F9A3008F071C081E00E94C9
S1131190FA0069E0CE0101960E942F078091670052
S11311A090E001972AE1289FB001299F700D112436
S11311B06D527B4FCE0101960E943D12892BE1F4C2
S11311C081E00E94FA0081E291E00E94F00181E056
S11311D08093A9049FEF90936700809368002FEF9A
S11311E083ED90E3215080409040E1F700C000007F
S11311F081E00E94FA0041C081E00E94FA0082E38B
S113120091E00E94F0018091A7048F5F8093A7046E
S113121063E081E00E94E30180EF90E00E94F0012E
S11312208091A704833081F40E94971081E00E948A
S1131230FA0083E491E00E94F00160E081E00E9402
S1131240E3018DE491E017C02FEF83ED90E321508B
S113125080409040E1F700C0000081E00E94FA0065
S11312608FEF8093670081E08093680006C08F3F12
S113127021F08EE591E00E94F00129960FB6F894D2
S1131280DEBF0FBECDBFDF91CF9108958091660080
S1131290882359F081E00E94FA00609165008091F2
S11312A0A6040E944508109266008091A50481114D
S11312B004C00E948502809364008091640082349B
S11312C079F08334E9F0813469F58091A6048230A1
S11312D048F182508093A6048091650082500AC030
S11312E0809165008B30F0F49091A6049E5F9093FA
S11312F0A6048E5F8093650081E080936600089564
S11313000E94A60881E08093A5041092A60492E0AE
S1131310909365009091A904992321F0809366002D
S11313201092A50408958091A90408951092A90427
S113133008958091B5049091B60401969093B604F3
S11313408093B50486E00E94E5058091B5049091F0
S1131350B6048037924039F41092B6041092B50462
S113136081E08093B7040895FC018081882319F0FB
S1131370813021F0089560E080E002C060E081E007
S11313800E94E3018EE30C94EE01CF93DF93EC0112
S113139061E080E00E94E3018881882369F0813064
S11313A0C9F483E891E00E94F00161E081E00E94C9
S11313B0E3018EE891E00AC088E791E00E94F00121
S11313C061E081E00E94E30183E891E0DF91CF9145
S11313D00C94F001DF91CF910895CF93DF93EC014A
S11313E061E080E00E94E3018881823009F443C017
S11313F028F4882361F0813021F1ABC0843009F4F2
S11314006DC008F44FC0853009F48AC0A2C082EAD6
S113141091E00E94F00181E00E94D700811103C095
S11314208CE991E002C086E991E00E94F00161E05C
S113143081E00E94E30189EA91E00E94F00182E0E8
S11314404AC089EA91E00E94F00182E00E94D7003C
S1131450811103C08CE991E002C086E991E00E9409
S1131460F00161E081E00E94E30180EB91E00E94E1
S1131470F00183E030C080EB91E00E94F00183E052
S11314800E94D700811103C08CE991E002C086E973
S113149091E00E94F00161E081E00E94E30187EBAA
S11314A091E016C087EB91E00E94F00184E00E9475
S11314B0D700811103C08CE991E002C086E991E074
S11314C00E94F00161E081E00E94E3018EEB91E073
S11314D00E94F00184E00E94D7001AC08EEB91E0D4
S11314E00E94F00184E00E94D700811103C08CE9BE
S11314F091E002C086E991E00E94F00161E081E0A0
S11315000E94E30185EC91E00E94F0010E942C0707
S1131510811103C08CE991E018C086E991E015C0FF
S113152085EC91E00E94F0010E942C07811103C018
S11315308CE991E002C086E991E00E94F00161E04B
S113154081E00E94E3018EEC91E0DF91CF910C9455
S1131550F001DF91CF9108950F931F93CF93DF9301
S11315608C01EB0161E080E00E94E301F8018081DD
S1131570813099F1D0F0823009F04DC088EE91E0CD
S11315800E94F0018A8190E00E94030283E40E9499
S1131590EE0161E081E00E94E3018EEC91E0DF91D5
S11315A0CF911F910F910C94F0018AED91E00E946C
S11315B0F0018881811103C08CE991E002C085EDBE
S11315C091E00E94F00161E081E00E94E3018EED70
S11315D091E00E94F001898114C08EED91E00E9497
S11315E0F001898190E00E94030283E40E94EE01ED
S11315F061E081E00E94E30188EE91E00E94F00145
S11316008A8190E00E94030283E4DF91CF911F91CD
S11316100F910C94EE01DF91CF911F910F910895DA
S1131620DB01FA013C91332319F0313079F008954C
S1131630009719F0019739F008958081882311F0FB
S113164081500DC0208381E08C930895009751F060
S1131650019709F008958081821718F48F5F8083C1
S1131660089510821C9208950F931F93CF938C01B9
S11316700E948502C82F8F3F19F081E00E94FA0072
S113168084EB94E00E94C50983EB94E00E94B409C2
S1131690C23469F0C33411F1C13409F03FC021E010
S11316A044EB54E063EB74E080E090E007C021E099
S11316B044EB54E063EB74E081E090E00E94100B93
S11316C081E00E94FA0084EB94E00E94C50983EB58
S11316D094E0CF911F910F910C94B4092091B4041C
S11316E08091B30490E0820F911D8130910549F0FF
S11316F08230910571F0892B89F4F801108281E020
S113170003C081E0F8018083CF911F910F910C9465
S1131710FA00CF911F910F910C949609CF911F91CC
S11317200F9108950F931F93CF938C010E9485020C
S1131730C82F8F3F19F081E00E94FA008BEA94E0F1
S11317400E94ED098AEA94E00E94B409C23469F067
S1131750C33411F1C13409F048C025E04BEA54E028
S11317606AEA74E080E090E007C025E04BEA54E0C8
S11317706AEA74E081E090E00E94100B81E00E942C
S1131780FA008BEA94E00E94ED098AEA94E0CF9192
S11317901F910F910C94B4098091AB04E091AA04B9
S11317A0F0E0E80FF11DE730F105F8F4E65DFF4FD6
S11317B00C94371281E001C082E0CF911F910F9108
S11317C00C94C90083E0F9CF84E0F7CF85E0F5CF2E
S11317D0CF911F910F910C94250783E0F80180832A
S11317E081E00E94FA001092AB04CF911F910F91F7
S11317F008950F931F93CF93DF93EC018B010E9405
S11318008502823439F0833449F0813449F4888183
S11318108F5F02C088818150888302C0F8011082E2
S1131820DF91CF911F910F910895CF93DF93EC0136
S11318308091B204811104C00E9485028093B10496
S11318408091B1048F3F39F08091B204811103C0BB
S113185081E00E94FA000E94B1066093AE04709386
S1131860AF048093B0046EEA74E08DEA94E00E94C1
S1131870AC0A8CEA94E00E94B4098091B1048234E9
S113188069F0833419F1813409F070C022E04DEA23
S113189054E06CEA74E080E090E007C022E04DEA96
S11318A054E06CEA74E081E090E00E94100B81E067
S11318B00E94FA006EEA74E08DEA94E00E94AC0A99
S11318C08CEA94E0DF91CF910C94B4092091AD049B
S11318D08091AC0490E0820F911D81309105A9F0B4
S11318E03CF4892B09F042C0DF91CF910C949F0600
S11318F08230910501F10397C9F583E0888381E083
S11319000E94FA001092AD0431C081E08093B204C9
S113191062EB74E08FEA94E00E94F90B8091AF04CB
S1131920813208F080E29091B004891708F4892F7D
S11319308093AF0415C081E08093B20462EB74E03D
S113194080EB94E00E94F90B8091B004823108F49A
S113195082E19091AF04981708F4892F8093B00422
S11319608EEA94E0DF91CF910C94A606DF91CF919B
S1131970089581E00E94FA0083EF91E00E94F00153
S113198067E081E00E94E3018091B80490E00C9448
S113199003020E9493099091B7048823C9F091111E
S11319A017C080916900813039F050F0833061F4C0
S11319B089E690E00C94340B89E690E00C94150CC5
S11319C089E690E00C94920B83E092E00C94F00191
S11319D0992321F00E94B90C0C9496090E94770E69
S11319E08111F8CF0C9446091092B7041092B604F2
S11319F01092B50408950E94330580E00E94E30527
S1131A0086E00E94E50589E999E00E94EB050E94C1
S1131A10E70587E00E94DF050E94820147E050E06D
S1131A2064E070E081E090E00C946C02CF93DF936B
S1131A30EC0188ED90E00E944F06CE010E947806EA
S1131A4082E493E0DF91CF910C944F060F931F93A0
S1131A50CF93DF938C01C091B9048AE1C89FE00160
S1131A601124CF5FDD4F40E1BE01C8010E94130481
S1131A70BE01605F7F4F49E0C80140960E94130495
S1131A80F801618DCE014996DF91CF911F910F919D
S1131A900C9404040F931F93CF93DF938C018AE17A
S1131AA0689FE0011124CF5FDD4F40E1BE01C80112
S1131AB00E943004BE01605F7F4F49E0C801409638
S1131AC00E943004CE0149960E940C04F801818FD3
S1131AD0DF91CF911F910F910895CF93DF9380E011
S1131AE090E00E940C048F3F39F46091B90480E0C7
S1131AF090E00E94040416C080E090E00E940C0470
S1131B008093B904C0E0DAE18091B904C81750F4B5
S1131B10DC9FC00111246C2F89539A4F0E944A0DF7
S1131B20CF5FF2CF87E690E0DF91CF910C9442062D
S1131B30CF92DF92EF92FF920F931F93CF93C091B6
S1131B40B904CA3018F57B01BC018AE1C89F600161
S1131B501124860109531A4FC8010E944612B70185
S1131B60C60189529A4F0E944612CF5FF801C18F75
S1131B70C8010E94260D6091B9046F5F6093B90497
S1131B8080E090E00E94040480E001C081E0CF91F5
S1131B901F910F91FF90EF90DF90CF900895BF9227
S1131BA0CF92DF92EF92FF920F931F93CF93DF9325
S1131BB0CDB7DEB7E2970FB6F894DEBF0FBECDBF48
S1131BC089E092E00E944F0610E00AE180E2E82EEC
S1131BD082E0F82E92E3B92ECE0101966C01809139
S1131BE0B9041817E0F4019FF0011124E953FA4FE6
S1131BF0818D1F928F93FF93EF93FF92EF921F9229
S1131C00BF92DF92CF920E944D12C6010E944F06EE
S1131C101F5F0FB6F894DEBF0FBECDBFE0CFE296D4
S1131C200FB6F894DEBF0FBECDBFDF91CF911F91E9
S1131C300F91FF90EF90DF90CF90BF9008950F9396
S1131C401F93CF93DF93CDB7DEB729970FB6F894E0
S1131C50DEBF0FBECDBF80916A00882331F082E1E0
S1131C6091E00E944F0610926A000E945B06182FB2
S1131C708F3F89F182E493E00E944F0600ED010F4B
S1131C8011531A3000F5CE0101960E94160D802FD3
S1131C9090E001972AE1289FB001299F700D11243B
S1131CA069527A4FCE0101960E943D12892B41F46C
S1131CB08AE392E00E944F0681E08093BA0407C051
S1131CC08CE492E002C087E692E00E944F0681E035
S1131CD080936A00102F812F29960FB6F894DEBFE7
S1131CE00FBECDBFDF91CF911F910F9108958091C9
S1131CF0BA0408951092BA040895CF93DF93CDB730
S1131D00DEB769970FB6F894DEBF0FBECDBF80E093
S1131D1090E00E940C04811129C08FE792E00E9498
S1131D204F0685E992E00E944F06CE0101960E947B
S1131D30780682E493E00E944F06CE0141960E9409
S1131D40160DBE016F5E7F4FCE0101960E94980D65
S1131D50811103C086EA92E007C0813019F48FEB49
S1131D6092E002C08AED92E00E944F0669960FB697
S1131D70F894DEBF0FBECDBFDF91CF910895CF930E
S1131D80DF93CDB7DEB769970FB6F894DEBF0FBE09
S1131D90CDBF86EF92E00E944F0685E992E00E9453
S1131DA04F06CE0101960E947806CE0141960E940C
S1131DB0160DBE016F5E7F4FCE0101960E94980DF5
S1131DC0811103C086EA92E007C0813019F48FEBD9
S1131DD092E002C08AED92E00E944F0681E0809377
S1131DE0700080936E0080936D0069960FB6F8942E
S1131DF0DEBF0FBECDBFDF91CF910895CF93DF93A8
S1131E00CDB7DEB769970FB6F894DEBF0FBECDBF6E
S1131E1086EF92E00E944F0685E992E00E944F0609
S1131E20CE0101960E947806CE0141960E94160DBD
S1131E30BE016F5E7F4FCE0101960E940E08811194
S1131E4003C086EA92E007C0813019F48FEB92E078
S1131E5002C08AED92E00E944F0681E080937000F8
S1131E6080936E0080936D0069960FB6F894DEBF80
S1131E700FBECDBFDF91CF91089580916C00882370
S1131E8031F18BE093E00E944F0686E193E00E94DB
S1131E904F0684E493E00E944F068EE493E00E9490
S1131EA04F0688E593E00E944F0682E693E00E9485
S1131EB04F068CE693E00E944F0686E793E00E946B
S1131EC04F0681E893E00E944F0610926C000E9436
S1131ED05B068F3F59F1E0EDE80F8E2F90E0FC0197
S1131EE03197E730F105D8F4EF5CFF4F0C943712CB
S1131EF081E001C082E00E94C90015C083E0FBCFED
S1131F0084E0F9CF85E0F7CF0E9425070CC081E07B
S1131F108093700080936E0080936D0004C08CE801
S1131F2093E00E944F0681E080936C000895CF9364
S1131F3080916B00882319F18FEA93E00E944F0689
S1131F400E94B106C62F611103C08CE991E002C062
S1131F5085ED91E00E944F0687EB93E00E944F06C7
S1131F60C11103C085ED91E002C08CE991E00E94AB
S1131F704F068AEC93E00E944F0610926B000E9479
S1131F805B068F3FA1F0853429F0843559F4CF9155
S1131F900C949F0681E08093700080936E00809380
S1131FA06D0005C08DED93E0CF910C944F06CF9159
S1131FB0089580916E00882391F089EE93E00E9449
S1131FC04F0685EF93E00E944F068FEF93E00E9447
S1131FD04F0686E094E00E944F0610926E008091B6
S1131FE07000882321F00E945B068093BC048091DA
S1131FF0BC048F3FE1F010927000823331F08333E0
S113200031F0813369F40C943D0F0C94970F0E94C6
S11320107A0E81E08093700080936F0080936E004D
S11320208CE893E00E944F0681E08093700008954D
S113203080916D008823F1F081E194E00E944F06C5
S11320408EE194E00E944F0689E394E00E944F06DB
S113205083E594E00E944F068DE594E00E944F06CC
S113206084E694E00E944F0682E894E00E944F06C2
S113207010926D0080917000882321F00E945B060D
S11320808093BB048091BB048F3F49F11092700090
S11320908333C1F030F4813399F08233C9F40C9462
S11320A0FE0E853399F080F0863391F40E947A0E07
S11320B081E080936F008093700080936D00089599
S11320C00C94BF0E0C943D0F0C94970F0C94EB06DC
S11320D08CE893E00E944F0681E08093700008959D
S11320E080916F00882341F00E94770E813021F0A7
S11320F00E94CF0D10926F000E94770E882319F072
S1132100813031F008950E941F0E8093BD0408951C
S11321108091BD04813011F40C9418100C94D90FE3
S11321200C9470100C947D0E8091BE04089581E08F
S11321308093BE0408950E94AF100C9490110E94E5
S1132140891158F00E94821140F029F45F3F29F070
S11321500C94791151110C94C4110C947F110E94A8
S1132160A11168F39923B1F3552391F3951B550BF2
S1132170BB27AA2762177307840738F09F5F5F4F56
S1132180220F331F441FAA1FA9F335D00E2E3AF095
S1132190E0E832D091505040E695001CCAF72BD0AD
S11321A0FE2F29D0660F771F881FBB1F26173707FE
S11321B04807AB07B0E809F0BB0B802DBF01FF2730
S11321C093585F4F3AF09E3F510578F00C94791183
S11321D00C94C4115F3FE4F3983ED4F3869577954D
S11321E06795B795F7959F5FC9F7880F911D9695E9
S11321F0879597F90895E1E0660F771F881FBB1F45
S1132200621773078407BA0720F0621B730B840BF1
S1132210BA0BEE1F88F7E09508950E94A91188F083
S11322209F5798F0B92F9927B751B0F0E1F0660F96
S1132230771F881F991F1AF0BA95C9F714C0B130D7
S113224091F00E94C311B1E008950C94C311672F5B
S1132250782F8827B85F39F0B93FCCF38695779506
S11322606795B395D9F73EF49095809570956195EF
S11322707F4F8F4F9F4F0895E89409C097FB3EF41A
S113228090958095709561957F4F8F4F9F4F9923BF
S1132290A9F0F92F96E9BB279395F695879577953D
S11322A06795B795F111F8CFFAF4BB0F11F460FFFD
S11322B01BC06F5F7F4F8F4F9F4F16C0882311F055
S11322C096E911C0772321F09EE8872F762F05C069
S11322D0662371F096E8862F70E060E02AF09A9504
S11322E0660F771F881FDAF7880F9695879597F9F9
S11322F0089597F99F6780E870E060E008959FEF84
S113230080EC089500240A94161617061806090688
S1132310089500240A941216130614060506089557
S1132320092E0394000C11F4882352F0BB0F40F4DF
S1132330BF2B11F460FF04C06F5F7F4F8F4F9F4F1F
S1132340089557FD9058440F551F59F05F3F71F0A1
S11323504795880F97FB991F61F09F3F79F0879508
S11323600895121613061406551FF2CF4695F1DF91
S113237008C0161617061806991FF1CF8695710521
S1132380610508940895E894BB2766277727CB0155
S113239097F908950E94DD110C9490110E94821106
S11323A038F00E94891120F0952311F00C947911D2
S11323B00C947F1111240C94C4110E94A11170F388
S11323C0959FC1F3950F50E0551F629FF001729FD6
S11323D0BB27F00DB11D639FAA27F00DB11DAA1FE5
S11323E0649F6627B00DA11D661F829F2227B00D32
S11323F0A11D621F739FB00DA11D621F839FA00DBD
S1132400611D221F749F3327A00D611D231F849F0C
S1132410600D211D822F762F6A2F11249F57504063
S11324209AF0F1F088234AF0EE0FFF1FBB1F661FDE
S1132430771F881F91505040A9F79E3F510580F0A7
S11324400C9479110C94C4115F3FE4F3983ED4F3D7
S1132450869577956795B795F795E7959F5FC1F74B
S1132460FE2B880F911D9695879597F90895EE0F89
S1132470FF1F0590F491E02D0994FB01DC018D917F
S1132480019080190110D9F3990B0895FB01DC0127
S113249001900D920020E1F70895AEE0B0E0E3E58D
S11324A0F2E10C943E150D891E898F89988D26E0E2
S11324B02C831A83098397FF02C080E090E8019778
S11324C09E838D83AE01455E5F4F698D7A8DCE010B
S11324D001960E949F124D815E8157FD0AC02F8193
S11324E03885421753070CF49A01F801E20FF31FE1
S11324F010822E96E4E00C945A15AEE0B0E0E3E8C6
S1132500F2E10C943E150D891E8986E08C831A83B2
S113251009838FEF9FE79E838D83AE01475E5F4FF4
S11325206F89788DCE0101960E949F12EF81F88504
S1132530E00FF11F10822E96E4E00C945A15ABE0E4
S1132540B0E0E5EAF2E10C9430156C017B018A01FC
S1132550FC0117821682838181FFCCC1CE010196D2
S11325603C01F6019381F70193FD859193FF8191DD
S11325707F01882309F4BAC1853239F493FD85912A
S113258093FF81917F01853229F4B60190E00E9486
S11325909614E7CF912C212C312CFFE1F315D8F0C0
S11325A08B3279F038F4803279F08332A1F4232D20
S11325B020611DC08D3261F0803369F4232D2160C8
S11325C016C0832D8260382EE32DE4603E2E2AC08F
S11325D0F32DF8601DC037FC2DC020ED280F2A30E4
S11325E040F08E32B9F436FC81C1232D2064322EA2
S11325F019C036FE06C08AE0989E200D1124922E42
S113260011C0EAE02E9E200D1124222EF32DF0623B
S11326103F2E08C08C3621F4832D8068382E02C0EA
S1132620883641F4F70193FD859193FF81917F01F1
S11326308111B3CF982F9F7D9554933028F40C5F6C
S11326401F4F9FE399830DC0833631F0833771F0B8
S1132650833509F059C021C0F801808189830E5F58
S11326601F4F88248394912C530113C02801F2E056
S11326704F0E511CF801A080B18036FE03C0692DB5
S113268070E002C06FEF7FEFC5010E948B144C0114
S11326908201F32DFF773F2E16C0280122E0420E5F
S11326A0511CF801A080B18036FE03C0692D70E092
S11326B002C06FEF7FEFC5010E9480144C01F32D1F
S11326C0F0683F2E820133FC1BC0822D90E08816F7
S11326D09906B0F4B60180E290E00E9496142A9420
S11326E0F4CFF50137FC859137FE81915F01B60186
S11326F090E00E94961421102A9421E0821A9108F5
S11327008114910471F7E8C0843611F0893641F5DB
S1132710F80137FE07C060817181828193810C5F6B
S11327201F4F08C060817181072E000C880B990B24
S11327300E5F1F4FF32DFF763F2E97FF09C0909534
S11327408095709561957F4F8F4F9F4FF0683F2E16
S11327502AE030E0A3010E94D214882E861845C0D6
S1132760853731F4232D2F7EB22E2AE030E025C0A8
S1132770932D997FB92E8F36C1F018F4883579F0EE
S1132780B5C0803719F0883721F0B0C0E92FE06177
S1132790BE2EB4FE0DC0FB2DF460BF2E09C034FE66
S11327A00AC0292F2660B22E06C028E030E005C0FA
S11327B020E130E002C020E132E0F801B7FE07C0BA
S11327C060817181828193810C5F1F4F06C060819B
S11327D0718180E090E00E5F1F4FA3010E94D2142C
S11327E0882E8618FB2DFF773F2E36FE0DC0232D35
S11327F02E7FA22E891458F434FE0BC032FC09C07B
S1132800832D8E7EA82E05C0B82CA32C03C0B82C13
S113281001C0B92CA4FE0FC0FE01E80DF11D80819A
S1132820803321F49A2D997EA92E09C0A2FE06C0F8
S1132830B394B39404C08A2D867809F0B394A3FCAE
S113284011C0A0FE06C0B21488F4280C922C9B1868
S11328500EC0B21460F4B60180E290E00E949614B7
S1132860B394F7CFB21418F42B1802C0982C212C6F
S1132870A4FE10C0B60180E390E00E949614A2FE6C
S113288017C0A1FC03C088E790E002C088E590E08F
S1132890B6010CC08A2D867859F0A1FE02C08BE2E5
S11328A001C080E2A7FC8DE2B60190E00E9496147C
S11328B0891438F4B60180E390E00E9496149A9447
S11328C0F7CF8A94F301E80DF11D8081B60190E001
S11328D00E9496148110F5CF222009F442CEB6014D
S11328E080E290E00E9496142A94F6CFF601868145
S11328F0978102C08FEF9FEF2B96E2E10C944C1569
S1132900FC010590615070400110D8F780959095B6
S11329108E0F9F1F0895FC016150704001900110BB
S1132920D8F7809590958E0F9F1F08950F931F934E
S1132930CF93DF93FB01238121FD03C08FEF9FEF32
S11329402CC022FF16C0468157812481358142174D
S1132950530744F4A081B1819D012F5F3F4F318320
S113296020838C93268137812F5F3F4F37832683C3
S113297014C08B01EC01FB010084F185E02D099565
S1132980892BE1F6D80116968D919C9117970196A3
S113299017969C938E931697CE01DF91CF911F913A
S11329A00F910895FA01AA27283051F1203181F1BD
S11329B0E8946F936E7F6E5F7F4F8F4F9F4FAF4F43
S11329C0B1E03ED0B4E03CD0670F781F891F9A1F56
S11329D0A11D680F791F8A1F911DA11D6A0F711D0A
S11329E0811D911DA11D20D009F468943F912AE016
S11329F0269F11243019305D3193DEF6CF010895FE
S1132A00462F4770405D4193B3E00FD0C9F7F6CF2E
S1132A10462F4F70405D4A3318F0495D31FD4052F6
S1132A20419302D0A9F7EACFB4E0A695979587958C
S1132A3077956795BA95C9F700976105710508956B
S1132A409B01AC010A2E0694579547953795279517
S1132A50BA95C9F7620F731F841F951FA01D0895AF
S1132A602F923F924F925F926F927F928F929F929A
S1132A70AF92BF92CF92DF92EF92FF920F931F9388
S1132A80CF93DF93CDB7DEB7CA1BDB0B0FB6F89439
S1132A90DEBF0FBECDBF09942A88398848885F8479
S1132AA06E847D848C849B84AA84B984C884DF80EA
S1132AB0EE80FD800C811B81AA81B981CE0FD11DCE
S1132AC00FB6F894DEBF0FBECDBFED010895F894A4
S1052AD0FFCF32
S1132AD2FF010101FF0201FF0103010101010101E3
S1132AE20123002A4401020343040506420708099C
S1132AF2410A507265737320276F2720746F206F09
S1132B0270656E2074686520646F6F722C20276371
S1132B122720746F20636C6F73652074686520646A
S1132B226F6F722C2027622720746F20676F2062D8
S1132B3261636B3A200A00496E76616C69642063B2
S1132B42686F6963652E0A00456E74657220506170
S1132B527373776F72643A00496E76616C696420AC
S1132B6250617373776F7264004E6F204C6F6361B0
S1132B726C2055736572730025732C49443A2025E1
S1132B826400456E74657220557365722049443A37
S1132B92004C6F67696E2053756363657373667562
S1132BA26C004572726F723A20496E636F7272657D
S1132BB26374003C3C4572726F723E3E003C537932
S1132BC27374656D202048616C7465643E004572BF
S1132BD2726F723A20496E76616C6964205573652E
S1132BE272204F72646572004C4544204F4E2F4F41
S1132BF2464600414320436F6E74726F6C004C6F03
S1132C02672D6F7574005B4F4E5D20005B4F464627
S1132C125D004C616D703120004C616D703220009A
S1132C224C616D703320004C616D703420004C6136
S1132C326D7035200044696D4C616D7020005265E1
S1132C427475726E005B4F4E5D00414320005275F5
S1132C526E2054656D703A0053746F702054656D24
S1132C62703A0041637469766520446576696365E8
S1132C72733A004552524F5200446973706C617941
S1132C82696E6720616C6C2075736572733A0A0011
S1132C9252656D6F74653A20557365723A202573D7
S1132CA22C2049443A2025640A004C6F67696E203F
S1132CB25375636365737366756C0A004572726F4C
S1132CC2723A20496E636F72726563742050617345
S1132CD273776F72640A004572726F723A20496E9A
S1132CE276616C696420557365722049440A005206
S1132CF26567697374657220617320616E20616413
S1132D026D696E0A00456E74657220757365726E24
S1132D12616D653A20005265676973747261746902
S1132D226F6E207375636365737366756C0A004511
S1132D3272726F723A205573657220617272617990
S1132D422069732066756C6C0A004572726F723A60
S1132D5220454550524F4D20777269746520666153
S1132D62696C65640A0052656769737465722061EF
S1132D72206E657720757365720A004C616D702050
S1132D824D656E750A0043686F6F7365206C616DE3
S1132D9270206E756D62657220796F752077616E31
S1132DA27420746F207475726E206F6E2F6F666656
S1132DB23A200A00312E204C616D70310A00322E05
S1132DC2204C616D70320A00332E204C616D7033D9
S1132DD20A00342E204C616D70340A00352E204CCA
S1132DE2616D70350A00362E2044696D6D65720A74
S1132DF200372E2052657475726E0A00496E766130
S1132E026C69642063686F6963652E20506C656128
S1132E1273652074727920616761696E2E0A0041BC
S1132E2243204D656E7500507265737320285429D2
S1132E3220746F207475726E200050726573732053
S1132E4228452920746F20457869740A0057726FE7
S1132E526E6720496E7075740055736572204D65F6
S1132E626E753A0A00312E204C616D70730A00327D
S1132E722E2041430A00332E204C6F676F75740A6B
S1132E820041646D696E204D656E753A0A00312EFB
S1132E9220526567697374657220557365722028C0
S1132EA252656D6F7465290A00322E205265676976
S1132EB273746572205573657220284C6F63616C5C
S1132EC2290A00332E204C616D70730A00342E20BF
S1132ED241430A00352E20436F6E74726F6C204496
S1132EE26F6F7220284F70656E2F436C6F73652964
S1112EF20A00362E204C6F676F75740A0000BC
S9030000FC
