S0110000536D617274486F6D652E7372656383
S11300000C9438000C94A7040C94D0040C94F904B8
S11300100C9408060C94DF050C9455000C945500C0
S11300200C9455000C9495050C944F050C942605DE
S11300300C9455000C9455060C9455000C945500E2
S11300400C9455000C9455000C9455000C945500D8
S11300500C945500220B240B2A0B2C0B2E0B300B6B
S1130060350BC00EC20EC60EC80ECA0ECC0ECF0E75
S113007011241FBECFE5D8E0DEBFCDBF14E0A0E65B
S1130080B0E0E4E5F9E202C005900D92A237B107B1
S1130090D9F726E0A2E7B4E001C01D92AB3AB2075B
S11300A0E1F70E9457000C94A8140C9400000E94DD
S11300B071010E9481060E94BC060E9407070E94EB
S11300C0400C87E690E00E9431060E94B00C0E942A
S11300D003080E94B6000E94DA0F2FEF89EF90E028
S11300E0215080409040E1F700C000000E94A70624
S11300F00E9409070E94110C0E94D80FEECF41E024
S113010066E080E00C94D90241E066E080E00C9463
S1130110420340E066E080E00C94420365E088E638
S11301200E9478050E947A0241E063E081E00C9429
S1130130D9020E947C02BC0180E090E00E947D1004
S113014020E030EC4FE754E40E94DC0F20E030E084
S113015048EC52E40E940B110E944E10862F0C941E
S11301607F0580E00C947F050C9474020C947F024C
S1130170CF93C82F0E949802EC2FF0E0EF58FB4F6A
S1130180908181E089278083CF910895E82FF0E062
S1130190EF58FB4F808108958FE99FE00197F1F7B5
S11301A000C0000041E064E082E00E9442038FE965
S11301B09FE00197F1F700C0000040E064E082E0B6
S11301C00E9442038FE99FE00197F1F700C000000D
S11301D00895CF93C82F40E066E082E00E94420376
S11301E0C4FB442740F960E082E00E944203C5FB5F
S11301F0442740F961E082E00E944203C6FB4427A1
S113020040F962E082E00E9442034C2F441F4427DD
S1130210441F63E082E00E9442030E94CC004C2F02
S1130220417060E082E00E944203C1FB442740F930
S113023061E082E00E944203C2FB442740F962E08D
S113024082E00E944203C3FB442740F963E082E05A
S11302500E944203CF910C94CC00CF93C82F41E06D
S113026066E082E00E944203C4FB442740F960E058
S113027082E00E944203C5FB442740F961E082E02A
S11302800E944203C6FB442740F962E082E00E94D8
S113029042034C2F441F4427441F63E082E00E9422
S11302A042030E94CC004C2F417060E082E00E9427
S11302B04203C1FB442740F961E082E00E9442030B
S11302C0C2FB442740F962E082E00E944203C3FB80
S11302D0442740F963E082E00E944203CF910C94EA
S11302E0CC0041E066E082E00E94D90241E065E092
S11302F082E00E94D90241E064E082E00E94D902D7
S113030041E060E082E00E94D90241E061E082E0E5
S11303100E94D90241E062E082E00E94D90241E0F9
S113032063E082E00E94D90240E065E082E00E943E
S1130330420380E00E942D012FEF86E791E02150D7
S113034080409040E1F700C0000083E00E94E90093
S11303508FE19EE40197F1F700C0000083E00E9462
S1130360E90087E592E00197F1F700C0000083E01F
S11303700E94E90082E00E94E90082E00E94E90014
S113038088E20E94E90088E00E94E90080E00E947F
S1130390E9008CE00E94E90080E00E94E90086E028
S11303A00C94E900882319F0813019F0089580E84D
S11303B001C080EC860F0C94E9000C942D010F937E
S11303C01F93CF938C01C0E0F801EC0FF11D8081E5
S11303D0882321F00E942D01CF5FF6CFCF911F918A
S11303E00F9108950F931F93CF93DF93CDB7DEB78B
S11303F0A1970FB6F894DEBF0FBECDBF9F938F9326
S113040081E091E09F938F938E010F5F1F4F1F93A5
S11304100F930E94BE11C8010E94DF010F900F903C
S11304200F900F900F900F90A1960FB6F894DEBF27
S11304300FBECDBFDF91CF911F910F9108950C9402
S1130440C60285E00E94CC02BC0180E090E00E94DC
S11304507D102AE137E64CE950E40E940B1120E0BC
S113046030E040E251E40E94DC0F0E944E10CB01C8
S113047008950F931F93CF9300E010E0C0E064E071
S1130480600F81E00E94DB03002E01C0880F0A94F4
S1130490EAF7C82B0F5F1F4F0430110581F7EC2FCB
S11304A0F0E0E459FF4F808180936000CF911F9169
S11304B00F910C94390CCF93C4E040E06C2F81E091
S11304C00E94D902CF5FC830C1F769E372E080E0CF
S11304D00E94920462E080E00E944C0480E00E944A
S11304E03C04CF910C942205809160009FEF90937F
S11304F0600008950C94C60287E00C94CC0241E09D
S113050060E080E00E94D90241E061E080E00E9466
S1130510D90241E062E080E00E94D90241E063E058
S113052080E00E94D90241E064E080E00C94D902AA
S1130530833079F028F4813041F0823041F008951D
S1130540843049F0853049F0089560E007C061E0E7
S113055005C062E003C063E001C064E080E00C9485
S1130560AB03CF92EF920F93CF93C22F0E94D90285
S11305708C2D0E94C6054E2D602F8C2FCF910F918C
S1130580EF90CF900C94BE050C94CA05379A86B1AF
S1130590876086B93E9A089597B1907E97B997B1CE
S11305A0892B87B9369A349BFECF349A84B195B19E
S11305B008958130F9F030F08230A1F1833009F4EC
S11305C049C00895413049F42AB381E090E001C064
S11305D0880F6A95EAF7822B0BC0411152C02AB3E7
S11305E081E090E001C0880F6A95EAF78095822344
S11305F08ABB0895413049F427B381E090E001C0FB
S1130600880F6A95EAF7822B0BC041113AC027B3D1
S113061081E090E001C0880F6A95EAF78095822313
S113062087BB0895413049F424B381E090E001C0D0
S1130630880F6A95EAF7822B0BC0411122C024B3BC
S113064081E090E001C0880F6A95EAF780958223E3
S113065084BB0895413049F421B381E090E001C0A6
S1130660880F6A95EAF7822B0BC041110AC021B3A7
S113067081E090E001C0880F6A95EAF780958223B3
S113068081BB08958130F9F030F08230A1F18330DC
S113069009F449C00895413049F42BB381E090E056
S11306A001C0880F6A95EAF7822B0BC0411152C032
S11306B02BB381E090E001C0880F6A95EAF780953A
S11306C082238BBB0895413049F428B381E090E044
S11306D001C0880F6A95EAF7822B0BC041113AC01A
S11306E028B381E090E001C0880F6A95EAF780950D
S11306F0822388BB0895413049F425B381E090E01A
S113070001C0880F6A95EAF7822B0BC0411122C001
S113071025B381E090E001C0880F6A95EAF78095DF
S1130720822385BB0895413049F422B381E090E0EF
S113073001C0880F6A95EAF7822B0BC041110AC0E9
S113074022B381E090E001C0880F6A95EAF78095B2
S1130750822382BB0895813081F028F08230B9F081
S11307608330F9F008952BB381E090E001C0880F45
S11307706A95EAF782278BBB089528B381E090E05D
S113078001C0880F6A95EAF7822788BB089525B3CC
S113079081E090E001C0880F6A95EAF7822785BB63
S11307A0089522B381E090E001C0880F6A95EAF7CA
S11307B0822782BB0895813049F030F0823041F0C5
S11307C0833079F480B305C089B303C086B301C014
S11307D083B390E002C0959587956A95E2F781709E
S11307E0089580E00895E199FECF9FBB8EBB6DBB59
S11307F0E29AE19A0895E199FECF9FBB8EBBE09AFD
S11308008DB30895EF92FF920F931F93CF93DF93CD
S11308108C01EB017B01E40EF11CCE15DF0540F4E5
S1130820F80161918F01CE010E94F3032196F5CF67
S1130830DF91CF911F910F91FF90EF900895EF9268
S1130840FF920F931F93CF93DF938C01EB017B01F6
S1130850E40EF11CCE15DF0540F4CE010E94FB032B
S1130860F80181938F012196F5CFDF91CF911F91EC
S11308700F91FF90EF900895813039F018F0823095
S113088039F008958BB7806405C08BB7806802C0C7
S11308908BB780628BBF08958130F9F018F08230F5
S11308A0B1F10895611103C085B78E7F04C0613032
S11308B039F485B7816085BF85B78D7F85BF08957D
S11308C0623019F485B78E7F04C0633051F585B763
S11308D0816085BF85B78260F1CF611103C085B7A0
S11308E08B7F04C0613031F485B7846085BF85B7E0
S11308F0877FE4CF623019F485B78B7F04C06330FF
S113090081F485B7846085BF85B78860D7CF6230AE
S113091019F484B78F7B04C0633019F484B78064FE
S113092084BF0895813049F018F0823059F0089559
S113093070937C0460937B04089570937A046093AD
S113094079040895709378046093770408951F924E
S11309500F920FB60F9211242F933F934F935F93EF
S11309606F937F938F939F93AF93BF93EF93FF9373
S1130970E0917B04F0917C04309709F00995FF9194
S1130980EF91BF91AF919F918F917F916F915F9103
S11309904F913F912F910F900FBE0F901F9018957C
S11309A01F920F920FB60F9211242F933F934F93E0
S11309B05F936F937F938F939F93AF93BF93EF93C3
S11309C0FF93E0917904F0917A04309709F0099546
S11309D0FF91EF91BF91AF919F918F917F916F9113
S11309E05F914F913F912F910F900FBE0F901F90E9
S11309F018951F920F920FB60F9211242F933F93C5
S1130A004F935F936F937F938F939F93AF93BF9312
S1130A10EF93FF93E0917704F0917804309709F015
S1130A200995FF91EF91BF91AF919F918F917F9124
S1130A306F915F914F913F912F910F900FBE0F9047
S1130A401F9018958FB780688FBF08951F920F92DB
S1130A500FB60F9211242F933F934F935F936F938D
S1130A607F938F939F93AF93BF93EF93FF93E09103
S1130A707F04F0918004309709F00995FF91EF917C
S1130A80BF91AF919F918F917F916F915F914F91A2
S1130A903F912F910F900FBE0F901F9018951F92AA
S1130AA00F920FB60F9211242F933F934F935F939E
S1130AB06F937F938F939F93AF93BF93EF93FF9322
S1130AC0E0917D04F0917E04309709F00995FF913F
S1130AD0EF91BF91AF919F918F917F916F915F91B2
S1130AE04F913F912F910F900FBE0F901F9018952B
S1130AF093B7892B83BF83B7682B63BF0895682F8F
S1130B0070E080E090E00E947D1020E030E048EC4E
S1130B1052E40E94DC0F20E030E04FE753E40E94EF
S1130B200B110E944E106CBF08951F920F920FB6C6
S1130B300F9211242F933F934F935F936F937F935F
S1130B408F939F93AF93BF93EF93FF93E0918104AF
S1130B50F0918204309709F00995FF91EF91BF91CC
S1130B60AF919F918F917F916F915F914F913F9141
S1130B702F910F900FBE0F901F9018959FB5892B42
S1130B808FBD8EB5482B642B6EBD089590E097BD44
S1130B9086BD089590E09BBD8ABD089595B5892BC7
S1130BA085BD08950C94CE0584BD089589B78064ED
S1130BB089BF0895909386048093850408951F92B5
S1130BC00F920FB60F9211242F933F934F935F937D
S1130BD06F937F938F939F93AF93BF93EF93FF9301
S1130BE0E0918504F0918604309709F00995FF910E
S1130BF0EF91BF91AF919F918F917F916F915F9191
S1130C004F913F912F910F900FBE0F901F90189509
S1130C101F920F920FB60F9211242F933F934F936D
S1130C205F936F937F938F939F93AF93BF93EF9350
S1130C30FF93E0918304F0918404309709F00995BF
S1130C40FF91EF91BF91AF919F918F917F916F91A0
S1130C505F914F913F912F910F900FBE0F901F9076
S1130C60189589B990BD539A549A579A86E880BDCD
S1130C700C9422055D9BFECF8CB90895CF93DF932E
S1130C80EC018991882319F00E943A06FACFDF918A
S1130C90CF91089580918704882329F010928704C6
S1130CA080919F0408958FEF08951F920F920FB6BD
S1130CB00F9211248F938CB180939F0481E08093D1
S1130CC087048F910F900FBE0F901F9018951F935C
S1130CD0CF93DF93EC010E944A0610E0833251F077
S1130CE08F3F29F0FE01E10FF11D80831F5F0E94F9
S1130CF04A06F4CFC10FD11D1882DF91CF911F9105
S1130D0008950E947F000E941F02E0EAF4E081E05F
S1130D1080838CE1818385E182830895E0EAF4E0B5
S1130D20908181E0892780830895DC0111962C91BC
S1130D301197E0EAF4E0218312968C91828308955E
S1130D406091A0047091A1048091A20408958091FF
S1130D50A004882371F0813071F40E9421029091E3
S1130D60A104981710F40C9484009091A20489179C
S1130D7010F40C9489000895CF92DF92EF920F93B0
S1130D8087E8C82E83E1D82E93E0E92E08E122E813
S1130D9041E065E083E00E94B1020F91EF90DF90A3
S1130DA0CF90089588E592E00C94C4028EE591E01A
S1130DB00C94C40280916100882331F08CE790E0A8
S1130DC00E943E061092610080916200882321F007
S1130DD00E944A0680938804809188048F3FB1F072
S1130DE010926200833641F08F3619F0823639F45E
S1130DF008950E94D20607C00E94D60604C082EC61
S1130E0090E00E943E0681E08093620008950C9475
S1130E108E0080916300882321F0813021F40C94AA
S1130E2099000C94B10008959091630081E08927A2
S1130E30809363000895809163000895CF92DF92B8
S1130E40EF92FF920F931F93CF936C01E62E83EDE5
S1130E5090E00E94DF01C0E0F12C21E0E21AF108E9
S1130E600C2F10E00E151F05D4F50E947402843473
S1130E70D9F4C830A1F181E00E94E90083EE90E04A
S1130E800E94DF018FEF93ED20E3815090402040DA
S1130E90E1F700C0000081E00E94E90083ED90E0EA
S1130EA00E94DF01C0E0DCCF833479F4CC23C1F2AB
S1130EB0C150F601EC0FF11D108281E00E94E9009F
S1130EC083ED90E00E94DF01CBCF90ED980F9A3034
S1130ED038F6F601E00FF11F8083CF5FC1CFF60132
S1130EE0E00FF11F1082CF911F910F91FF90EF90AF
S1130EF0DF90CF9008950F931F93CF93DF938C01CE
S1130F008AE1689FE0011124BE016F5F7F4F40E1D9
S1130F10C8010E940204BE016F5E7F4F49E0C80110
S1130F2040960E940204F801618DCE014A96DF9139
S1130F30CF911F910F910C94F3030F931F93CF93B1
S1130F40DF938C018AE1689FE0011124BE016F5F89
S1130F507F4F40E1C8010E941F04BE016F5E7F4FB6
S1130F6049E0C80140960E941F04CE014A960E949F
S1130F70FB03F801818FDF91CF911F910F910895A9
S1130F80CF92DF92EF92FF920F931F93CF93C09172
S1130F908904CA3038F58B01BC018AE1C89F60011D
S1130FA01124F601ED55FB4F7F01CF010E948711FB
S1130FB0B801C6018D549B4F0E94871181E08C0FAC
S1130FC0F701818F6C2F83EA94E00E947B07609184
S1130FD089046F5F609389048FE090E00E94F303BB
S1130FE080E001C081E0CF911F910F91FF90EF90BD
S1130FF0DF90CF9008959B018A3020F4682FC901B7
S11310000C949D070895CF938FE090E00E94FB031A
S11310108F3F39F4609189048FE090E0CF910C9474
S1131020F3038FE090E00E94FB0380938904C0E007
S113103080918904C81738F463EA74E08C2F0E9405
S1131040FB07CF5FF5CFCF910895AF92BF92CF92B8
S1131050DF92EF92FF920F931F93CF93DF93CDB75D
S1131060DEB7E2970FB6F894DEBF0FBECDBF182FE0
S1131070062F81E00E94E9008AE1B82E94EFE92E60
S113108090E0F92E22E3A22ECE0101966C011017F6
S113109000F5809189041817E0F4B19EF001112441
S11310A0ED55FB4F818D1F928F93FF93EF93FF922A
S11310B0EF921F92AF92DF92CF920E948E11C601DF
S11310C00E94DF011F5F0FB6F894DEBF0FBECDBFD5
S11310D0DECF60E081E00E94D201E2960FB6F89480
S11310E0DEBF0FBECDBFDF91CF911F910F91FF9057
S11310F0EF90DF90CF90BF90AF9008951F93CF9360
S1131100DF93CDB7DEB729970FB6F894DEBF0FBED5
S1131110CDBF84E091E00E94DF010E94B400182F4B
S11311208FEF810F8A3028F583ED90E00E94DF0174
S113113069E0CE0101960E941E07812F90E001977D
S11311402AE1289FB001299F700D11246D547B4F13
S1131150CE0101960E947E11892B41F483E191E036
S11311600E94DF0181E080938A0407C084E291E059
S113117002C08EE391E00E94DF0129960FB6F89435
S1131180DEBF0FBECDBFDF91CF911F91089562E006
S113119080E00E9425080E9474022FEF83EC99E0FE
S11311A0215080409040E1F700C000000C947E087C
S11311B080918A04089510928A0408958091960477
S11311C0909197040196909397048093960486E0F7
S11311D00E94D405809196049091970480379240A0
S11311E051F481E00E94B800109297041092960482
S11311F081E0809398040895FC018081882319F08C
S1131200813021F0089560E080E002C060E081E078
S11312100E94D2018EE30C94DD01CF93DF93EC01A5
S113122061E080E00E94D2018881882369F08130E6
S1131230C9F483E691E00E94DF0161E081E00E944D
S1131240D2018EE691E00AC088E591E00E94DF01B8
S113125061E081E00E94D20183E691E0DF91CF91C9
S11312600C94DF01DF91CF910895CF93DF93EC01CC
S113127061E080E00E94D2018881823009F443C099
S113128028F4882361F0813021F1ABC0843009F463
S11312906DC008F44FC0853009F48AC0A2C082E84A
S11312A091E00E94DF0181E00E94C600811103C029
S11312B08CE791E002C086E791E00E94DF0161E0E3
S11312C081E00E94D20189E891E00E94DF0182E07E
S11312D04AC089E891E00E94DF0182E00E94C600D2
S11312E0811103C08CE791E002C086E791E00E947F
S11312F0DF0161E081E00E94D20180E991E00E9477
S1131300DF0183E030C080E991E00E94DF0183E0E7
S11313100E94C600811103C08CE791E002C086E7F9
S113132091E00E94DF0161E081E00E94D20187E93F
S113133091E016C087E991E00E94DF0184E00E94F9
S1131340C600811103C08CE791E002C086E791E0FA
S11313500E94DF0161E081E00E94D2018EE991E008
S11313600E94DF0184E00E94C6001AC08EE991E069
S11313700E94DF0184E00E94C600811103C08CE753
S113138091E002C086E791E00E94DF0161E081E024
S11313900E94D20185EA91E00E94DF010E941B07AE
S11313A0811103C08CE791E018C086E791E015C075
S11313B085EA91E00E94DF010E941B07811103C0AE
S11313C08CE791E002C086E791E00E94DF0161E0D2
S11313D081E00E94D2018EEA91E0DF91CF910C94DA
S11313E0DF01DF91CF9108950F931F93CF93DF9384
S11313F08C01EB0161E080E00E94D201F801808160
S1131400813099F1D0F0823009F04DC088EC91E040
S11314100E94DF018A8190E00E94F20183E40E942D
S1131420DD0161E081E00E94D2018EEA91E0DF916A
S1131430CF911F910F910C94DF018AEB91E00E94F0
S1131440DF018881811103C08CE791E002C085EB44
S113145091E00E94DF0161E081E00E94D2018EEB05
S113146091E00E94DF01898114C08EEB91E00E941B
S1131470DF01898190E00E94F20183E40E94DD0192
S113148061E081E00E94D20188EC91E00E94DF01DA
S11314908A8190E00E94F20183E4DF91CF911F9151
S11314A00F910C94DD01DF91CF911F910F9108955D
S11314B0DB01FA013C91332319F0313079F00895BE
S11314C0009719F0019739F008958081882311F06D
S11314D081500DC0208381E08C930895009751F0D2
S11314E0019709F008958081821718F48F5F808333
S11314F0089510821C9208950F931F93CF938C012B
S11315000E947402C82F8F3F19F081E00E94E90005
S113151085E994E00E940D0984E994E00E94FC08A6
S1131520C23469F0C33411F1C13409F03FC021E081
S113153045E954E064E974E080E090E007C021E00C
S113154045E954E064E974E081E090E00E94580ABF
S113155081E00E94E90085E994E00E940D0984E994
S113156094E0CF911F910F910C94FC082091950465
S11315708091940490E0820F911D8130910549F08F
S11315808230910571F0892B89F4F801108281E091
S113159003C081E0F8018083CF911F910F910C94D7
S11315A0E900CF911F910F910C94DB08CF911F910B
S11315B00F9108950F931F93CF938C010E9474028F
S11315C0C82F8F3F19F081E00E94E9008CE894E075
S11315D00E9435098BE894E00E94FC08C23469F04B
S11315E0C33411F1C13409F048C025E04CE854E09B
S11315F06BE874E080E090E007C025E04CE854E03C
S11316006BE874E081E090E00E94580A81E00E9457
S1131610E9008CE894E00E9435098BE894E0CF91CE
S11316201F910F910C94FC0880918C04E0918B0421
S1131630F0E0E80FF11DE730F105F8F4E65DFF4F47
S11316400C94781181E001C082E0CF911F910F9139
S11316500C94B80083E0F9CF84E0F7CF85E0F5CFB0
S1131660CF911F910F910C94140783E0F8018083AC
S113167081E00E94E90010928C04CF911F910F9198
S113168008950F931F93CF93DF93EC018B010E9476
S11316907402823439F0833449F0813449F4888106
S11316A08F5F02C088818150888302C0F801108254
S11316B0DF91CF911F910F910895CF93DF93EC01A8
S11316C080919304811104C00E9474028093920457
S11316D0809192048F3F39F080919304811103C06B
S11316E081E00E94E9000E94A00660938F04709339
S11316F09004809391046FE874E08EE894E00E9473
S1131700F4098DE894E00E94FC08809192048234EC
S113171069F0833419F1813409F070C022E04EE895
S113172054E06DE874E080E090E007C022E04EE809
S113173054E06DE874E081E090E00E94580A81E092
S11317400E94E9006FE874E08EE894E00E94F409D6
S11317508DE894E0DF91CF910C94FC0820918E04E5
S113176080918D0490E0820F911D81309105A9F044
S11317703CF4892B09F042C0DF91CF910C948E0682
S11317808230910501F10397C9F583E0888381E0F4
S11317900E94E90010928E0431C081E0809393048A
S11317A063E974E080E994E00E94410B8091900425
S11317B0813208F080E290919104891708F4892F0E
S11317C08093900415C081E08093930463E974E0EE
S11317D081E994E00E94410B80919104823108F4E4
S11317E082E190919004981708F4892F80939104D2
S11317F08FE894E0DF91CF910C949506DF91CF911F
S1131800089581E00E94E90083ED91E00E94DF01E8
S113181067E081E00E94D2018091990490E00C94E9
S1131820F2010E94D808909198048823C9F091117C
S113183017C080916400813039F050F0833061F436
S113184084E690E00C947C0A84E690E00C945D0BB2
S113185084E690E00C94DA0A83EE91E00C94DF01C4
S113186091110C94010C0E94BF0D8111FACF0C94BC
S1131870C708109298041092970410929604089541
S11318800E94220580E00E94D20586E00E94D405D1
S11318908EED98E00E94DA050E94D60587E00E944A
S11318A0CE0547E050E064E070E081E090E00C9405
S11318B05B02CF93DF93EC0183ED90E00E943E0640
S11318C0CE010E94670686E293E0DF91CF910C94EB
S11318D03E060F931F93CF93DF938C01C0919A041C
S11318E08AE1C89FE0011124CF5FDD4F40E1BE01D2
S11318F0C8010E940204BE01605F7F4F49E0C80135
S113190040960E940204F801618DCE014996DF9150
S1131910CF911F910F910C94F3030F931F93CF93C7
S1131920DF938C018AE1689FE0011124CF5FDD4FD2
S113193040E1BE01C8010E941F04BE01605F7F4FE9
S113194049E0C80140960E941F04CE0149960E94B6
S1131950FB03F801818FDF91CF911F910F910895BF
S1131960CF93DF9380E090E00E94FB038F3F39F434
S113197060919A0480E090E00E94F30316C080E036
S113198090E00E94FB0380939A04C0E0DAE1809126
S11319909A04C81750F4DC9FC00111246C2F895598
S11319A09A4F0E948D0CCF5FF2CF87E690E0DF91D3
S11319B0CF910C943106CF92DF92EF92FF920F9366
S11319C01F93CF93C0919A04CA3018F57B01BC01D0
S11319D08AE1C89F60011124860109551A4FC80184
S11319E00E948711B701C60189549A4F0E9487113A
S11319F0CF5FF801C18FC8010E94690C60919A04FD
S1131A006F5F60939A0480E090E00E94F30380E0AB
S1131A1001C081E0CF911F910F91FF90EF90DF9073
S1131A20CF900895BF92CF92DF92EF92FF920F93DF
S1131A301F93CF93DF93CDB7DEB7E2970FB6F89439
S1131A40DEBF0FBECDBF89EE91E00E943E0610E0DE
S1131A500AE180E0E82E82E0F82E92E3B92ECE016E
S1131A6001966C0180919A04181708F5019FC00132
S1131A701124FC01E955FA4F218D1F922F938954AB
S1131A809A4F9F938F93FF93EF93FF92EF921F923E
S1131A90BF92DF92CF920E948E11C6010E943E0631
S1131AA01F5F0FB6F894DEBF0FBECDBFDBCFE2964B
S1131AB00FB6F894DEBF0FBECDBFDF91CF911F915B
S1131AC00F91FF90EF90DF90CF90BF9008950F9308
S1131AD01F93CF93DF93CDB7DEB729970FB6F89452
S1131AE0DEBF0FBECDBF80916500882331F084E056
S1131AF091E00E943E06109265000E944A06182F4B
S1131B008F3F89F186E293E00E943E0600ED010FCB
S1131B1011531A3000F5CE0101960E94590C802F02
S1131B2090E001972AE1289FB001299F700D1124AC
S1131B3069547A4FCE0101960E947E11892B41F49B
S1131B408EE192E00E943E0681E080939B0407C0F0
S1131B5080E392E002C08BE492E00E943E0681E0C2
S1131B6080936500102F812F29960FB6F894DEBF5D
S1131B700FBECDBFDF91CF911F910F91089580913A
S1131B809B04089510929B040895CF93DF93CDB7DF
S1131B90DEB769970FB6F894DEBF0FBECDBF80E005
S1131BA090E00E94FB03811129C083E692E00E9429
S1131BB03E0689E792E00E943E06CE0101960E940D
S1131BC0670686E293E00E943E06CE0141960E949B
S1131BD0590CBE016F5E7F4FCE0101960E94DB0C53
S1131BE0811103C08AE892E007C0813019F483EAC6
S1131BF092E002C08EEB92E00E943E0669960FB618
S1131C00F894DEBF0FBECDBFDF91CF910895CF937F
S1131C10DF93CDB7DEB769970FB6F894DEBF0FBE7A
S1131C20CDBF8AED92E00E943E0689E792E00E94D1
S1131C303E06CE0101960E946706CE0141960E949F
S1131C40590CBE016F5E7F4FCE0101960E94DB0CE2
S1131C50811103C08AE892E007C0813019F483EA55
S1131C6092E002C08EEB92E00E943E0681E08093F7
S1131C706B00809369008093680069960FB6F894AE
S1131C80DEBF0FBECDBFDF91CF910895CF93DF9319
S1131C90CDB7DEB769970FB6F894DEBF0FBECDBFE0
S1131CA08AED92E00E943E0689E792E00E943E0699
S1131CB0CE0101960E946706CE0141960E94590CFE
S1131CC0BE016F5E7F4FCE0101960E94C007811155
S1131CD003C08AE892E007C0813019F483EA92E0F5
S1131CE002C08EEB92E00E943E0681E080936B007E
S1131CF0809369008093680069960FB6F894DEBFFC
S1131D000FBECDBFDF91CF910895809167008823E6
S1131D1031F18FEE92E00E943E068AEF92E00E943B
S1131D203E0688E293E00E943E0682E393E00E942E
S1131D303E068CE393E00E943E0686E493E00E9414
S1131D403E0680E593E00E943E068AE593E00E9409
S1131D503E0685E693E00E943E06109267000E94CC
S1131D604A068F3F59F1E0EDE80F8E2F90E0FC0119
S1131D703197E730F105D8F4EF5CFF4F0C947811FC
S1131D8081E001C082E00E94B80015C083E0FBCF6F
S1131D9084E0F9CF85E0F7CF0E9414070CC081E0FE
S1131DA080936B00809369008093680004C080E78F
S1131DB093E00E943E0681E0809367000895CF93EC
S1131DC080916600882319F183E993E00E943E061E
S1131DD00E94A006C62F611103C08CE791E002C0E7
S1131DE085EB91E00E943E068BE993E00E943E065B
S1131DF0C11103C085EB91E002C08CE791E00E9421
S1131E003E068EEA93E00E943E06109266000E940F
S1131E104A068F3FA1F0853429F0843559F4CF91D7
S1131E200C948E0681E080936B008093690080930C
S1131E30680005C081EC93E0CF910C943E06CF91ED
S1131E40089580916900882391F08DEC93E00E94BD
S1131E503E0689ED93E00E943E0683EE93E00E94E5
S1131E603E068AEE93E00E943E061092690080913D
S1131E706B00882321F00E944A0680939D04809180
S1131E809D048F3FE1F010926B00823331F0833375
S1131E9031F0813369F40C94850E0C94DF0E0E94AA
S1131EA0C20D81E080936B0080936A008093690087
S1131EB080E793E00E943E0681E080936B000895E2
S1131EC0809168008823F1F085EF93E00E943E063C
S1131ED082E094E00E943E068DE194E00E943E067A
S1131EE087E394E00E943E0681E494E00E943E066B
S1131EF088E494E00E943E0686E694E00E943E0652
S1131F001092680080916B00882321F00E944A0699
S1131F1080939C0480919C048F3F49F110926B0044
S1131F208333C1F030F4813399F08233C9F40C94D3
S1131F30460E853399F080F0863391F40E94C20DE9
S1131F4081E080936A0080936B0080936800089519
S1131F500C94070E0C94850E0C94DF0E0C94DA0688
S1131F6080E793E00E943E0681E080936B00089531
S1131F7080916A00882341F00E94BF0D813021F0D6
S1131F800E94120D10926A000E94BF0D882319F05E
S1131F90813031F008950E94670D80939E04089566
S1131FA080919E04813011F40C94600F0C94210FE5
S1131FB00C94B80F0C94C50D0E94F00F0C94D11022
S1131FC00E94CA1058F00E94C31040F029F45F3FE9
S1131FD029F00C94BA1051110C9405110C94C010F2
S1131FE00E94E21068F39923B1F3552391F3951BF2
S1131FF0550BBB27AA2762177307840738F09F5F26
S11320005F4F220F331F441FAA1FA9F335D00E2E92
S11320103AF0E0E832D091505040E695001CCAF7FF
S11320202BD0FE2F29D0660F771F881FBB1F2617C2
S113203037074807AB07B0E809F0BB0B802DBF0199
S1132040FF2793585F4F3AF09E3F510578F00C9468
S1132050BA100C9405115F3FE4F3983ED4F38695CF
S113206077956795B795F7959F5FC9F7880F911D89
S11320709695879597F90895E1E0660F771F881F75
S1132080BB1F621773078407BA0720F0621B730B28
S1132090840BBA0BEE1F88F7E09508950E94EA10AE
S11320A088F09F5798F0B92F9927B751B0F0E1F015
S11320B0660F771F881F991F1AF0BA95C9F714C0C5
S11320C0B13091F00E940411B1E008950C94041110
S11320D0672F782F8827B85F39F0B93FCCF38695FE
S11320E077956795B395D9F73EF49095809570955B
S11320F061957F4F8F4F9F4F0895E89409C097FBD8
S11321003EF490958095709561957F4F8F4F9F4FCA
S11321109923A9F0F92F96E9BB279395F69587950E
S113212077956795B795F111F8CFFAF4BB0F11F4D1
S113213060FF1BC06F5F7F4F8F4F9F4F16C0882378
S113214011F096E911C0772321F09EE8872F762FAE
S113215005C0662371F096E8862F70E060E02AF0EF
S11321609A95660F771F881FDAF7880F96958795DB
S113217097F9089597F99F6780E870E060E0089503
S11321809FEF80EC089500240A941616170618068B
S11321900906089500240A94121613061406050667
S11321A00895092E0394000C11F4882352F0BB0FF8
S11321B040F4BF2B11F460FF04C06F5F7F4F8F4F5B
S11321C09F4F089557FD9058440F551F59F05F3F96
S11321D071F04795880F97FB991F61F09F3F79F045
S11321E087950895121613061406551FF2CF4695C7
S11321F0F1DF08C0161617061806991FF1CF869549
S11322007105610508940895E894BB27662777272C
S1132210CB0197F908950E941E110C94D1100E94CD
S1132220C31038F00E94CA1020F0952311F00C94CA
S1132230BA100C94C01011240C9405110E94E210E1
S113224070F3959FC1F3950F50E0551F629FF00105
S1132250729FBB27F00DB11D639FAA27F00DB11D1E
S1132260AA1F649F6627B00DA11D661F829F2227A7
S1132270B00DA11D621F739FB00DA11D621F839F2E
S1132280A00D611D221F749F3327A00D611D231F04
S1132290849F600D211D822F762F6A2F11249F5752
S11322A050409AF0F1F088234AF0EE0FFF1FBB1F55
S11322B0661F771F881F91505040A9F79E3F510514
S11322C080F00C94BA100C9405115F3FE4F3983E2F
S11322D0D4F3869577956795B795F795E7959F5FBE
S11322E0C1F7FE2B880F911D9695879597F9089550
S11322F0EE0FFF1F0590F491E02D0994FB01DC0122
S11323008D91019080190110D9F3990B0895FB0167
S1132310DC0101900D920020E1F70895AEE0B0E0F9
S1132320E4E9F1E10C947F140D891E898F89988D5D
S113233026E02C831A83098397FF02C080E090E88B
S113234001979E838D83AE01455E5F4F698D7A8DC3
S1132350CE0101960E94E0114D815E8157FD0AC0B5
S11323602F813885421753070CF49A01F801E20FC4
S1132370F31F10822E96E4E00C949B14AEE0B0E0C0
S1132380E4ECF1E10C947F140D891E8986E08C83C2
S11323901A8309838FEF9FE79E838D83AE01475E87
S11323A05F4F6F89788DCE0101960E94E011EF8115
S11323B0F885E00FF11F10822E96E4E00C949B1434
S11323C0ABE0B0E0E6EEF1E10C9471146C017B013A
S11323D08A01FC0117821682838181FFCCC1CE0160
S11323E001963C01F6019381F70193FD859193FFDA
S11323F081917F01882309F4BAC1853239F493FDB0
S1132400859193FF81917F01853229F4B60190E093
S11324100E94D713E7CF912C212C312CFFE1F31527
S1132420D8F08B3279F038F4803279F08332A1F429
S1132430232D20611DC08D3261F0803369F4232D7A
S1132440216016C0832D8260382EE32DE4603E2E79
S11324502AC0F32DF8601DC037FC2DC020ED280FD5
S11324602A3040F08E32B9F436FC81C1232D206429
S1132470322E19C036FE06C08AE0989E200D112423
S1132480922E11C0EAE02E9E200D1124222EF32D4F
S1132490F0623F2E08C08C3621F4832D8068382EDC
S11324A002C0883641F4F70193FD859193FF819131
S11324B07F018111B3CF982F9F7D9554933028F4D9
S11324C00C5F1F4F9FE399830DC0833631F0833730
S11324D071F0833509F059C021C0F80180818983E6
S11324E00E5F1F4F88248394912C530113C028013D
S11324F0F2E04F0E511CF801A080B18036FE03C0FB
S1132500692D70E002C06FEF7FEFC5010E94CC130C
S11325104C018201F32DFF773F2E16C0280122E0E3
S1132520420E511CF801A080B18036FE03C0692D13
S113253070E002C06FEF7FEFC5010E94C1134C0130
S1132540F32DF0683F2E820133FC1BC0822D90E0F6
S113255088169906B0F4B60180E290E00E94D71381
S11325602A94F4CFF50137FC859137FE81915F0100
S1132570B60190E00E94D71321102A9421E0821A18
S113258091088114910471F7E8C0843611F08936FA
S113259041F5F80137FE07C0608171818281938122
S11325A00C5F1F4F08C060817181072E000C880BDF
S11325B0990B0E5F1F4FF32DFF763F2E97FF09C037
S11325C090958095709561957F4F8F4F9F4FF068E0
S11325D03F2E2AE030E0A3010E941314882E8618AF
S11325E045C0853731F4232D2F7EB22E2AE030E00A
S11325F025C0932D997FB92E8F36C1F018F48835F4
S113260079F0B5C0803719F0883721F0B0C0E92FD0
S1132610E061BE2EB4FE0DC0FB2DF460BF2E09C0D8
S113262034FE0AC0292F2660B22E06C028E030E00E
S113263005C020E130E002C020E132E0F801B7FE3D
S113264007C060817181828193810C5F1F4F06C036
S11326506081718180E090E00E5F1F4FA3010E94B2
S11326601314882E8618FB2DFF773F2E36FE0DC0DF
S1132670232D2E7FA22E891458F434FE0BC032FC75
S113268009C0832D8E7EA82E05C0B82CA32C03C0B0
S1132690B82C01C0B92CA4FE0FC0FE01E80DF11D39
S11326A08081803321F49A2D997EA92E09C0A2FE3F
S11326B006C0B394B39404C08A2D867809F0B39409
S11326C0A3FC11C0A0FE06C0B21488F4280C922CFE
S11326D09B180EC0B21460F4B60180E290E00E9430
S11326E0D713B394F7CFB21418F42B1802C0982C54
S11326F0212CA4FE10C0B60180E390E00E94D71301
S1132700A2FE17C0A1FC03C088E790E002C088E5E0
S113271090E0B6010CC08A2D867859F0A1FE02C063
S11327208BE201C080E2A7FC8DE2B60190E00E943A
S1132730D713891438F4B60180E390E00E94D713CC
S11327409A94F7CF8A94F301E80DF11D8081B601C4
S113275090E00E94D7138110F5CF222009F442CED5
S1132760B60180E290E00E94D7132A94F6CFF601D6
S11327708681978102C08FEF9FEF2B96E2E10C9444
S11327808D14FC010590615070400110D8F78095BC
S113279090958E0F9F1F0895FC0161507040019029
S11327A00110D8F7809590958E0F9F1F08950F9371
S11327B01F93CF93DF93FB01238121FD03C08FEF90
S11327C09FEF2CC022FF16C046815781248135819A
S11327D04217530744F4A081B1819D012F5F3F4FFD
S11327E0318320838C93268137812F5F3F4F37833A
S11327F0268314C08B01EC01FB010084F185E02DDC
S11328000995892BE1F6D80116968D919C9117971D
S1132810019617969C938E931697CE01DF91CF91D4
S11328201F910F910895FA01AA27283051F1203100
S113283081F1E8946F936E7F6E5F7F4F8F4F9F4F50
S1132840AF4FB1E03ED0B4E03CD0670F781F891F92
S11328509A1FA11D680F791F8A1F911DA11D6A0F60
S1132860711D811D911DA11D20D009F468943F9113
S11328702AE0269F11243019305D3193DEF6CF0112
S11328800895462F4770405D4193B3E00FD0C9F7D8
S1132890F6CF462F4F70405D4A3318F0495D31FD45
S11328A04052419302D0A9F7EACFB4E0A695979598
S11328B0879577956795BA95C9F70097610571056E
S11328C008959B01AC010A2E0694579547953795B8
S11328D02795BA95C9F7620F731F841F951FA01D12
S11328E008952F923F924F925F926F927F928F92B0
S11328F09F92AF92BF92CF92DF92EF92FF920F938B
S11329001F93CF93DF93CDB7DEB7CA1BDB0B0FB694
S1132910F894DEBF0FBECDBF09942A883988488851
S11329205F846E847D848C849B84AA84B984C884E7
S1132930DF80EE80FD800C811B81AA81B981CE0FDE
S1132940D11D0FB6F894DEBF0FBECDBFED010895C3
S1072950F894FFCF25
S1132954FF010101030101010101010123002A44D2
S11329640102034304050642070809410A5072653B
S1132974737320276F2720746F206F70656E207423
S1132984686520646F6F722C2027632720746F207E
S1132994636C6F73652074686520646F6F722C2098
S11329A427622720746F20676F206261636B3A206B
S11329B40A00496E76616C69642063686F696365B3
S11329C42E0A00456E7465722050617373776F72BA
S11329D4643A00496E76616C69642050617373775C
S11329E46F726400557365723A2025732C49443A16
S11329F420256400456E7465722055736572204900
S1132A04443A004C6F67696E20537563636573734E
S1132A1466756C004572726F723A20496E636F7208
S1132A24726563742050617373776F7264004572C6
S1132A34726F723A20496E76616C696420557365CD
S1132A4472204F72646572004C4544204F4E2F4FE0
S1132A54464600414320436F6E74726F6C004C6FA2
S1132A64672D6F7574005B4F4E5D20005B4F4646C7
S1132A745D004C616D703120004C616D703220003A
S1132A844C616D703320004C616D703420004C61D6
S1132A946D7035200044696D4C616D702000526581
S1132AA47475726E005B4F4E5D0041432000527595
S1132AB46E2054656D703A0053746F702054656DC4
S1132AC4703A006163746976652064657669636548
S1132AD4733A004552524F5200446973706C6179E1
S1132AE4696E6720616C6C2075736572733A0A00B1
S1132AF452656D6F74653A20557365723A20257377
S1132B042C2025732C2049443A2025640A004C6F58
S1132B1467696E205375636365737366756C0A0025
S1132B244572726F723A20496E636F727265637490
S1132B342050617373776F72640A004572726F7206
S1132B443A20496E76616C69642055736572204934
S1132B54440A005265676973746572206173206165
S1132B646E2061646D696E0A00456E746572207529
S1132B747365726E616D653A20005265676973749A
S1132B84726174696F6E20737563636573736675BC
S1132B946C0A004572726F723A2055736572206133
S1132BA4727261792069732066756C6C0A004572CF
S1132BB4726F723A20454550524F4D2077726974B2
S1132BC465206661696C65640A005265676973749B
S1132BD465722061206E657720757365720A004CF6
S1132BE4616D70204D656E750A0043686F6F73657F
S1132BF4206C616D70206E756D62657220796F75DD
S1132C042077616E7420746F207475726E206F6EF9
S1132C142F6F66663A200A00312E204C616D7031A4
S1132C240A00322E204C616D70320A00332E204C7F
S1132C34616D70330A00342E204C616D70340A00C7
S1132C44352E204C616D70350A00362E2044696D92
S1132C546D65720A00372E2052657475726E0A000F
S1132C64496E76616C69642063686F6963652E20BC
S1132C74506C656173652074727920616761696E53
S1132C842E0A004143204D656E75005072657373BE
S1132C942028542920746F207475726E2000507299
S1132CA46573732028452920746F20457869740A54
S1132CB40057726F6E6720496E70757400557365A2
S1132CC472204D656E753A0A00312E204C616D7088
S1132CD4730A00322E2041430A00332E204C6F67BE
S1132CE46F75740A0041646D696E204D656E753AA2
S1132CF40A00312E20526567697374657220557316
S1132D046572202852656D6F7465290A00322E207D
S1132D145265676973746572205573657220284C13
S1132D246F63616C290A00332E204C616D70730A41
S1132D3400342E2041430A00352E20436F6E7472F2
S1132D446F6C20446F6F7220284F70656E2F436C34
S1132D546F7365290A00362E204C6F676F75740AE9
S1052D64000069
S9030000FC
