S0110000536D617274486F6D652E7372656383
S11300000C942A000C94BD010C94E6010C940F028C
S11300100C94F2020C94C9020C9447000C9447000F
S11300200C9447000C948E020C9465020C943C02D0
S11300300C9447000C9443030C9447000C94470021
S11300400C9447000C9447000C9447000C94470010
S11300500C94470011241FBECFE5D8E0DEBFCDBF0E
S113006013E0A0E6B0E0E6EEF4E102C005900D92E4
S1130070AA31B107D9F725E0AAE1B3E001C01D9286
S1130080A034B207E1F70E9449000C94710A0C9461
S113009000000E94810387E690E00E941B030E94F7
S11300A0B3040E945F002FEF89EF90E0215080405D
S11300B09040E1F700C000000E946007F4CF0E9466
S11300C070000895CF93C82F0E948A00EC2FF0E0AF
S11300D0E75EFC4F908181E089278083CF9108956A
S11300E041E060E080E00E94C70041E061E080E020
S11300F00E94C70041E062E080E00E94C70041E046
S113010063E080E00E94C70041E064E080E00E9478
S1130110C70008958330A9F028F4813041F082307B
S113012059F00895843091F08530A9F0089560E085
S113013080E00E943C01089561E080E00E943C015F
S1130140089562E080E00E943C01089563E080E04D
S11301500E943C01089564E080E00E943C010895FF
S1130160CF92EF920F93CF93C22F0E94C7008C2D92
S11301700E94C1024E2D602F8C2F0E94B702CF9196
S11301800F91EF90CF9008950E94C5020895813099
S113019011F130F08230D1F1833009F452C0089566
S11301A0413059F42AB381E090E002C0880F991FCE
S11301B06A95E2F7822B8ABB089541115CC02AB389
S11301C081E090E002C0880F991F6A95E2F780955C
S11301D082238ABB0895413059F427B381E090E02B
S11301E002C0880F991F6A95E2F7822B87BB089596
S11301F0411141C027B381E090E002C0880F991FEC
S11302006A95E2F78095822387BB0895413059F4BB
S113021024B381E090E002C0880F991F6A95E2F749
S1130220822B84BB0895411126C024B381E090E061
S113023002C0880F991F6A95E2F78095822384BBD8
S11302400895413059F421B381E090E002C0880F51
S1130250991F6A95E2F7822B81BB089541110BC067
S113026021B381E090E002C0880F991F6A95E2F7FC
S11302708095822381BB0895813089F028F08230F3
S1130280C9F0833011F108952BB381E090E002C0EE
S1130290880F991F6A95E2F782278BBB089528B3CC
S11302A081E090E002C0880F991F6A95E2F78227E7
S11302B088BB089525B381E090E002C0880F991FA0
S11302C06A95E2F7822785BB089522B381E090E026
S11302D002C0880F991F6A95E2F7822782BB0895AE
S11302E0E199FECF9FBB8EBB6DBBE29AE19A089564
S11302F0E199FECF9FBB8EBBE09A8DB30895EF9238
S1130300FF920F931F93CF93DF938C01EB017B013B
S1130310E40EF11C6E157F0550F4F80161918F0114
S1130320CE010E9470012196CE15DF05B0F3DF9156
S1130330CF911F910F91FF90EF900895EF92FF924C
S11303400F931F93CF93DF938C01EB017B01E40E9A
S1130350F11C6E157F0550F4CE010E947801F8015E
S113036081938F012196CE15DF05B0F3DF91CF91F4
S11303701F910F91FF90EF9008951F920F920FB667
S11303800F9211242F933F934F935F936F937F9317
S11303908F939F93AF93BF93EF93FF93E0912303C6
S11303A0F0912403309709F00995FF91EF91BF91E3
S11303B0AF919F918F917F916F915F914F913F91F9
S11303C02F910F900FBE0F901F9018951F920F92B0
S11303D00FB60F9211242F933F934F935F936F9314
S11303E07F938F939F93AF93BF93EF93FF93E0918A
S11303F02103F0912203309709F00995FF91EF91C1
S1130400BF91AF919F918F917F916F915F914F9128
S11304103F912F910F900FBE0F901F9018951F9230
S11304200F920FB60F9211242F933F934F935F9324
S11304306F937F938F939F93AF93BF93EF93FF93A8
S1130440E0911F03F0912003309709F00995FF9183
S1130450EF91BF91AF919F918F917F916F915F9138
S11304604F913F912F910F900FBE0F901F901895B1
S11304708FB780688FBF08951F920F920FB60F92A7
S113048011242F933F934F935F936F937F938F9395
S11304909F93AF93BF93EF93FF93E0912703F09162
S11304A02803309709F00995FF91EF91BF91AF911F
S11304B09F918F917F916F915F914F913F912F9178
S11304C00F900FBE0F901F9018951F920F920FB6AA
S11304D00F9211242F933F934F935F936F937F93C6
S11304E08F939F93AF93BF93EF93FF93E091250373
S11304F0F0912603309709F00995FF91EF91BF9190
S1130500AF919F918F917F916F915F914F913F91A7
S11305102F910F900FBE0F901F9018951F920F925E
S11305200FB60F9211242F933F934F935F936F93C2
S11305307F938F939F93AF93BF93EF93FF93E09138
S11305402903F0912A03309709F00995FF91EF915F
S1130550BF91AF919F918F917F916F915F914F91D7
S11305603F912F910F900FBE0F901F9018959FB53C
S1130570892B8FBD8EB5682B6EBD8EB5482B4EBDB5
S1130580089590E097BD86BD089590E09BBD8ABD17
S113059008951F920F920FB60F9211242F933F9339
S11305A04F935F936F937F938F939F93AF93BF9377
S11305B0EF93FF93E0912D03F0912E03309709F010
S11305C00995FF91EF91BF91AF919F918F917F9189
S11305D06F915F914F913F912F910F900FBE0F90AC
S11305E01F9018951F920F920FB60F9211242F93FC
S11305F03F934F935F936F937F938F939F93AF93A7
S1130600BF93EF93FF93E0912B03F0912C0330976A
S113061009F00995FF91EF91BF91AF919F918F914F
S11306207F916F915F914F913F912F910F900FBEEA
S11306300F901F90189589B990BD539A549A579A60
S113064086E880BD0E94380208955D9BFECF8CB978
S11306500895CF93DF93EC018881882331F02196AC
S11306600E94250389918111FBCFDF91CF910895D9
S113067080912F03882329F010922F038091340353
S113068008958FEF08951F920F920FB60F921124C1
S11306908F938CB18093340381E080932F038F91E7
S11306A00F900FBE0F901F9018950F931F93CF9329
S11306B08C010E943803833269F0C0E08F3F29F037
S11306C0F801EC0FF11D8083CF5F0E943803833261
S11306D0A9F701C0C0E0F801EC0FF11D1082CF9121
S11306E01F910F910895E5E3F3E0908181E089275C
S11306F080830895609135037091360380913703A8
S11307000895CF92DF92EF920F930F2EF7E8CF2E3A
S1130710F3E1DF2EF02D0F2EF3E0EF2EF02D08E1A4
S113072022E841E065E083E00E94B0000F91EF9081
S1130730DF90CF90089588E592E00E94C40081E0A4
S11307408093300308958EE591E00E94C4001092D6
S11307503003089580913003811103C00E949B03EC
S113076008950E94A30308959091600081E0892771
S11307708093600008950F931F93CF93DF938C01B0
S11307808AE1689FE0011124BE016F5F7F4F40E161
S1130790C8010E947F01BE016F5E7F4F49E0C8011E
S11307A040960E947F01F801618DCE014A960E9415
S11307B07001DF91CF911F910F910895CF92DF9235
S11307C0EF92FF920F931F93CF93C0913103CA30DE
S11307D038F56B01BC018AE1C89F80011124F8013E
S11307E0E85CFC4F7F01CF010E947207B601C8018B
S11307F0885B9C4F0E94720781E08C0FF701818F08
S11308006C2F88E393E00E94BB03609131036F5F18
S1130810609331038FE090E00E94700180E001C09A
S113082081E0CF911F910F91FF90EF90DF90CF90D7
S11308300895CF93DF93EC0184E690E00E942903AE
S1130840CE010E9455038FEB91E00E942903DF91B2
S1130850CF9108950F931F93CF93DF938C018AE177
S1130860689FE0011124CF5FDD4F40E1BE01C80164
S11308700E947F01BE01605F7F4F49E0C80140963E
S11308800E947F01F801618DCE0149960E9470019A
S1130890DF91CF911F910F9108950F931F93CF93E1
S11308A0DF938C018AE1689FE0011124CF5FDD4F63
S11308B040E1BE01C8010E949E01BE01605F7F4FFE
S11308C049E0C80140960E949E01CE0149960E94CB
S11308D07801F801818FDF91CF911F910F910895D5
S11308E0CF92DF92EF92FF920F931F93CF93C09119
S11308F03203CA3038F56B01BC018AE1C89F80011C
S11309001124F801E45CFB4F7F01CF010E947207C0
S1130910B601C801845B9B4F0E94720781E08C0F73
S1130920F701818F6C2F8CE394E00E942A0460917C
S113093032036F5F6093320380E090E00E947001A5
S113094080E001C081E0CF911F910F91FF90EF9063
S1130950DF90CF9008958A3028F49B01682FC90155
S11309600E944D040895CF9380E090E00E947801A6
S11309708F3F39F46091320380E090E00E9470016F
S113098013C080E090E00E947801809332038823B2
S113099059F0C0E06CE374E08C2F0E94AB04CF5F8D
S11309A080913203C817B0F387E690E00E941B03DE
S11309B0CF910895BF92CF92DF92EF92FF920F935F
S11309C01F93CF93DF93CDB7DEB7E2970FB6F894BA
S11309D0DEBF0FBECDBF84E790E00E942903809163
S11309E03203882371F110E00F2EFAE1BF2EF02DAF
S11309F00F2EFBE8CF2EF0E0DF2EF02D02E3CE0128
S1130A0001967C01B19EF0011124E45CFB4F818DC1
S1130A101F928F93FF93EF93DF92CF921F920F93C6
S1130A20FF92EF920E947907C7010E9429031F5F7A
S1130A300FB6F894DEBF0FBECDBF809132031817F6
S1130A4008F3E2960FB6F894DEBF0FBECDBFDF9178
S1130A50CF911F910F91FF90EF90DF90CF90BF90B7
S1130A6008950F931F93CF93DF93CDB7DEB72997E4
S1130A700FB6F894DEBF0FBECDBF85EA90E00E94AA
S1130A8029030E943803182F00ED080F8FEB91E023
S1130A900E94290311531A3010F5CE0101960E94C9
S1130AA01904802F90E001972AE1289FB001299F23
S1130AB0700D1124645B7B4FCE0101960E9469077F
S1130AC0892B41F484EB90E00E94290381E0809318
S1130AD0330309C086EC90E00E94290304C081EE30
S1130AE090E00E942903802F29960FB6F894DEBF68
S1130AF00FBECDBFDF91CF911F910F9108958091CB
S1130B003303109233030895109233030895CF935F
S1130B10DF93CDB7DEB769970FB6F894DEBF0FBE8B
S1130B20CDBF80E090E00E94780181112DC08CEF50
S1130B3090E00E94290382E191E00E942903CE0102
S1130B4001960E9455038FEB91E00E942903CE0188
S1130B5041960E941904BE016F5E7F4FCE0101963B
S1130B600E947004811105C083E291E00E94290370
S1130B700BC0813029F48CE391E00E94290304C066
S1130B8087E591E00E94290369960FB6F894DEBFC9
S1130B900FBECDBFDF91CF910895CF93DF93CDB733
S1130BA0DEB769970FB6F894DEBF0FBECDBF83E7FB
S1130BB091E00E94290382E191E00E942903CE0181
S1130BC001960E945503CE0141960E941904BE016C
S1130BD06F5E7F4FCE0101960E947004811105C0A3
S1130BE083E291E00E9429030BC0813029F48CE355
S1130BF091E00E94290304C087E591E00E94290343
S1130C0069960FB6F894DEBF0FBECDBFDF91CF91CA
S1130C100895CF93DF93CDB7DEB769970FB6F894F5
S1130C20DEBF0FBECDBF83E791E00E94290382E1BE
S1130C3091E00E942903CE0101960E945503CE0142
S1130C4041960E941904BE016F5E7F4FCE0101964A
S1130C500E94DE03811105C083E291E00E94290312
S1130C600BC0813029F48CE391E00E94290304C075
S1130C7087E591E00E94290369960FB6F894DEBFD8
S1130C800FBECDBFDF91CF9108958091610088237D
S1130C9011F188E891E00E94290383E991E00E9420
S1130CA0290381EC91E00E9429038BEC91E00E94DE
S1130CB0290385ED91E00E9429038FED91E00E94C4
S1130CC0290389EE91E00E94290383EF91E00E94B9
S1130CD02903109261000E94380380538F3F61F111
S1130CE08330A1F028F4813049F0823059F01DC0DE
S1130CF08530A1F078F08630A9F017C081E00E9419
S1130D00620017C082E00E94620013C083E00E9468
S1130D1062000FC084E00E9462000BC085E00E9464
S1130D20620007C00E94B40304C08EEF91E00E94E9
S1130D30290381E08093610008958CE292E00E948F
S1130D4029030E947A0361111AC00EC00E9429036C
S1130D500E943803843519F40E947303089584E3D0
S1130D6092E00E942903089581E292E00E942903FF
S1130D7080E492E00E94290387E292E0E7CF87E2D1
S1130D8092E00E94290380E492E00E94290381E218
S1130D9092E0DCCF80916300882391F083E592E0B8
S1130DA00E9429038FE592E00E94290389E692E0DC
S1130DB00E94290380E792E00E94290310926300B5
S1130DC00E9438038F3FC1F0823339F0833341F0FE
S1130DD0813359F40E9445060CC00E949D0609C047
S1130DE00E9484050E94FD0608958EEF91E00E9402
S1130DF0290381E08093630008950E94DA040E942D
S1130E003105813039F40E947F05882319F00E944E
S1130E10100708950E947F0581110E94CA06089553
S1130E20809162008823F1F08BE792E00E9429030D
S1130E3088E892E00E94290383EA92E00E94290351
S1130E408DEB92E00E94290387EC92E00E94290333
S1130E508EEC92E00E9429038CEE92E00E9429031A
S1130E60109262000E9438038F3F49F1833391F05E
S1130E7028F4813349F0823351F01AC0853381F06C
S1130E8060F0863381F014C00E94CD0515C00E9425
S1130E90090612C00E9445060FC00E949D060CC0A0
S1130EA00E94AA0309C00E9484050E94FD060895B9
S1130EB08EEF91E00E94290381E0809362000895FF
S1130EC087EF92E00E9429030E9487050E94FD0695
S1130ED00895FB01DC018D91019080190110D9F373
S1130EE0990B0895FB01DC0101900D920020E1F7BC
S1130EF00895AEE0B0E0EFE7F7E00C94480A0D89FE
S1130F001E898F89988D26E02C831A83098397FF85
S1130F1002C080E090E801979E838D83AE01455E18
S1130F205F4F698D7A8DCE0101960E94A9074D818C
S1130F305E8157FD0AC02F813885421753070CF490
S1130F409A01F801E20FF31F10822E96E4E00C944C
S1130F50640AABE0B0E0EFEAF7E00C943A0A6C0103
S1130F607B018A01FC0117821682838181FFCCC137
S1130F70CE0101963C01F6019381F70193FD859121
S1130F8093FF81917F01882309F4BAC1853239F432
S1130F9093FD859193FF81917F01853229F4B601F8
S1130FA090E00E94A009E7CF912C212C312CFFE185
S1130FB0F315D8F08B3279F038F4803279F083323B
S1130FC0A1F4232D20611DC08D3261F0803369F4BA
S1130FD0232D216016C0832D8260382EE32DE4601A
S1130FE03E2E2AC0F32DF8601DC037FC2DC020ED25
S1130FF0280F2A3040F08E32B9F436FC81C1232DFB
S11310002064322E19C036FE06C08AE0989E200D58
S11310101124922E11C0EAE02E9E200D1124222EBE
S1131020F32DF0623F2E08C08C3621F4832D8068A6
S1131030382E02C0883641F4F70193FD859193FF61
S113104081917F018111B3CF982F9F7D9554933067
S113105028F40C5F1F4F9FE399830DC0833631F052
S1131060833771F0833509F059C021C0F8018081BC
S113107089830E5F1F4F88248394912C530113C0DE
S11310802801F2E04F0E511CF801A080B18036FE19
S113109003C0692D70E002C06FEF7FEFC5010E94AD
S11310A095094C018201F32DFF773F2E16C02801CC
S11310B022E0420E511CF801A080B18036FE03C02C
S11310C0692D70E002C06FEF7FEFC5010E948A09AD
S11310D04C01F32DF0683F2E820133FC1BC0822D9E
S11310E090E088169906B0F4B60180E290E00E9480
S11310F0A0092A94F4CFF50137FC859137FE81913C
S11311005F01B60190E00E94A00921102A9421E019
S1131110821A91088114910471F7E8C0843611F0A1
S1131120893641F5F80137FE07C0608171818281FB
S113113093810C5F1F4F08C060817181072E000CE2
S1131140880B990B0E5F1F4FF32DFF763F2E97FFF1
S113115009C090958095709561957F4F8F4F9F4FF3
S1131160F0683F2E2AE030E0A3010E94DC09882EBB
S1131170861845C0853731F4232D2F7EB22E2AE000
S113118030E025C0932D997FB92E8F36C1F018F425
S1131190883579F0B5C0803719F0883721F0B0C0B0
S11311A0E92FE061BE2EB4FE0DC0FB2DF460BF2E0E
S11311B009C034FE0AC0292F2660B22E06C028E0DA
S11311C030E005C020E130E002C020E132E0F80167
S11311D0B7FE07C060817181828193810C5F1F4FCC
S11311E006C06081718180E090E00E5F1F4FA30113
S11311F00E94DC09882E8618FB2DFF773F2E36FED1
S11312000DC0232D2E7FA22E891458F434FE0BC05A
S113121032FC09C0832D8E7EA82E05C0B82CA32CC9
S113122003C0B82C01C0B92CA4FE0FC0FE01E80D08
S1131230F11D8081803321F49A2D997EA92E09C055
S1131240A2FE06C0B394B39404C08A2D867809F034
S1131250B394A3FC11C0A0FE06C0B21488F4280CF9
S1131260922C9B180EC0B21460F4B60180E290E098
S11312700E94A009B394F7CFB21418F42B1802C03B
S1131280982C212CA4FE10C0B60180E390E00E94AB
S1131290A009A2FE17C0A1FC03C088E790E002C029
S11312A088E590E0B6010CC08A2D867859F0A1FE3D
S11312B002C08BE201C080E2A7FC8DE2B60190E09F
S11312C00E94A009891438F4B60180E390E00E94DA
S11312D0A0099A94F7CF8A94F301E80DF11D808157
S11312E0B60190E00E94A0098110F5CF222009F4F4
S11312F042CEB60180E290E00E94A0092A94F6CF83
S1131300F6018681978102C08FEF9FEF2B96E2E171
S11313100C94560AFC010590615070400110D8F7F6
S1131320809590958E0F9F1F0895FC016150704029
S113133001900110D8F7809590958E0F9F1F089506
S11313400F931F93CF93DF93FB01238121FD03C0F0
S11313508FEF9FEF2CC022FF16C046815781248156
S113136035814217530744F4A081B1819D012F5F59
S11313703F4F318320838C93268137812F5F3F4FEA
S11313803783268314C08B01EC01FB010084F185B3
S1131390E02D0995892BE1F6D80116968D919C9143
S11313A01797019617969C938E931697CE01DF910B
S11313B0CF911F910F910895FA01AA27283051F176
S11313C0203181F1E8946F936E7F6E5F7F4F8F4F72
S11313D09F4FAF4FB1E03ED0B4E03CD0670F781FD1
S11313E0891F9A1FA11D680F791F8A1F911DA11DB6
S11313F06A0F711D811D911DA11D20D009F46894EF
S11314003F912AE0269F11243019305D3193DEF696
S1131410CF010895462F4770405D4193B3E00FD04C
S1131420C9F7F6CF462F4F70405D4A3318F0495D37
S113143031FD4052419302D0A9F7EACFB4E0A6951A
S11314409795879577956795BA95C9F7009761053C
S1131450710508959B01AC010A2E06945795479592
S113146037952795BA95C9F7620F731F841F951F87
S1131470A01D08952F923F924F925F926F927F9298
S11314808F929F92AF92BF92CF92DF92EF92FF9290
S11314900F931F93CF93DF93CDB7DEB7CA1BDB0B3C
S11314A00FB6F894DEBF0FBECDBF09942A883988E1
S11314B048885F846E847D848C849B84AA84B984E8
S11314C0C884DF80EE80FD800C811B81AA81B981F4
S11314D0CE0FD11D0FB6F894DEBF0FBECDBFED0108
S10914E00895F894FFCF0B
S11314E601010101456E7465722050617373776F53
S11314F672643A00446973706C6179696E6720613D
S11315066C6C2075736572733A0A0052656D6F745C
S1131516653A20557365723A2025732C2049443A5E
S11315262025640A00456E74657220557365722021
S113153649443A004C6F67696E205375636365735B
S11315467366756C0A004572726F723A20496E634F
S11315566F72726563742050617373776F72640A75
S1131566004572726F723A20496E76616C69642026
S113157655736572204F726465720A005265676915
S11315867374657220617320616E2061646D696E87
S11315960A00456E74657220757365726E616D65B9
S11315A63A2000526567697374726174696F6E20BC
S11315B67375636365737366756C0A004572726F3F
S11315C6723A20557365722061727261792069736B
S11315D62066756C6C0A004572726F723A20454536
S11315E650524F4D207772697465206661696C6547
S11315F6640A0052656769737465722061206E65BA
S11316067720757365720A004C616D70204D656EA6
S1131616750A0043686F6F7365206C616D70206E88
S1131626756D62657220796F752077616E742074AA
S11316366F207475726E206F6E2F6F66663A200A7D
S113164600312E204C616D70310A00322E204C611F
S11316566D70320A00332E204C616D70330A0034EB
S11316662E204C616D70340A00352E204C616D704D
S1131676350A00362E2044696D6D65720A00496E7E
S113168676616C69642063686F6963652E20506CAB
S1131696656173652074727920616761696E2E0ACB
S11316A6005B4F46465D005B4F4E5D004143204D57
S11316B6656E750057726F6E6720496E707574009B
S11316C650726573732028542920746F20747572C0
S11316D66E200055736572204D656E753A0A0031A9
S11316E62E204C616D70730A00322E2041430A008D
S11316F6332E204C6F676F75740A0041646D696EF2
S1131706204D656E753A0A00312E2052656769735D
S11317167465722055736572202852656D6F746501
S1131726290A00322E205265676973746572205542
S113173673657220284C6F63616C290A00332E206E
S11317464C616D70730A00342E2041430A00352E15
S113175620436F6E74726F6C20446F6F7220284F33
S113176670656E2F436C6F7365290A00362E204C04
S11317766F676F75740A0053797374656D206973A6
S1131786207374617274696E6720696E2072656D68
S10D17966F7465206D6F64650A002E
S9030000FC
