S0110000536D617274486F6D652E7372656383
S11300000C9438000C94A5040C94CE040C94F704BE
S11300100C9406060C94DD050C9455000C945500C4
S11300200C9455000C9493050C944D050C942405E4
S11300300C9455000C9453060C9455000C945500E4
S11300400C9455000C9455000C9455000C945500D8
S11300500C945500320B340B3A0B3C0B3E0B400B0B
S1130060450BCB0ECD0ED10ED30ED50ED70EDA0E18
S113007011241FBECFE5D8E0DEBFCDBF14E0A0E65B
S1130080B0E0EAE6F9E202C005900D92AE36B1079F
S1130090D9F726E0AEE6B4E001C01D92A73AB20754
S11300A0E1F70E9457000C94B3140C9400000E94D2
S11300B06F010E947F060E94BA060E9405070E94F3
S11300C0500C87E690E00E942F060E94C00C0E940C
S11300D0C0070E94B4000E94E50F2FEF89EF90E063
S11300E0215080409040E1F700C000000E94A50626
S11300F00E9407070E94210C0E94E30FEECF41E00B
S113010066E080E00C94D70241E066E080E00C9465
S1130110400340E066E080E00C94400365E088E63C
S11301200E9476050E94780241E063E081E00C942D
S1130130D7020E947A02BC0180E090E00E948810FD
S113014020E030EC4FE754E40E94E70F20E030E079
S113015048EC52E40E9416110E945910862F0C9408
S11301607D0580E00C947D050C947D02CF93C82F0F
S11301700E949602EC2FF0E0E359FB4F908181E05E
S113018089278083CF910895E82FF0E0E359FB4F4E
S1130190808108958FE99FE00197F1F700C0000086
S11301A041E064E082E00E9440038FE99FE0019710
S11301B0F1F700C0000040E064E082E00E944003E8
S11301C08FE99FE00197F1F700C000000895CF93F5
S11301D0C82F40E066E082E00E944003C4FB44274D
S11301E040F960E082E00E944003C5FB442740F9E7
S11301F061E082E00E944003C6FB442740F962E0CC
S113020082E00E9440034C2F441F4427441F63E0B4
S113021082E00E9440030E94CA004C2F417060E0BB
S113022082E00E944003C1FB442740F961E082E080
S11302300E944003C2FB442740F962E082E00E942E
S11302404003C3FB442740F963E082E00E9440037B
S1130250CF910C94CA00CF93C82F41E066E082E0AE
S11302600E944003C4FB442740F960E082E00E94FE
S11302704003C5FB442740F961E082E00E9440034B
S1130280C6FB442740F962E082E00E9440034C2F01
S1130290441F4427441F63E082E00E9440030E94FD
S11302A0CA004C2F417060E082E00E944003C1FB11
S11302B0442740F961E082E00E944003C2FB4427E6
S11302C040F962E082E00E944003C3FB442740F906
S11302D063E082E00E944003CF910C94CA0041E0A5
S11302E066E082E00E94D70241E065E082E00E947D
S11302F0D70241E064E082E00E94D70241E060E07E
S113030082E00E94D70241E061E082E00E94D702CD
S113031041E062E082E00E94D70241E063E082E0D3
S11303200E94D70240E065E082E00E94400380E042
S11303300E942B012FEF86E791E0215080409040EE
S1130340E1F700C0000083E00E94E7008FE19EE433
S11303500197F1F700C0000083E00E94E70087E501
S113036092E00197F1F700C0000083E00E94E700EB
S113037082E00E94E70082E00E94E70088E20E9497
S1130380E70088E00E94E70080E00E94E7008CE03C
S11303900E94E70080E00E94E70086E00C94E700FA
S11303A0882319F0813019F0089580E801C080ECA9
S11303B0860F0C94E7000C942B010F931F93CF939B
S11303C08C01C0E0F801EC0FF11D8081882321F03D
S11303D00E942B01CF5FF6CFCF911F910F9108950B
S11303E00F931F93CF93DF93CDB7DEB7A1970FB6CB
S11303F0F894DEBF0FBECDBF9F938F9381E091E051
S11304009F938F938E010F5F1F4F1F930F930E9433
S1130410C911C8010E94DD010F900F900F900F9039
S11304200F900F90A1960FB6F894DEBF0FBECDBF0C
S1130430DF91CF911F910F9108950C94C40285E030
S11304400E94CA02BC0180E090E00E9488102AE168
S113045037E64CE950E40E94161120E030E040E217
S113046051E40E94E70F0E945910CB0108950F93A5
S11304701F93CF9300E010E0C0E064E0600F81E0E0
S11304800E94D903002E01C0880F0A94EAF7C82BF2
S11304900F5F1F4F0430110581F7EC2FF0E0E45992
S11304A0FF4F808180936000CF911F910F910C9436
S11304B0490CCF93C4E040E06C2F81E00E94D70246
S11304C0CF5FC830C1F767E372E080E00E94900418
S11304D062E080E00E944A0480E00E943A04CF91E6
S11304E00C942005809160009FEF90936000089524
S11304F00C94C40287E00C94CA0241E060E080E0FE
S11305000E94D70241E061E080E00E94D70241E00E
S113051062E080E00E94D70241E063E080E00E9454
S1130520D70241E064E080E00C94D702833079F094
S113053028F4813041F0823041F00895843049F04C
S1130540853049F0089560E007C061E005C062E0CD
S113055003C063E001C064E080E00C94A903CF927F
S1130560EF920F93CF93C22F0E94D7028C2D0E943B
S1130570C4054E2D602F8C2FCF910F91EF90CF900B
S11305800C94BC050C94C805379A86B1876086B96B
S11305903E9A089597B1907E97B997B1892B87B900
S11305A0369A349BFECF349A84B195B10895813044
S11305B0F9F030F08230A1F1833009F449C0089594
S11305C0413049F42AB381E090E001C0880F6A9574
S11305D0EAF7822B0BC0411152C02AB381E090E0AC
S11305E001C0880F6A95EAF7809582238ABB089533
S11305F0413049F427B381E090E001C0880F6A9547
S1130600EAF7822B0BC041113AC027B381E090E096
S113061001C0880F6A95EAF78095822387BB089505
S1130620413049F424B381E090E001C0880F6A9519
S1130630EAF7822B0BC0411122C024B381E090E081
S113064001C0880F6A95EAF78095822384BB0895D8
S1130650413049F421B381E090E001C0880F6A95EC
S1130660EAF7822B0BC041110AC021B381E090E06C
S113067001C0880F6A95EAF78095822381BB0895AB
S11306808130F9F030F08230A1F1833009F449C0AF
S11306900895413049F42BB381E090E001C0880F04
S11306A06A95EAF7822B0BC0411152C02BB381E04B
S11306B090E001C0880F6A95EAF7809582238BBB8E
S11306C00895413049F428B381E090E001C0880FD7
S11306D06A95EAF7822B0BC041113AC028B381E036
S11306E090E001C0880F6A95EAF78095822388BB61
S11306F00895413049F425B381E090E001C0880FAA
S11307006A95EAF7822B0BC0411122C025B381E020
S113071090E001C0880F6A95EAF78095822385BB33
S11307200895413049F422B381E090E001C0880F7C
S11307306A95EAF7822B0BC041110AC022B381E00B
S113074090E001C0880F6A95EAF78095822382BB06
S11307500895813081F028F08230B9F08330F9F0C7
S113076008952BB381E090E001C0880F6A95EAF701
S113077082278BBB089528B381E090E001C0880FE5
S11307806A95EAF7822788BB089525B381E090E053
S113079001C0880F6A95EAF7822785BB089522B3C2
S11307A081E090E001C0880F6A95EAF7822782BB56
S11307B00895813049F030F0823041F0833079F48B
S11307C080B305C089B303C086B301C083B390E08E
S11307D002C0959587956A95E2F78170089580E047
S11307E00895E199FECF9FBB8EBB6DBBE29AE19A5F
S11307F00895E199FECF9FBB8EBBE09A8DB3089517
S1130800EF92FF920F931F93CF93DF938C01EB0131
S11308107B01E40EF11CCE15DF0540F4F801619173
S11308208F01CE010E94F1032196F5CFDF91CF9184
S11308301F910F91FF90EF900895EF92FF920F9305
S11308401F93CF93DF938C01EB017B01E40EF11C2A
S1130850CE15DF0540F4CE010E94F903F80181931F
S11308608F012196F5CFDF91CF911F910F91FF90CA
S1130870EF900895813039F018F0823039F00895FE
S11308808BB7806405C08BB7806802C08BB7806269
S11308908BBF08958130F9F018F08230B1F10895DA
S11308A0611103C085B78E7F04C0613039F485B708
S11308B0816085BF85B78D7F85BF0895623019F447
S11308C085B78E7F04C0633051F585B7816085BFDD
S11308D085B78260F1CF611103C085B78B7F04C0F7
S11308E0613031F485B7846085BF85B7877FE4CFF5
S11308F0623019F485B78B7F04C0633081F485B707
S1130900846085BF85B78860D7CF623019F484B717
S11309108F7B04C0633019F484B7806484BF089566
S1130920813049F018F0823059F0089570937804BA
S11309306093770408957093760460937504089522
S1130940709374046093730408951F920F920FB60A
S11309500F9211242F933F934F935F936F937F9341
S11309608F939F93AF93BF93EF93FF93E09177049B
S1130970F0917804309709F00995FF91EF91BF91B8
S1130980AF919F918F917F916F915F914F913F9123
S11309902F910F900FBE0F901F9018951F920F92DA
S11309A00FB60F9211242F933F934F935F936F933E
S11309B07F938F939F93AF93BF93EF93FF93E091B4
S11309C07504F0917604309709F00995FF91EF9141
S11309D0BF91AF919F918F917F916F915F914F9153
S11309E03F912F910F900FBE0F901F9018951F925B
S11309F00F920FB60F9211242F933F934F935F934F
S1130A006F937F938F939F93AF93BF93EF93FF93D2
S1130A10E0917304F0917404309709F00995FF9103
S1130A20EF91BF91AF919F918F917F916F915F9162
S1130A304F913F912F910F900FBE0F901F901895DB
S1130A408FB780688FBF08951F920F920FB60F92D1
S1130A5011242F933F934F935F936F937F938F93BF
S1130A609F93AF93BF93EF93FF93E0917B04F09137
S1130A707C04309709F00995FF91EF91BF91AF91F4
S1130A809F918F917F916F915F914F913F912F91A2
S1130A900F900FBE0F901F9018951F920F920FB6D4
S1130AA00F9211242F933F934F935F936F937F93F0
S1130AB08F939F93AF93BF93EF93FF93E091790448
S1130AC0F0917A04309709F00995FF91EF91BF9165
S1130AD0AF919F918F917F916F915F914F913F91D2
S1130AE02F910F900FBE0F901F90189593B7892BDD
S1130AF083BF83B7682B63BF0895682F70E080E0DD
S1130B0090E00E94881020E030E048EC52E40E941B
S1130B10E70F20E030E04FE753E40E9416110E94F3
S1130B2059106CBF08951F920F920FB60F921124A3
S1130B302F933F934F935F936F937F938F939F93E1
S1130B40AF93BF93EF93FF93E0917D04F0917E0404
S1130B50309709F00995FF91EF91BF91AF919F9163
S1130B608F917F916F915F914F913F912F910F9052
S1130B700FBE0F901F9018959FB5892B8FBD8EB512
S1130B80482B642B6EBD089590E097BD86BD0895F3
S1130B9090E09BBD8ABD089595B5892B85BD0895C8
S1130BA00C94CC0584BD089589B7806489BF0895E9
S1130BB0909382048093810408951F920F920FB63C
S1130BC00F9211242F933F934F935F936F937F93CF
S1130BD08F939F93AF93BF93EF93FF93E09181041F
S1130BE0F0918204309709F00995FF91EF91BF913C
S1130BF0AF919F918F917F916F915F914F913F91B1
S1130C002F910F900FBE0F901F9018951F920F9267
S1130C100FB60F9211242F933F934F935F936F93CB
S1130C207F938F939F93AF93BF93EF93FF93E09141
S1130C307F04F0918004309709F00995FF91EF91BA
S1130C40BF91AF919F918F917F916F915F914F91E0
S1130C503F912F910F900FBE0F901F90189589B957
S1130C6090BD539A549A579A86E880BD0C942005F7
S1130C705D9BFECF8CB90895CF93DF93EC018991EE
S1130C80882319F00E943806FACFDF91CF91089596
S1130C9080918304882329F01092830480919B041B
S1130CA008958FEF08951F920F920FB60F9211249B
S1130CB08F938CB180939B0481E0809383048F9104
S1130CC00F900FBE0F901F9018951F93CF93DF9333
S1130CD0EC010E94480610E0833251F08F3F29F066
S1130CE0FE01E10FF11D80831F5F0E944806F4CFCF
S1130CF0C10FD11D1882DF91CF911F9108950E94D9
S1130D007F000E941D02ECE9F4E081E080838CE125
S1130D10818385E182830895ECE9F4E0908181E0A8
S1130D20892780830895DC0111962C911197ECE9B1
S1130D30F4E0218312968C918283089560919C043F
S1130D4070919D0480919E04089580919C04882351
S1130D5071F0813071F40E941F0290919D049817E4
S1130D6010F40C94840090919E04891710F40C9450
S1130D7089000895CF92DF92EF920F9387E8C82EEF
S1130D8083E1D82E93E0E92E08E122E841E065E012
S1130D9083E00E94AF020F91EF90DF90CF9008950F
S1130DA08CE697E00C94C20286EB93E00C94C202AA
S1130DB080916100882331F08CE790E00E943C062A
S1130DC01092610080916200882321F00E944806FD
S1130DD080938404809184048F3FB1F01092620068
S1130DE0833641F08F3619F0823639F408950E9423
S1130DF0D00607C00E94D40604C082EC90E00E9492
S1130E003C0681E08093620008950C948E008091EA
S1130E106300882321F0813021F40C9499000C9410
S1130E20B10008959091630081E089278093630065
S1130E300895809163000895CF92DF92EF92FF921C
S1130E400F931F93CF936C01E62E83ED90E00E94E5
S1130E50DD01C0E0F12C21E0E21AF1080C2F10E0D2
S1130E600E151F05D4F50E9472028434D9F4C830DB
S1130E70A1F181E00E94E70083EE90E00E94DD0191
S1130E808FEF93ED20E3815090402040E1F700C0C4
S1130E90000081E00E94E70083ED90E00E94DD0104
S1130EA0C0E0DCCF833479F4CC23C1F2C150F60125
S1130EB0EC0FF11D108281E00E94E70083ED90E0C9
S1130EC00E94DD01CBCF90ED980F9A3038F6F601F1
S1130ED0E00FF11F8083CF5FC1CFF601E00FF11F58
S1130EE01082CF911F910F91FF90EF90DF90CF90E0
S1130EF008950F931F93CF93DF938C01C0918504C2
S1130F008AE1C89FE0011124BE016F5F7F4F40E179
S1130F10C8010E940004BE016F5E7F4F49E0C80112
S1130F2040960E940004F801618DCE014A96DF913B
S1130F30CF911F910F910C94F1030F931F93CF93B3
S1130F40DF938C018AE1689FE0011124BE016F5F89
S1130F507F4F40E1C8010E941D04BE016F5E7F4FB8
S1130F6049E0C80140960E941D04CE014A960E94A1
S1130F70F903F801818FDF91CF911F910F910895AB
S1130F80CF93DF938CE291E00E94F9038F3F41F409
S1130F90609185048CE291E0DF91CF910C94F10390
S1130FA08CE291E00E94F90380938504C0E0DAE1C9
S1130FB080918504C81750F4DC9FC00111246C2F64
S1130FC081569B4F0E949D07CF5FF2CFDF91CF9157
S1130FD00895CF92DF92EF92FF920F931F93CF93D6
S1130FE0C0918504CA3018F57B01BC018AE1C89F11
S1130FF060011124860101561B4FC8010E94921101
S1131000B701C60181559B4F0E949211CF5FF80131
S1131010C18FC8010E947907609185046F5F609356
S113102085048CE291E00E94F10380E001C081E03C
S1131030CF911F910F91FF90EF90DF90CF90089583
S1131040AF92BF92CF92DF92EF92FF920F931F93D2
S1131050CF93DF93CDB7DEB7E2970FB6F894DEBF38
S11310600FBECDBF182F062F81E00E94E7008AE152
S1131070B82E94EFE92E90E0F92E22E3A22ECE01B1
S113108001966C01101768F580918504181748F5CE
S1131090B19EF0011124E156FB4F818D1F928F9375
S11310A0FF93EF93FF92EF921F92AF92DF92CF9252
S11310B00E949911C6010E94DD0160E081E00E9456
S11310C0D0019FEF23ED80E3915020408040E1F771
S11310D000C000001F5F0FB6F894DEBF0FBECDBF87
S11310E0D1CFE2960FB6F894DEBF0FBECDBFDF912D
S11310F0CF911F910F91FF90EF90DF90CF90BF9011
S1131100AF9008951F93CF93DF93CDB7DEB72997A0
S11311100FB6F894DEBF0FBECDBF84E091E00E940D
S1131120DD010E947202182F8FEF810F8A3028F59B
S113113083ED90E00E94DD0169E0CE0101960E94FA
S11311401C07812F90E001972AE1289FB001299F75
S1131150700D112461557B4FCE0101960E948911B7
S1131160892B41F483E191E00E94DD0181E08093C9
S1131170860407C084E291E002C08EE391E00E94FD
S1131180DD0129960FB6F894DEBF0FBECDBFDF9107
S1131190CF911F91089562E080E00E9420080E9490
S11311A072022FEF33EC99E0215030409040E1F788
S11311B000C00000843459F42FEF33EC89E021504F
S11311C030408040E1F700C000000C94820808958C
S11311D08091860408951092860408958091920463
S11311E0909193040196909393048093920486E0E3
S11311F00E94D2058091920490919304803792408A
S113120051F481E00E94B60010929304109292046B
S113121081E0809394040895FC018081882319F06F
S1131220813021F0089560E080E002C060E081E058
S11312300E94D0018EE30C94DB01CF93DF93EC0189
S113124061E080E00E94D0018881882369F08130C8
S1131250C9F483E691E00E94DD0161E081E00E942F
S1131260D0018EE691E00AC088E591E00E94DD019C
S113127061E081E00E94D00183E691E0DF91CF91AB
S11312800C94DD01DF91CF910895CF93DF93EC01AE
S113129061E080E00E94D0018881823009F443C07B
S11312A028F4882361F0813021F1ABC0843009F443
S11312B06DC008F44FC0853009F48AC0A2C082E82A
S11312C091E00E94DD0181E00E94C400811103C00D
S11312D08CE791E002C086E791E00E94DD0161E0C5
S11312E081E00E94D00189E891E00E94DD0182E062
S11312F04AC089E891E00E94DD0182E00E94C400B6
S1131300811103C08CE791E002C086E791E00E945E
S1131310DD0161E081E00E94D00180E991E00E945A
S1131320DD0183E030C080E991E00E94DD0183E0CB
S11313300E94C400811103C08CE791E002C086E7DB
S113134091E00E94DD0161E081E00E94D00187E923
S113135091E016C087E991E00E94DD0184E00E94DB
S1131360C400811103C08CE791E002C086E791E0DC
S11313700E94DD0161E081E00E94D0018EE991E0EC
S11313800E94DD0184E00E94C4001AC08EE991E04D
S11313900E94DD0184E00E94C400811103C08CE737
S11313A091E002C086E791E00E94DD0161E081E006
S11313B00E94D00185EA91E00E94DD010E94190794
S11313C0811103C08CE791E018C086E791E015C055
S11313D085EA91E00E94DD010E941907811103C092
S11313E08CE791E002C086E791E00E94DD0161E0B4
S11313F081E00E94D0018EEA91E0DF91CF910C94BC
S1131400DD01DF91CF9108950F931F93CF93DF9365
S11314108C01EB0161E080E00E94D001F801808141
S1131420813099F1D0F0823009F04DC088EC91E020
S11314300E94DD018A8190E00E94F00183E40E9411
S1131440DB0161E081E00E94D0018EEA91E0DF914E
S1131450CF911F910F910C94DD018AEB91E00E94D2
S1131460DD018881811103C08CE791E002C085EB26
S113147091E00E94DD0161E081E00E94D0018EEBE9
S113148091E00E94DD01898114C08EEB91E00E94FD
S1131490DD01898190E00E94F00183E40E94DB0178
S11314A061E081E00E94D00188EC91E00E94DD01BE
S11314B08A8190E00E94F00183E4DF91CF911F9133
S11314C00F910C94DB01DF91CF911F910F9108953F
S11314D0DB01FA013C91332319F0313079F008959E
S11314E0009719F0019739F008958081882311F04D
S11314F081500DC0208381E08C930895009751F0B2
S1131500019709F008958081821718F48F5F808312
S1131510089510821C9208950F931F93CF938C010A
S11315200E947202C82F8F3F19F081E00E94E700E9
S113153081E994E00E941D0980E994E00E940C096D
S1131540C23469F0C33411F1C13409F03FC021E061
S113155041E954E060E974E080E090E007C021E0F4
S113156041E954E060E974E081E090E00E94680A97
S113157081E00E94E70081E994E00E941D0980E96E
S113158094E0CF911F910F910C940C092091910438
S11315908091900490E0820F911D8130910549F073
S11315A08230910571F0892B89F4F801108281E071
S11315B003C081E0F8018083CF911F910F910C94B7
S11315C0E700CF911F910F910C94EB08CF911F91DD
S11315D00F9108950F931F93CF938C010E94720271
S11315E0C82F8F3F19F081E00E94E70088E894E05B
S11315F00E94450987E894E00E940C09C23469F00E
S1131600C33411F1C13409F048C025E048E854E07E
S113161067E874E080E090E007C025E048E854E023
S113162067E874E081E090E00E94680A81E00E942B
S1131630E70088E894E00E94450987E894E0CF91A8
S11316401F910F910C940C0980918804E0918704F8
S1131650F0E0E80FF11DE730F105F8F4E65DFF4F27
S11316600C94831181E001C082E0CF911F910F910E
S11316700C94B60083E0F9CF84E0F7CF85E0F5CF92
S1131680CF911F910F910C94120783E0F80180838E
S113169081E00E94E70010928804CF911F910F917E
S11316A008950F931F93CF93DF93EC018B010E9456
S11316B07202823439F0833449F0813449F48881E8
S11316C08F5F02C088818150888302C0F801108234
S11316D0DF91CF911F910F910895CF93DF93EC0188
S11316E080918F04811104C00E94720280938E0441
S11316F080918E048F3F39F080918F04811103C053
S113170081E00E94E7000E949E0660938B04709320
S11317108C0480938D046BE874E08AE894E00E9462
S1131720040A89E894E00E940C0980918E048234B2
S113173069F0833419F1813409F070C022E04AE879
S113174054E069E874E080E090E007C022E04AE8F1
S113175054E069E874E081E090E00E94680A81E066
S11317600E94E7006BE874E08AE894E00E94040AAF
S113177089E894E0DF91CF910C940C0920918A04BC
S11317808091890490E0820F911D81309105A9F028
S11317903CF4892B09F042C0DF91CF910C948C0664
S11317A08230910501F10397C9F583E0888381E0D4
S11317B00E94E70010928A0431C081E080938F0474
S11317C06FE874E08CE894E00E94510B80918C04E3
S11317D0813208F080E290918D04891708F4892FF2
S11317E080938C0415C081E080938F046FE874E0CB
S11317F08DE894E00E94510B80918D04823108F4AD
S113180082E190918C04981708F4892F80938D04B9
S11318108BE894E0DF91CF910C949306DF91CF9104
S1131820089581E00E94E70083ED91E00E94DD01CC
S113183067E081E00E94D0018091950490E00C94CF
S1131840F0010E94E808909194048823C9F0911152
S113185017C080916400813039F050F0833061F416
S113186084E690E00C948C0A84E690E00C946D0B72
S113187084E690E00C94EA0A83EE91E00C94DD0196
S113188091110C94110C0E94CA0D8111FACF0C9481
S1131890CB08109294041092930410929204089529
S11318A00E94200580E00E94D00586E00E94D205B7
S11318B08EEE98E00E94D8050E94D40587E00E942D
S11318C0CC0547E050E064E070E081E090E00C94E7
S11318D05902CF93DF93EC0183ED90E00E943C0624
S11318E0CE010E94650682E293E0DF91CF910C94D1
S11318F03C060F931F93CF93DF938C01C091960402
S11319008AE1C89FE0011124CF5FDD4F40E1BE01B1
S1131910C8010E940004BE01605F7F4F49E0C80116
S113192040960E940004F801618DCE014996DF9132
S1131930CF911F910F910C94F1030F931F93CF93A9
S1131940DF938C018AE1689FE0011124CF5FDD4FB2
S113195040E1BE01C8010E941D04BE01605F7F4FCB
S113196049E0C80140960E941D04CE0149960E9498
S1131970F903F801818FDF91CF911F910F910895A1
S1131980CF93DF9380E090E00E94F9038F3F39F416
S11319906091960480E090E00E94F10316C080E01C
S11319A090E00E94F90380939604C0E0DAE180910C
S11319B09604C81750F4DC9FC00111246C2F8D5578
S11319C09A4F0E949D0CCF5FF2CF87E690E0DF91A3
S11319D0CF910C942F06CF92DF92EF92FF920F9348
S11319E01F93CF93C0919604CA3018F57B01BC01B4
S11319F08AE1C89F6001112486010D551A4FC80160
S1131A000E949211B701C6018D549A4F0E949211FF
S1131A10CF5FF801C18FC8010E94790C60919604D0
S1131A206F5F6093960480E090E00E94F10380E091
S1131A3001C081E0CF911F910F91FF90EF90DF9053
S1131A40CF900895BF92CF92DF92EF92FF920F93BF
S1131A501F93CF93DF93CDB7DEB7E2970FB6F89419
S1131A60DEBF0FBECDBF89EE91E00E943C0610E0C0
S1131A700AE180E0E82E82E0F82E92E3B92ECE014E
S1131A8001966C01809196041817E0F4019FF0010F
S1131A901124ED55FA4F818D1F928F93FF93EF938D
S1131AA0FF92EF921F92BF92DF92CF920E94991100
S1131AB0C6010E943C061F5F0FB6F894DEBF0FBE3E
S1131AC0CDBFE0CFE2960FB6F894DEBF0FBECDBF18
S1131AD0DF91CF911F910F91FF90EF90DF90CF9006
S1131AE0BF9008950F931F93CF93DF93CDB7DEB7C5
S1131AF029970FB6F894DEBF0FBECDBF8091650065
S1131B00882331F084E091E00E943C061092650045
S1131B100E944806182F8F3F89F182E293E00E94C9
S1131B203C0600ED010F11531A3000F5CE01019669
S1131B300E94690C802F90E001972AE1289FB00150
S1131B40299F700D11246D547A4FCE0101960E9485
S1131B508911892B41F48AE192E00E943C0681E0DC
S1131B608093970407C08CE292E002C087E492E07D
S1131B700E943C0681E080936500102F812F2996F6
S1131B800FB6F894DEBF0FBECDBFDF91CF911F918A
S1131B900F910895809197040895109297040895E1
S1131BA0CF93DF93CDB7DEB769970FB6F894DEBF56
S1131BB00FBECDBF80E090E00E94F903811129C0DF
S1131BC08FE592E00E943C0685E792E00E943C0685
S1131BD0CE0101960E94650682E293E00E943C06D3
S1131BE0CE0141960E94690CBE016F5E7F4FCE010B
S1131BF001960E94EB0C811103C086E892E007C0B5
S1131C00813019F48FE992E002C08AEB92E00E94DD
S1131C103C0669960FB6F894DEBF0FBECDBFDF91C8
S1131C20CF910895CF93DF93CDB7DEB769970FB601
S1131C30F894DEBF0FBECDBF86ED92E00E943C0655
S1131C4085E792E00E943C06CE0101960E9465065B
S1131C50CE0141960E94690CBE016F5E7F4FCE019A
S1131C6001960E94EB0C811103C086E892E007C044
S1131C70813019F48FE992E002C08AEB92E00E946D
S1131C803C0681E080936B00809369008093680038
S1131C9069960FB6F894DEBF0FBECDBFDF91CF912A
S1131CA00895CF93DF93CDB7DEB769970FB6F89455
S1131CB0DEBF0FBECDBF86ED92E00E943C0685E7F5
S1131CC092E00E943C06CE0101960E946506CE0178
S1131CD041960E94690CBE016F5E7F4FCE01019652
S1131CE00E94E907811103C086E892E007C08130B1
S1131CF019F48FE992E002C08AEB92E00E943C065C
S1131D0081E080936B0080936900809368006996FA
S1131D100FB6F894DEBF0FBECDBFDF91CF9108950B
S1131D2080916700882331F18BEE92E00E943C069B
S1131D3086EF92E00E943C0684E293E00E943C0617
S1131D408EE293E00E943C0688E393E00E943C0606
S1131D5082E493E00E943C068CE493E00E943C06FB
S1131D6086E593E00E943C0681E693E00E943C06EF
S1131D70109267000E9448068F3F59F1E0EDE80F8A
S1131D808E2F90E0FC013197E730F105D8F4EF5C39
S1131D90FF4F0C94831181E001C082E00E94B600E1
S1131DA015C083E0FBCF84E0F9CF85E0F7CF0E9434
S1131DB012070CC081E080936B00809369008093CC
S1131DC0680004C08CE693E00E943C0681E08093A6
S1131DD067000895CF9380916600882319F18FE8F6
S1131DE093E00E943C060E949E06C62F611103C028
S1131DF08CE791E002C085EB91E00E943C0687E904
S1131E0093E00E943C06C11103C085EB91E002C03F
S1131E108CE791E00E943C068AEA93E00E943C062B
S1131E20109266000E9448068F3FA1F0853429F085
S1131E30843559F4CF910C948C0681E080936B0027
S1131E40809369008093680005C08DEB93E0CF9187
S1131E500C943C06CF91089580916900882391F0F9
S1131E6089EC93E00E943C0685ED93E00E943C06D9
S1131E708FED93E00E943C0686EE93E00E943C06C0
S1131E801092690080916B00882321F00E9448061B
S1131E9080939904809199048F3FE1F010926B0034
S1131EA0823331F0833331F0813369F40C94900E32
S1131EB00C94EA0E0E94CD0D81E080936B00809318
S1131EC06A00809369008CE693E00E943C0681E0FE
S1131ED080936B000895809168008823F1F081EF6E
S1131EE093E00E943C068EEF93E00E943C0689E159
S1131EF094E00E943C0683E394E00E943C068DE358
S1131F0094E00E943C0684E494E00E943C0682E64D
S1131F1094E00E943C061092680080916B00882334
S1131F2021F00E94480680939804809198048F3F82
S1131F3049F110926B008333C1F030F4813399F08E
S1131F408233C9F40C94510E853399F080F08633B2
S1131F5091F40E94CD0D81E080936A0080936B0020
S1131F608093680008950C94120E0C94900E0C94B7
S1131F70EA0E0C94D8068CE693E00E943C0681E0BD
S1131F8080936B00089580916A00882341F00E9439
S1131F90CA0D813021F00E94220D10926A000E9425
S1131FA0CA0D882319F0813031F008950E94720D12
S1131FB080939A04089580919A04813011F40C94CA
S1131FC06B0F0C942C0F0C94C30F0C94D00D0E9427
S1131FD0FB0F0C94DC100E94D51058F00E94CE1018
S1131FE040F029F45F3F29F00C94C51051110C9472
S1131FF010110C94CB100E94ED1068F39923B1F3E7
S1132000552391F3951B550BBB27AA27621773071A
S1132010840738F09F5F5F4F220F331F441FAA1FAE
S1132020A9F335D00E2E3AF0E0E832D0915050406A
S1132030E695001CCAF72BD0FE2F29D0660F771F18
S1132040881FBB1F261737074807AB07B0E809F0FE
S1132050BB0B802DBF01FF2793585F4F3AF09E3F83
S1132060510578F00C94C5100C9410115F3FE4F303
S1132070983ED4F3869577956795B795F7959F5FC6
S1132080C9F7880F911D9695879597F90895E1E012
S1132090660F771F881FBB1F621773078407BA0771
S11320A020F0621B730B840BBA0BEE1F88F7E095CC
S11320B008950E94F51088F09F5798F0B92F99273A
S11320C0B751B0F0E1F0660F771F881F991F1AF01F
S11320D0BA95C9F714C0B13091F00E940F11B1E064
S11320E008950C940F11672F782F8827B85F39F063
S11320F0B93FCCF3869577956795B395D9F73EF4B8
S113210090958095709561957F4F8F4F9F4F08955F
S1132110E89409C097FB3EF490958095709561957D
S11321207F4F8F4F9F4F9923A9F0F92F96E9BB2733
S11321309395F695879577956795B795F111F8CFAF
S1132140FAF4BB0F11F460FF1BC06F5F7F4F8F4F1A
S11321509F4F16C0882311F096E911C0772321F010
S11321609EE8872F762F05C0662371F096E8862FA8
S113217070E060E02AF09A95660F771F881FDAF7FF
S1132180880F9695879597F9089597F99F6780E842
S113219070E060E008959FEF80EC089500240A94B5
S11321A01616170618060906089500240A9412162E
S11321B01306140605060895092E0394000C11F461
S11321C0882352F0BB0F40F4BF2B11F460FF04C00E
S11321D06F5F7F4F8F4F9F4F089557FD9058440F67
S11321E0551F59F05F3F71F04795880F97FB991F72
S11321F061F09F3F79F0879508951216130614062F
S1132200551FF2CF4695F1DF08C0161617061806BB
S1132210991FF1CF86957105610508940895E89496
S1132220BB2766277727CB0197F908950E942911C8
S11322300C94DC100E94CE1038F00E94D51020F0CF
S1132240952311F00C94C5100C94CB1011240C940C
S113225010110E94ED1070F3959FC1F3950F50E09B
S1132260551F629FF001729FBB27F00DB11D639F44
S1132270AA27F00DB11DAA1F649F6627B00DA11DEA
S1132280661F829F2227B00DA11D621F739FB00D90
S1132290A11D621F839FA00D611D221F749F332700
S11322A0A00D611D231F849F600D211D822F762F99
S11322B06A2F11249F5750409AF0F1F088234AF076
S11322C0EE0FFF1FBB1F661F771F881F91505040E2
S11322D0A9F79E3F510580F00C94C5100C94101181
S11322E05F3FE4F3983ED4F3869577956795B79569
S11322F0F795E7959F5FC1F7FE2B880F911D969583
S1132300879597F90895EE0FFF1F0590F491E02D3E
S11323100994FB01DC018D91019080190110D9F31E
S1132320990B0895FB01DC0101900D920020E1F767
S11323300895AEE0B0E0EFE9F1E10C948A140D8960
S11323401E898F89988D26E02C831A83098397FF31
S113235002C080E090E801979E838D83AE01455EC4
S11323605F4F698D7A8DCE0101960E94EB114D81EC
S11323705E8157FD0AC02F813885421753070CF43C
S11323809A01F801E20FF31F10822E96E4E00C94F8
S1132390A614AEE0B0E0EFECF1E10C948A140D89E0
S11323A01E8986E08C831A8309838FEF9FE79E83BF
S11323B08D83AE01475E5F4F6F89788DCE010196A4
S11323C00E94EB11EF81F885E00FF11F10822E9629
S11323D0E4E00C94A614ABE0B0E0E1EFF1E10C947E
S11323E07C146C017B018A01FC01178216828381B3
S11323F081FFCCC1CE0101963C01F6019381F70126
S113240093FD859193FF81917F01882309F4BAC1DB
S1132410853239F493FD859193FF81917F01853253
S113242029F4B60190E00E94E213E7CF912C212C0D
S1132430312CFFE1F315D8F08B3279F038F4803287
S113244079F08332A1F4232D20611DC08D3261F017
S1132450803369F4232D216016C0832D8260382EC9
S1132460E32DE4603E2E2AC0F32DF8601DC037FC36
S11324702DC020ED280F2A3040F08E32B9F436FCFE
S113248081C1232D2064322E19C036FE06C08AE095
S1132490989E200D1124922E11C0EAE02E9E200D4C
S11324A01124222EF32DF0623F2E08C08C3621F425
S11324B0832D8068382E02C0883641F4F70193FDDD
S11324C0859193FF81917F018111B3CF982F9F7DD7
S11324D09554933028F40C5F1F4F9FE399830DC0EC
S11324E0833631F0833771F0833509F059C021C048
S11324F0F801808189830E5F1F4F88248394912C77
S1132500530113C02801F2E04F0E511CF801A080C2
S1132510B18036FE03C0692D70E002C06FEF7FEF1B
S1132520C5010E94D7134C018201F32DFF773F2E82
S113253016C0280122E0420E511CF801A080B1808F
S113254036FE03C0692D70E002C06FEF7FEFC50156
S11325500E94CC134C01F32DF0683F2E820133FC12
S11325601BC0822D90E088169906B0F4B60180E273
S113257090E00E94E2132A94F4CFF50137FC859190
S113258037FE81915F01B60190E00E94E2132110B1
S11325902A9421E0821A91088114910471F7E8C009
S11325A0843611F0893641F5F80137FE07C06081A1
S11325B07181828193810C5F1F4F08C0608171819A
S11325C0072E000C880B990B0E5F1F4FF32DFF761F
S11325D03F2E97FF09C090958095709561957F4F28
S11325E08F4F9F4FF0683F2E2AE030E0A3010E94F6
S11325F01E14882E861845C0853731F4232D2F7E6E
S1132600B22E2AE030E025C0932D997FB92E8F3663
S1132610C1F018F4883579F0B5C0803719F08837DF
S113262021F0B0C0E92FE061BE2EB4FE0DC0FB2D39
S1132630F460BF2E09C034FE0AC0292F2660B22ED2
S113264006C028E030E005C020E130E002C020E10F
S113265032E0F801B7FE07C0608171818281938105
S11326600C5F1F4F06C06081718180E090E00E5FB7
S11326701F4FA3010E941E14882E8618FB2DFF777E
S11326803F2E36FE0DC0232D2E7FA22E891458F422
S113269034FE0BC032FC09C0832D8E7EA82E05C0EB
S11326A0B82CA32C03C0B82C01C0B92CA4FE0FC0B5
S11326B0FE01E80DF11D8081803321F49A2D997E6D
S11326C0A92E09C0A2FE06C0B394B39404C08A2DF7
S11326D0867809F0B394A3FC11C0A0FE06C0B2141E
S11326E088F4280C922C9B180EC0B21460F4B60126
S11326F080E290E00E94E213B394F7CFB21418F48E
S11327002B1802C0982C212CA4FE10C0B60180E323
S113271090E00E94E213A2FE17C0A1FC03C088E768
S113272090E002C088E590E0B6010CC08A2D86785E
S113273059F0A1FE02C08BE201C080E2A7FC8DE249
S1132740B60190E00E94E213891438F4B60180E3E4
S113275090E00E94E2139A94F7CF8A94F301E80D73
S1132760F11D8081B60190E00E94E2138110F5CF43
S1132770222009F442CEB60180E290E00E94E213E6
S11327802A94F6CFF6018681978102C08FEF9FEFDE
S11327902B96E2E10C949814FC0105906150704072
S11327A00110D8F7809590958E0F9F1F0895FC0116
S11327B06150704001900110D8F7809590958E0F6C
S11327C09F1F08950F931F93CF93DF93FB012381E2
S11327D021FD03C08FEF9FEF2CC022FF16C046815E
S11327E05781248135814217530744F4A081B18174
S11327F09D012F5F3F4F318320838C932681378146
S11328002F5F3F4F3783268314C08B01EC01FB01FC
S11328100084F185E02D0995892BE1F6D8011696FF
S11328208D919C911797019617969C938E9316976A
S1132830CE01DF91CF911F910F910895FA01AA273C
S1132840283051F1203181F1E8946F936E7F6E5FEF
S11328507F4F8F4F9F4FAF4FB1E03ED0B4E03CD09D
S1132860670F781F891F9A1FA11D680F791F8A1F80
S1132870911DA11D6A0F711D811D911DA11D20D0E7
S113288009F468943F912AE0269F11243019305DA1
S11328903193DEF6CF010895462F4770405D419392
S11328A0B3E00FD0C9F7F6CF462F4F70405D4A33DF
S11328B018F0495D31FD4052419302D0A9F7EACFA7
S11328C0B4E0A6959795879577956795BA95C9F7D6
S11328D000976105710508959B01AC010A2E0694C9
S11328E05795479537952795BA95C9F7620F731F82
S11328F0841F951FA01D08952F923F924F925F92BF
S11329006F927F928F929F92AF92BF92CF92DF92FB
S1132910EF92FF920F931F93CF93DF93CDB7DEB760
S1132920CA1BDB0B0FB6F894DEBF0FBECDBF0994F4
S11329302A88398848885F846E847D848C849B844B
S1132940AA84B984C884DF80EE80FD800C811B8159
S1132950AA81B981CE0FD11D0FB6F894DEBF0FBE88
S10D2960CDBFED010895F894FFCFF8
S113296AFF010101030101010101010123002A44BC
S113297A0102034304050642070809410A50726525
S113298A737320276F2720746F206F70656E20740D
S113299A686520646F6F722C2027632720746F2068
S11329AA636C6F73652074686520646F6F722C2082
S11329BA27622720746F20676F206261636B3A2055
S11329CA0A00496E76616C69642063686F6963659D
S11329DA2E0A00456E7465722050617373776F72A4
S11329EA643A00496E76616C696420506173737746
S11329FA6F726400557365723A2025732C49443A00
S1132A0A20256400456E74657220557365722049E9
S1132A1A443A004C6F67696E205375636365737338
S1132A2A66756C004572726F723A20496E636F72F2
S1132A3A726563742050617373776F7264004572B0
S1132A4A726F723A20496E76616C696420557365B7
S1132A5A72204F72646572004C4544204F4E2F4FCA
S1132A6A464600414320436F6E74726F6C004C6F8C
S1132A7A672D6F7574005B4F4E5D20005B4F4646B1
S1132A8A5D004C616D703120004C616D7032200024
S1132A9A4C616D703320004C616D703420004C61C0
S1132AAA6D7035200044696D4C616D70200052656B
S1132ABA7475726E005B4F4E5D004143200052757F
S1132ACA6E2054656D703A0053746F702054656DAE
S1132ADA703A004163746976652044657669636572
S1132AEA733A004552524F5200446973706C6179CB
S1132AFA696E6720616C6C2075736572733A0A009B
S1132B0A52656D6F74653A20557365723A20257360
S1132B1A2C2049443A2025640A004C6F67696E20C8
S1132B2A5375636365737366756C0A004572726FD5
S1132B3A723A20496E636F727265637420506173CE
S1132B4A73776F72640A004572726F723A20496E23
S1132B5A76616C696420557365722049440A00528F
S1132B6A6567697374657220617320616E2061649C
S1132B7A6D696E0A00456E74657220757365726EAE
S1132B8A616D653A2000526567697374726174698C
S1132B9A6F6E207375636365737366756C0A00459B
S1132BAA72726F723A20557365722061727261791A
S1132BBA2069732066756C6C0A004572726F723AEA
S1132BCA20454550524F4D207772697465206661DD
S1132BDA696C65640A005265676973746572206179
S1132BEA206E657720757365720A004C616D7020DA
S1132BFA4D656E750A0043686F6F7365206C616D6D
S1132C0A70206E756D62657220796F752077616EBA
S1132C1A7420746F207475726E206F6E2F6F6666DF
S1132C2A3A200A00312E204C616D70310A00322E8E
S1132C3A204C616D70320A00332E204C616D703362
S1132C4A0A00342E204C616D70340A00352E204C53
S1132C5A616D70350A00362E2044696D6D65720AFD
S1132C6A00372E2052657475726E0A00496E7661B9
S1132C7A6C69642063686F6963652E20506C6561B2
S1132C8A73652074727920616761696E2E0A004146
S1132C9A43204D656E75005072657373202854295C
S1132CAA20746F207475726E2000507265737320DD
S1132CBA28452920746F20457869740A0057726F71
S1132CCA6E6720496E7075740055736572204D6580
S1132CDA6E753A0A00312E204C616D70730A003207
S1132CEA2E2041430A00332E204C6F676F75740AF5
S1132CFA0041646D696E204D656E753A0A00312E85
S1132D0A2052656769737465722055736572202849
S1132D1A52656D6F7465290A00322E2052656769FF
S1132D2A73746572205573657220284C6F63616CE5
S1132D3A290A00332E204C616D70730A00342E2048
S1132D4A41430A00352E20436F6E74726F6C20441F
S1132D5A6F6F7220284F70656E2F436C6F736529ED
S1112D6A0A00362E204C6F676F75740A000045
S9030000FC
