S0110000536D617274486F6D652E7372656383
S11300000C942A000C9447000C9447000C9447006D
S11300100C94B0030C9487030C9447000C94470091
S11300200C9447000C945A030C9431030C94080369
S11300300C9447000C9447000C9447000C94470020
S11300400C9447000C9447000C9447000C94470010
S11300500C94470011241FBECFE5D8E0DEBFCDBF0E
S113006013E0A0E6B0E0E2EDF5E102C005900D92E8
S1130070A630B107D9F724E0A6E0B3E001C01D9291
S1130080AF31B207E1F70E9449000C94E70A0C94DF
S113009000000E94120187E690E00E94D9030E94AA
S11300A031050E94C7072FEF83ED90E32150804074
S11300B09040E1F700C00000F4CFCF93C82F0E9416
S11300C07401EC2FF0E0EA5FFC4F908181E0892716
S11300D08083CF9108958FE99FE00197F1F700C0E5
S11300E0000041E064E082E00E9412028FE99FE098
S11300F00197F1F700C0000040E064E082E00E9454
S113010012028FE99FE00197F1F700C00000089503
S1130110CF93C82F40E066E082E00E941202C4FB45
S1130120442740F960E082E00E941202C5FB4427A4
S113013040F961E082E00E941202C6FB442740F9C4
S113014062E082E00E9412024C2F441F4427441FA5
S113015063E082E00E9412020E946B004C2F417007
S113016060E082E00E941202C1FB442740F961E092
S113017082E00E941202C2FB442740F962E082E05E
S11301800E941202C3FB442740F963E082E00E940C
S113019012020E946B00CF910895CF93C82F41E0C3
S11301A066E082E00E941202C4FB442740F960E04A
S11301B082E00E941202C5FB442740F961E082E01C
S11301C00E941202C6FB442740F962E082E00E94CA
S11301D012024C2F441F4427441F63E082E00E9414
S11301E012020E946B004C2F417060E082E00E947A
S11301F01202C1FB442740F961E082E00E9412022E
S1130200C2FB442740F962E082E00E941202C3FB71
S1130210442740F963E082E00E9412020E946B00CE
S1130220CF91089541E066E082E00E949D0141E0A3
S113023065E082E00E949D0141E064E082E00E946A
S11302409D0141E060E082E00E949D0141E061E0A7
S113025082E00E949D0141E062E082E00E949D01F3
S113026041E063E082E00E949D0140E065E082E0BD
S11302700E94120280E00E94CD002FEF86E791E0F9
S1130280215080409040E1F700C0000083E00E94CC
S113029088008FE19EE40197F1F700C0000083E03D
S11302A00E94880087E592E00197F1F700C0000002
S11302B083E00E94880082E00E94880082E00E941D
S11302C0880088E20E94880088E00E94880080E01C
S11302D00E9488008CE00E94880080E00E948800D0
S11302E086E00E94880008958330A9F028F48130C4
S11302F041F0823059F00895843091F08530A9F0AE
S1130300089560E080E00E948702089561E080E043
S11303100E948702089562E080E00E9487020895A7
S113032063E080E00E948702089564E080E00E9418
S1130330870208950E9483030895813011F130F0FB
S11303408230D1F1833009F452C00895413059F418
S11303502AB381E090E002C0880F991F6A95E2F702
S1130360822B8ABB089541115CC02AB381E090E0DE
S113037002C0880F991F6A95E2F7809582238ABB91
S11303800895413059F427B381E090E002C0880F0A
S1130390991F6A95E2F7822B87BB0895411141C0EA
S11303A027B381E090E002C0880F991F6A95E2F7B5
S11303B08095822387BB0895413059F424B381E0AA
S11303C090E002C0880F991F6A95E2F7822B84BBE4
S11303D00895411126C024B381E090E002C0880F43
S11303E0991F6A95E2F78095822384BB0895413072
S11303F059F421B381E090E002C0880F991F6A95F7
S1130400E2F7822B81BB089541110BC021B381E037
S113041090E002C0880F991F6A95E2F780958223C5
S113042081BB0895813011F130F08230D1F18330F5
S113043009F452C00895413059F42BB381E090E09F
S113044002C0880F991F6A95E2F7822B8BBB08952F
S113045041115CC02BB381E090E002C0880F991F6A
S11304606A95E2F7809582238BBB0895413059F455
S113047028B381E090E002C0880F991F6A95E2F7E3
S1130480822B88BB0895411141C028B381E090E0DC
S113049002C0880F991F6A95E2F78095822388BB72
S11304A00895413059F425B381E090E002C0880FEB
S11304B0991F6A95E2F7822B85BB0895411126C0E6
S11304C025B381E090E002C0880F991F6A95E2F796
S11304D08095822385BB0895413059F422B381E08D
S11304E090E002C0880F991F6A95E2F7822B82BBC5
S11304F0089541110BC022B381E090E002C0880F3F
S1130500991F6A95E2F78095822382BB0895813012
S113051089F028F08230C9F0833011F108952BB3AB
S113052081E090E002C0880F991F6A95E2F7822764
S11305308BBB089528B381E090E002C0880F991F17
S11305406A95E2F7822788BB089525B381E090E09D
S113055002C0880F991F6A95E2F7822785BB089528
S113056022B381E090E002C0880F991F6A95E2F7F8
S1130570822782BB0895E199FECF9FBB8EBB6DBBE2
S1130580E29AE19A0895E199FECF9FBB8EBBE09A6F
S11305908DB30895EF92FF920F931F93CF93DF9340
S11305A08C01EB017B01E40EF11C6E157F0550F408
S11305B0F80161918F01CE010E94BB022196CE15F4
S11305C0DF05B0F3DF91CF911F910F91FF90EF9072
S11305D00895EF92FF920F931F93CF93DF938C01B3
S11305E0EB017B01E40EF11C6E157F0550F4CE0186
S11305F00E94C302F80181938F012196CE15DF0575
S1130600B0F3DF91CF911F910F91FF90EF90089578
S11306101F920F920FB60F9211242F933F934F9373
S11306205F936F937F938F939F93AF93BF93EF9356
S1130630FF93E0910D03F0910E03309709F00995B3
S1130640FF91EF91BF91AF919F918F917F916F91A6
S11306505F914F913F912F910F900FBE0F901F907C
S113066018951F920F920FB60F9211242F933F9358
S11306704F935F936F937F938F939F93AF93BF93A6
S1130680EF93FF93E0910B03F0910C03309709F083
S11306900995FF91EF91BF91AF919F918F917F91B8
S11306A06F915F914F913F912F910F900FBE0F90DB
S11306B01F9018951F920F920FB60F9211242F932B
S11306C03F934F935F936F937F938F939F93AF93D6
S11306D0BF93EF93FF93E0910F03F09110033097D2
S11306E009F00995FF91EF91BF91AF919F918F917F
S11306F07F916F915F914F913F912F910F900FBE1A
S11307000F901F90189590E09BBD8ABD08951F928D
S11307100F920FB60F9211242F933F934F935F9331
S11307206F937F938F939F93AF93BF93EF93FF93B5
S1130730E0911303F0911403309709F00995FF91A8
S1130740EF91BF91AF919F918F917F916F915F9145
S11307504F913F912F910F900FBE0F901F901895BE
S11307601F920F920FB60F9211242F933F934F9322
S11307705F936F937F938F939F93AF93BF93EF9305
S1130780FF93E0911103F0911203309709F009955A
S1130790FF91EF91BF91AF919F918F917F916F9155
S11307A05F914F913F912F910F900FBE0F901F902B
S11307B0189589B990BD539A549A86E880BD0895D6
S11307C05D9BFECF8CB90895CF93DF93EC018881B4
S11307D0882331F021960E94E00389918111FBCF97
S11307E0DF91CF9108955F9BFECF8CB10895EF9276
S11307F0FF920F931F93CF937C010E94F303F701A1
S11308008083833261F0C0E0CF5F87010C0F111D3C
S11308100E94F303F80180838332B1F701C087019A
S1130820F8011082CF911F910F91FF90EF900895DE
S1130830E8E1F3E0908181E0892780830895609165
S113084018037091190380911A03089588E592E0C2
S11308500E949A0181E08093150308958EE591E04A
S11308600E949A0110921503089580911503811135
S113087003C00E94260408950E942E0408959091B6
S1130880600081E08927809360000895CF92DF9211
S1130890EF92FF921F93CF93DF93CDB7DEB76B97A1
S11308A00FB6F894DEBF0FBECDBF6C017B0160E0D4
S11308B080E090E00E94BB0241E060E070E0CE0185
S11308C001960E94E90219811A3040F54FE050E088
S11308D0B601CE0102960E94E00748E050E0B7015D
S11308E0CE0142960E94E00781E0810F8B8F8AE15E
S11308F0189FB00111246F5F7F4F4AE1CE01029629
S11309000E94CA0289818F5F898341E060E070E0C0
S1130910CE0101960E94CA0280E001C081E06B967C
S11309200FB6F894DEBF0FBECDBFDF91CF911F91FC
S1130930FF90EF90DF90CF900895CF93DF93EC0179
S113094081E690E00E94E403CE010E94F7038CEB61
S113095091E00E94E403DF91CF9108950F931F93D8
S1130960CF93DF938C018AE1689FE0011124CF5F6C
S1130970DD4F40E1BE01C8010E94CA02BE01605FB2
S11309807F4F49E0C80140960E94CA02F801618D78
S1130990CE0149960E94BB02DF91CF911F910F9126
S11309A008950F931F93CF93DF938C018AE1689F7F
S11309B0E0011124CF5FDD4F40E1BE01C8010E9478
S11309C0E902BE01605F7F4F49E0C80140960E9482
S11309D0E902CE0149960E94C302F801818FDF919A
S11309E0CF911F910F910895EF92FF920F931F9350
S11309F0CF937C018B0180E090E00E94C302C82F5A
S1130A00809316038A30F0F4B7018BE193E00E94DF
S1130A10D907B8018BE293E00E94D90781E08C0FDB
S1130A20809334036C2F8BE193E00E94AE046091B9
S1130A3016036F5F6093160380E090E00E94BB0290
S1130A4080E001C081E0CF911F910F91FF90EF9062
S1130A5008958A3028F49B01682FC9010E94D104AB
S1130A600895CF9380E090E00E94C3028F3F39F451
S1130A706091160380E090E00E94BB0213C080E006
S1130A8090E00E94C30280931603882359F0C0E0CB
S1130A906BE173E08C2F0E942905CF5F80911603D0
S1130AA0C817B0F387E690E00E94D903CF91089568
S1130AB0BF92CF92DF92EF92FF920F931F93CF9347
S1130AC0DF93CDB7DEB7E2970FB6F894DEBF0FBE63
S1130AD0CDBF81E790E00E94E40380911603882350
S1130AE071F110E00F2EFAE1BF2EF02D0F2EF8E871
S1130AF0CF2EF0E0DF2EF02D02E3CE0101967C0133
S1130B00B19EF0011124E55EFC4F818D1F928F93FD
S1130B10FF93EF93DF92CF921F920F93FF92EF9286
S1130B200E94EF07C7010E94E4031F5F0FB6F89409
S1130B30DEBF0FBECDBF80911603181708F3E296EF
S1130B400FB6F894DEBF0FBECDBFDF91CF911F91DA
S1130B500F91FF90EF90DF90CF90BF900895EF92A8
S1130B60FF921F93CF93DF93CDB7DEB729970FB6CC
S1130B70F894DEBF0FBECDBF82EA90E00E94E4038A
S1130B800E94F30310ED180F81538A3048F5212F8A
S1130B9030E0215031094AE1429FC001439F900D4A
S1130BA011249C01255D3C4F7901C9010E94E40395
S1130BB0CE0101960E949D04B701CE0101960E94C8
S1130BC0D007892B41F481EB90E00E94E40381E09B
S1130BD08093170309C083EC90E00E94E40304C0EF
S1130BE08EED90E00E94E403812F29960FB6F894CD
S1130BF0DEBF0FBECDBFDF91CF911F91FF90EF906D
S1130C000895809117031092170308951092170303
S1130C100895CF93DF93CDB7DEB769970FB6F894F5
S1130C20DEBF0FBECDBF80E090E00E94C302181665
S1130C3019064CF189EF90E00E94E4038FE091E003
S1130C400E94E403CE0101960E94F703CE0141966F
S1130C500E949D04BE016F5E7F4FCE0101960E94EB
S1130C60F404811105C080E291E00E94E4030BC00A
S1130C70813029F489E391E00E94E40304C084E50F
S1130C8091E00E94E40369960FB6F894DEBF0FBEAC
S1130C90CDBFDF91CF910895CF93DF93CDB7DEB76A
S1130CA069970FB6F894DEBF0FBECDBF80E791E021
S1130CB00E94E4038FE091E00E94E403CE010196D8
S1130CC00E94F703CE0141960E949D04BE016F5E0F
S1130CD07F4FCE0101960E94F404811105C080E289
S1130CE091E00E94E4030BC0813029F489E391E090
S1130CF00E94E40304C084E591E00E94E403699641
S1130D000FB6F894DEBF0FBECDBFDF91CF9108952B
S1130D10CF93DF93CDB7DEB769970FB6F894DEBFF4
S1130D200FBECDBF80E791E00E94E4038FE091E025
S1130D300E94E403CE0101960E94F703CE0141967E
S1130D400E949D04BE016F5E7F4FCE0101960E94FA
S1130D504604811105C080E291E00E94E4030BC0C7
S1130D60813029F489E391E00E94E40304C084E51E
S1130D7091E00E94E40369960FB6F894DEBF0FBEBB
S1130D80CDBFDF91CF91089585E891E00E94E403FF
S1130D9080E991E00E94E4038EEB91E00E94E40379
S1130DA088EC91E00E94E40382ED91E00E94E40368
S1130DB08CED91E00E94E40386EE91E00E94E4034E
S1130DC080EF91E00E94E4030E94F3038053833098
S1130DD0A1F028F4813049F0823059F01DC08530EB
S1130DE0A1F078F08630A9F017C081E00E945D0080
S1130DF0089582E00E945D00089583E00E945D00F2
S1130E00089584E00E945D00089585E00E945D00DD
S1130E1008950E943F0408958BEF91E00E94E4033B
S1130E20089589E292E00E94E4030E941F04611184
S1130E301AC00EC00E94E4030E94F303843519F41F
S1130E400E941804089581E392E00E94E403089547
S1130E508EE192E00E94E4038DE392E00E94E403B9
S1130E6084E292E0E7CF84E292E00E94E4038DE31F
S1130E7092E00E94E4038EE192E0DCCF80E592E010
S1130E800E94E4038CE592E00E94E40386E692E08B
S1130E900E94E4038DE692E00E94E4030E94F303BF
S1130EA08053823339F0833341F0813359F40E9403
S1130EB0C406E4CF0E941107E1CF0E9406060E94F7
S1130EC0670708958BEF91E00E94E403D7CFCF9397
S1130ED0DF93CDB7DEB76A970FB6F894DEBF0FBEC7
S1130EE0CDBF0E9458050E94AF05BE016F5F7F4FC2
S1130EF00E9429058A8D813039F40E9401068823D5
S1130F0019F00E94920705C00E94010681110E94F7
S1130F103E076A960FB6F894DEBF0FBECDBFDF91D1
S1130F20CF91089588E792E00E94E40385E892E077
S1130F300E94E40380EA92E00E94E4038AEB92E0D8
S1130F400E94E40388ED92E00E94E4030E94F3030C
S1130F508053823361F018F4813331F013C083334A
S1130F6049F0843351F00EC00E944C06DBCF0E943E
S1130F708806D8CF0E943504D5CF0E9406060E9469
S1130F80670708958BEF91E00E94E403CBCF83EED3
S1130F9092E00E94E4030E9409060E9467070895F4
S1130FA0FB01DC018D91019080190110D9F3990B9B
S1130FB00895FB01DC0101900D920020E1F70895F2
S1130FC0FB01DC014150504048F001900D9200209B
S1130FD0C9F701C01D9241505040E0F70895AEE0BA
S1130FE0B0E0E5EFF7E00C94BE0A0D891E898F8905
S1130FF0988D26E02C831A83098397FF02C080E032
S113100090E801979E838D83AE01455E5F4F698DA5
S11310107A8DCE0101960E941F084D815E8157FD95
S11310200AC02F813885421753070CF49A01F8013E
S1131030E20FF31F10822E96E4E00C94DA0AABE080
S1131040B0E0E5E2F8E00C94B00A6C017B018A019F
S1131050FC0117821682838181FFCCC1CE010196E7
S11310603C01F6019381F70193FD859193FF8191F2
S11310707F01882309F4BAC1853239F493FD85913F
S113108093FF81917F01853229F4B60190E00E949B
S1131090160AE7CF912C212C312CFFE1F315D8F05F
S11310A08B3279F038F4803279F08332A1F4232D35
S11310B020611DC08D3261F0803369F4232D2160DD
S11310C016C0832D8260382EE32DE4603E2E2AC0A4
S11310D0F32DF8601DC037FC2DC020ED280F2A30F9
S11310E040F08E32B9F436FC81C1232D2064322EB7
S11310F019C036FE06C08AE0989E200D1124922E57
S113110011C0EAE02E9E200D1124222EF32DF06250
S11311103F2E08C08C3621F4832D8068382E02C0FF
S1131120883641F4F70193FD859193FF81917F0106
S11311308111B3CF982F9F7D9554933028F40C5F81
S11311401F4F9FE399830DC0833631F0833771F0CD
S1131150833509F059C021C0F801808189830E5F6D
S11311601F4F88248394912C530113C02801F2E06B
S11311704F0E511CF801A080B18036FE03C0692DCA
S113118070E002C06FEF7FEFC5010E940B0A4C01B3
S11311908201F32DFF773F2E16C0280122E0420E74
S11311A0511CF801A080B18036FE03C0692D70E0A7
S11311B002C06FEF7FEFC5010E94000A4C01F32DBE
S11311C0F0683F2E820133FC1BC0822D90E088160C
S11311D09906B0F4B60180E290E00E94160A2A94BF
S11311E0F4CFF50137FC859137FE81915F01B6019B
S11311F090E00E94160A21102A9421E0821A910894
S11312008114910471F7E8C0843611F0893641F5F0
S1131210F80137FE07C060817181828193810C5F80
S11312201F4F08C060817181072E000C880B990B39
S11312300E5F1F4FF32DFF763F2E97FF09C0909549
S11312408095709561957F4F8F4F9F4FF0683F2E2B
S11312502AE030E0A3010E94520A882E861845C075
S1131260853731F4232D2F7EB22E2AE030E025C0BD
S1131270932D997FB92E8F36C1F018F4883579F003
S1131280B5C0803719F0883721F0B0C0E92FE0618C
S1131290BE2EB4FE0DC0FB2DF460BF2E09C034FE7B
S11312A00AC0292F2660B22E06C028E030E005C00F
S11312B020E130E002C020E132E0F801B7FE07C0CF
S11312C060817181828193810C5F1F4F06C06081B0
S11312D0718180E090E00E5F1F4FA3010E94520ACB
S11312E0882E8618FB2DFF773F2E36FE0DC0232D4A
S11312F02E7FA22E891458F434FE0BC032FC09C090
S1131300832D8E7EA82E05C0B82CA32C03C0B82C28
S113131001C0B92CA4FE0FC0FE01E80DF11D8081AF
S1131320803321F49A2D997EA92E09C0A2FE06C00D
S1131330B394B39404C08A2D867809F0B394A3FCC3
S113134011C0A0FE06C0B21488F4280C922C9B187D
S11313500EC0B21460F4B60180E290E00E94160A56
S1131360B394F7CFB21418F42B1802C0982C212C84
S1131370A4FE10C0B60180E390E00E94160AA2FE0B
S113138017C0A1FC03C088E790E002C088E590E0A4
S1131390B6010CC08A2D867859F0A1FE02C08BE2FA
S11313A001C080E2A7FC8DE2B60190E00E94160A1B
S11313B0891438F4B60180E390E00E94160A9A94E6
S11313C0F7CF8A94F301E80DF11D8081B60190E016
S11313D00E94160A8110F5CF222009F442CEB601EC
S11313E080E290E00E94160A2A94F6CFF6018681E4
S11313F0978102C08FEF9FEF2B96E2E10C94CC0A09
S1131400FC010590615070400110D8F780959095CB
S11314108E0F9F1F0895FC016150704001900110D0
S1131420D8F7809590958E0F9F1F08950F931F9363
S1131430CF93DF93FB01238121FD03C08FEF9FEF47
S11314402CC022FF16C04681578124813581421762
S1131450530744F4A081B1819D012F5F3F4F318335
S113146020838C93268137812F5F3F4F37832683D8
S113147014C08B01EC01FB010084F185E02D09957A
S1131480892BE1F6D80116968D919C9117970196B8
S113149017969C938E931697CE01DF91CF911F914F
S11314A00F910895FA01AA27283051F1203181F1D2
S11314B0E8946F936E7F6E5F7F4F8F4F9F4FAF4F58
S11314C0B1E03ED0B4E03CD0670F781F891F9A1F6B
S11314D0A11D680F791F8A1F911DA11D6A0F711D1F
S11314E0811D911DA11D20D009F468943F912AE02B
S11314F0269F11243019305D3193DEF6CF01089513
S1131500462F4770405D4193B3E00FD0C9F7F6CF43
S1131510462F4F70405D4A3318F0495D31FD40520B
S1131520419302D0A9F7EACFB4E0A69597958795A1
S113153077956795BA95C9F7009761057105089580
S11315409B01AC010A2E069457954795379527952C
S1131550BA95C9F7620F731F841F951FA01D0895C4
S11315602F923F924F925F926F927F928F929F92AF
S1131570AF92BF92CF92DF92EF92FF920F931F939D
S1131580CF93DF93CDB7DEB7CA1BDB0B0FB6F8944E
S1131590DEBF0FBECDBF09942A88398848885F848E
S11315A06E847D848C849B84AA84B984C884DF80FF
S11315B0EE80FD800C811B81AA81B981CE0FD11DE3
S11315C00FB6F894DEBF0FBECDBFED010895F894B9
S10515D0FFCF47
S11315D201456E7465722050617373776F72643A59
S11315E200446973706C6179696E6720616C6C2068
S11315F275736572733A0A0052656D6F74653A20A9
S1131602557365723A2025732C2049443A20256487
S11316120A00456E74657220557365722049443A16
S1131622004C6F67696E20537563636573736675E7
S11316326C0A004572726F723A20496E636F72725D
S11316426563742050617373776F72640A00457224
S1131652726F723A20496E76616C696420557365C3
S113166272204F726465720A005265676973746509
S11316727220617320616E2061646D696E0A004597
S11316826E74657220757365726E616D653A2000C1
S1131692526567697374726174696F6E20737563DE
S11316A26365737366756C0A004572726F723A20D1
S11316B2557365722061727261792069732066754F
S11316C26C6C0A004572726F723A20454550524F53
S11316D24D207772697465206661696C65640A00DD
S11316E252656769737465722061206E657720752F
S11316F27365720A004C616D70204D656E750A0047
S113170243686F6F7365206C616D70206E756D62D6
S1131712657220796F752077616E7420746F2074FE
S113172275726E206F6E2F6F66663A200A00312E34
S1131732204C616D70310A00322E204C616D703282
S11317420A00332E204C616D70330A00342E204C73
S1131752616D70340A00352E204C616D70350A00BB
S1131762362E2044696D6D65720A00496E76616C8D
S113177269642063686F6963652E20506C656173C8
S1131782652074727920616761696E2E0A005B4F6D
S113179246465D005B4F4E5D004143204D656E75CC
S11317A20057726F6E6720496E70757400507265CF
S11317B273732028542920746F207475726E20006C
S11317C255736572204D656E753A0A00312E204CB0
S11317D2616D70730A00322E2041430A00332E20B9
S11317E24C6F676F75740A0041646D696E204D65B4
S11317F26E753A0A00312E205265676973746572F8
S11318022055736572202852656D6F7465290A002C
S1131812322E20526567697374657220557365723E
S113182220284C6F63616C290A00332E20436F6EAB
S113183274726F6C20446F6F7220284F70656E2F24
S1131842436C6F7365290A00342E204C6F676F75E1
S1131852740A0053797374656D206973207374611B
S11318627274696E6720696E2072656D6F7465208B
S10918726D6F64650A00BD
S9030000FC
