:100000000C9431000C944E000C944E000C944E0055
:100010000C9446040C941D040C944E000C944E0059
:100020000C944E000C94CF030C9489030C94600341
:100030000C944E000C944E000C944E000C944E0008
:100040000C944E000C944E000C944E000C944E00F8
:100050000C944E00F407F807FC0700080408080891
:100060000B0811241FBECFE5D8E0DEBFCDBF14E0E2
:10007000A0E6B0E0E6EDF2E202C005900D92AE30EF
:10008000B107D9F725E0AEE0B4E001C01D92A73D6D
:10009000B207E1F70E9450000C9469110C94000023
:1000A0000E949C040E94D3040E9406050E94090934
:1000B0000E94BA040E940D050E94DD080E94660C91
:1000C000F7CF41E066E080E00E94E801089541E05A
:1000D00066E080E00E945D02089540E066E080E016
:1000E0000E945D0208950E9493010895CF93C82F46
:1000F0000E949801EC2FF0E0E25FFB4F908181E0DD
:1001000089278083CF91089541E064E082E00E94D6
:100110005D0285E08A95F1F7000040E064E082E04E
:100120000E945D028FE39FE10197F1F700C000009C
:100130000895CF93C82F40E066E082E00E945D0200
:10014000C4FB442740F960E082E00E945D02C5FBE9
:10015000442740F961E082E00E945D02C6FB44272B
:1001600040F962E082E00E945D024C2F441F442768
:10017000441F63E082E00E945D020E9484004C2FD5
:10018000417060E082E00E945D02C1FB442740F9BB
:1001900061E082E00E945D02C2FB442740F962E018
:1001A00082E00E945D02C3FB442740F963E082E0E5
:1001B0000E945D020E948400CF910895CF93C82FC2
:1001C00041E066E082E00E945D02C4FB442740F902
:1001D00060E082E00E945D02C5FB442740F961E0D7
:1001E00082E00E945D02C6FB442740F962E082E0A3
:1001F0000E945D024C2F441F4427441F63E082E0AD
:100200000E945D020E9484004C2F417060E082E0F9
:100210000E945D02C1FB442740F961E082E00E9438
:100220005D02C2FB442740F962E082E00E945D0269
:10023000C3FB442740F963E082E00E945D020E9414
:100240008400CF910895882319F0813031F008950A
:1002500080E8860F0E949900089580EC860F0E9426
:10026000990008950E94DE0008950F931F93CF9385
:10027000FC018081882359F08F01C0E00E94DE00DC
:10028000CF5FF801EC0FF11D80818111F7CFCF9185
:100290001F910F9108950F931F93CF93DF93CDB7C5
:1002A000DEB7A1970FB6F894DEBF0FBECDBF9F9308
:1002B0008F9383E990E09F938F938E010F5F1F4F81
:1002C0001F930F930E947F0EC8010E9435010F906B
:1002D0000F900F900F900F900F90A1960FB6F8947B
:1002E000DEBF0FBECDBFDF91CF911F910F9108955B
:1002F0000E94D501089585E00E94DB01BC0180E0E9
:1003000090E00E94100D2AE137E64CE950E40E948B
:100310009E0D20E030E040E251E40E946F0C0E940C
:10032000E10CCB01089580911304109213040895F9
:100330008330A9F028F4813041F0823059F00895DB
:10034000843091F08530A9F0089560E080E00E944B
:10035000D202089561E080E00E94D202089562E036
:1003600080E00E94D202089563E080E00E94D20201
:10037000089564E080E00E94D2020895CF92EF9247
:100380000F93CF93C22F0E94E8018C2D0E9402048C
:100390004E2D602F8C2F0E94F803CF910F91EF907C
:1003A000CF9008950E9406040895379A86B1876019
:1003B00086B93E9A089597B1907E97B997B1892BE7
:1003C00087B9369A349BFECF349A84B195B108959B
:1003D000813011F130F08230D1F1833009F452C014
:1003E0000895413059F42AB381E090E002C0880FAB
:1003F000991F6A95E2F7822B8ABB089541115CC070
:100400002AB381E090E002C0880F991F6A95E2F755
:10041000809582238ABB0895413059F427B381E047
:1004200090E002C0880F991F6A95E2F7822B87BB84
:100430000895411141C027B381E090E002C0880FC8
:10044000991F6A95E2F78095822387BB0895413012
:1004500059F424B381E090E002C0880F991F6A9597
:10046000E2F7822B84BB0895411126C024B381E0BA
:1004700090E002C0880F991F6A95E2F78095822369
:1004800084BB0895413059F421B381E090E002C06B
:10049000880F991F6A95E2F7822B81BB089541115D
:1004A0000BC021B381E090E002C0880F991F6A95CC
:1004B000E2F78095822381BB0895813011F130F0FD
:1004C0008230D1F1833009F452C00895413059F49B
:1004D0002BB381E090E002C0880F991F6A95E2F784
:1004E000822B8BBB089541115CC02BB381E090E05F
:1004F00002C0880F991F6A95E2F7809582238BBB13
:100500000895413059F428B381E090E002C0880F8B
:10051000991F6A95E2F7822B88BB0895411141C06B
:1005200028B381E090E002C0880F991F6A95E2F736
:100530008095822388BB0895413059F425B381E02A
:1005400090E002C0880F991F6A95E2F7822B85BB65
:100550000895411126C025B381E090E002C0880FC4
:10056000991F6A95E2F78095822385BB08954130F3
:1005700059F422B381E090E002C0880F991F6A9578
:10058000E2F7822B82BB089541110BC022B381E0B8
:1005900090E002C0880F991F6A95E2F78095822348
:1005A00082BB0895813089F028F08230C9F0833011
:1005B00011F108952BB381E090E002C0880F991FDC
:1005C0006A95E2F782278BBB089528B381E090E01B
:1005D00002C0880F991F6A95E2F7822788BB0895A9
:1005E00025B381E090E002C0880F991F6A95E2F779
:1005F000822785BB089522B381E090E002C0880F76
:10060000991F6A95E2F7822782BB0895E199FECF90
:1006100080931E006DBBE29AE19A0895E199FECFA6
:1006200080931E00E09A8DB30895EF92FF920F938E
:100630001F93CF93DF93EB014423A1F0082F192FD1
:100640004150E42EF12C8FEFE81AF80AE60EF71E5F
:10065000F80161918F01CE010E9406032196CE150B
:10066000DF05B1F7DF91CF911F910F91FF90EF90D0
:100670000895EF92FF920F931F93CF93DF938C0116
:10068000EB01442391F04150E42EF12C8FEFE81A56
:10069000F80AE60EF71ECE010E940E03F8018193C0
:1006A0008F012196EC16FD06B1F7DF91CF911F91D6
:1006B0000F91FF90EF9008958FB780688FBF0895D6
:1006C0001F920F920FB60F9211242F933F934F93C7
:1006D0005F936F937F938F939F93AF93BF93EF93AA
:1006E000FF93E0911604F0911704309709F00995F3
:1006F000FF91EF91BF91AF919F918F917F916F91FA
:100700005F914F913F912F910F900FBE0F901F90CF
:1007100018951F920F920FB60F9211242F933F93AB
:100720004F935F936F937F938F939F93AF93BF93F9
:10073000EF93FF93E0911404F0911504309709F0C2
:100740000995FF91EF91BF91AF919F918F917F910B
:100750006F915F914F913F912F910F900FBE0F902E
:100760001F90189593B7892B83BF83B7682B63BFFE
:100770000895682F70E080E090E00E94100D20E066
:1007800030E048EC52E40E946F0C20E030E04FE78C
:1007900053E40E949E0D0E94E10C6CBF08951F92CD
:1007A0000F920FB60F9211242F933F934F935F93A5
:1007B0006F937F938F939F93AF93BF93EF93FF9329
:1007C000E0911804F0911904309709F00995FF9110
:1007D000EF91BF91AF919F918F917F916F915F91B9
:1007E0004F913F912F910F900FBE0F901F90189532
:1007F0009FB5892B8FBD8EB5682B6EBD8EB5482BEE
:100800004EBD089590E097BD86BD089590E09BBDD4
:100810008ABD089595B5892B85BD089595B5892B19
:1008200085BD089584BD089589B7806489BF089502
:1008300090931D0480931C0408951F920F920FB68D
:100840000F9211242F933F934F935F936F937F9356
:100850008F939F93AF93BF93EF93FF93E0911C040B
:10086000F0911D04309709F00995FF91EF91BF9128
:10087000AF919F918F917F916F915F914F913F9138
:100880002F910F900FBE0F901F9018951F920F92EF
:100890000FB60F9211242F933F934F935F936F9353
:1008A0007F938F939F93AF93BF93EF93FF93E091C9
:1008B0001A04F0911B04309709F00995FF91EF910C
:1008C000BF91AF919F918F917F916F915F914F9168
:1008D0003F912F910F900FBE0F901F90189589B9DF
:1008E00090BD539A549A8EEA80BD08955D9BFECFC9
:1008F0008CB90895CF93DF93EC018881882331F080
:1009000021960E94760489918111FBCFDF91CF91CE
:1009100008955F9BFECF8CB10895CF93DF93EC01D8
:100920008881882331F00E9489048993888181110C
:10093000FACFDF91CF9108950E9461000E94780163
:100940000895EEE1F4E0908181E0892780830895A5
:10095000EEE1F4E0DC0111962C91119721831296BF
:100960008C918283089560911E0470911F04809180
:100970002004089580911E04882391F0813091F421
:100980000E947B0190911F04981718F40E94670041
:10099000089590912004891728F40E946D0008950D
:1009A0000E946D000895CF92DF92EF920F930F2E69
:1009B000F7E8CF2EF3E1DF2EF02D0F2EF3E0EF2E30
:1009C000F02D08E122E841E065E083E00E94BE01ED
:1009D0000F91EF90DF90CF90089588E592E00E940C
:1009E000D20181E08093210408958EE591E00E9478
:1009F000D20110922104089580912104811103C035
:100A00000E94ED0408950E94F504089561E080E7D6
:100A10000E94B2030E94D501089580916000813048
:100A2000D1F487E00E94DB01682F70E080E090E065
:100A30000E94100D20E030E04FE753E40E946F0C5D
:100A400020E030E048EC52E40E949E0D0E94E10C50
:100A5000862F0E94B90308959091600081E0892754
:100A6000809360000895CF92DF92EF92FF920F93F0
:100A70001F93CF93DF936C01062F82E690E00E94D4
:100A80003501C0E010E0015011090F2EF3E8EF2E00
:100A9000F0E0FF2EF02D49C00E9473008434E1F491
:100AA000C83009F448C081E00E94990082E790E0D4
:100AB0000E9435012FEF83ED90E32150804090405C
:100AC000E1F700C0000081E00E94990082E690E01A
:100AD0000E943501C0E029C08334C9F4CC2329F138
:100AE000DFEFDC0FF601ED0FF11D108281E00E94B7
:100AF000990082E690E00E943501DD23A9F0C0E074
:100B00008E2D0E943201CF5FDC13FACF0EC090ED24
:100B1000980F9A3050F4F601EC0FF11D8083CF5FEF
:100B20008E2D0E94320101C0CD2F8C2F90E08017B6
:100B300091070CF4B1CFF601EC0FF11D1082DF919B
:100B4000CF911F910F91FF90EF90DF90CF9008957C
:100B5000AF92BF92CF92DF92EF92FF921F93CF930B
:100B6000DF931F92CDB7DEB75C016A017B0141E0E4
:100B700060E070E0CE0101960E94390319811A30BD
:100B800030F54FE050E0B50183E394E00E94380E69
:100B9000E3E3F4E0C08AD18AE28AF38A81E0810F3C
:100BA000848B85E1189FB00111246F5F7F4F45E171
:100BB000CF010E94150389818F5F898341E060E046
:100BC00070E0CE0101960E94150380E001C081E033
:100BD0000F90DF91CF911F91FF90EF90DF90CF901A
:100BE000BF90AF9008959FEF980F9A3088F4FB0163
:100BF000282F30E02150310985E1829FB001839F89
:100C0000700D11246F5F7F4F45E1CF010E943903C2
:100C10000895BF92CF92DF92EF92FF920F931F93AE
:100C2000CF93DF93CDB7DEB7E2970FB6F894DEBF70
:100C30000FBECDBF182F062F81E00E94990010171C
:100C400088F51A3078F51F5F0F2EF5E8CF2EF0E00B
:100C5000DF2EF02D0F2EF2E3BF2EF02DCE010196E8
:100C60007C0163E374E0812F0E94F305E3E3F4E089
:100C700084891F928F93FF93EF93DF92CF921F92FD
:100C8000BF92FF92EF920E944F0EC7010E94350162
:100C90000FB6F894DEBF0FBECDBF101719F01F5F5F
:100CA0001B30F9F6E2960FB6F894DEBF0FBECDBF4B
:100CB000DF91CF911F910F91FF90EF90DF90CF9038
:100CC000BF900895CF93DF93CDB7DEB764970FB68B
:100CD000F894DEBF0FBECDBF86E990E00E943501DB
:100CE0000E9473009FEF980F9A3020F563E374E041
:100CF0000E94F30582E690E00E94350164E1CE0196
:100D000001960E9433056091430470914404CE0122
:100D100001960E942F0E892B41F485EA90E00E94F3
:100D2000350181E08093220409C086EB90E00E94A7
:100D3000350104C080ED90E00E94350164960FB645
:100D4000F894DEBF0FBECDBFDF91CF910895CF9352
:100D5000DF93C2E0D0E06C2F8D2F0E9409060E9425
:100D60007300813429F4D23058F0D250C25008C0F8
:100D7000823431F4CB3020F4DE5FCE5FCA3051F0E4
:100D80002FEF83EC99E0215080409040E1F700C0C4
:100D90000000E1CF0E946206DF91CF91089580911B
:100DA00022040895109222040895809123048F5FF5
:100DB0008093230486E00E9412040895FC01808140
:100DC000882319F0813049F0089560E080E00E94A6
:100DD00023018EE30E943201089560E081E00E94C9
:100DE00023018EE30E9432010895CF93DF93EC013B
:100DF00061E080E00E9423018881882319F081301E
:100E000071F019C08AEE90E00E94350161E081E046
:100E10000E94230185EF90E00E9435010CC085EF10
:100E200090E00E94350161E081E00E94230180E0B2
:100E300091E00E943501DF91CF9108950F931F93A8
:100E4000CF93DF93EC018B0161E080E00E942301EE
:100E50008881882319F0813009F134C086E491E05B
:100E60000E943501F8018081811103C08DE091E07D
:100E700002C088E091E00E94350161E081E00E94BB
:100E800023018AE491E00E943501F801818190E01C
:100E90000E944B0183E40E94320114C084E591E07A
:100EA0000E943501F801828190E00E944B0183E4A9
:100EB0000E94320161E081E00E9423018FE391E012
:100EC0000E943501DF91CF911F910F9108950F93EB
:100ED0001F93CF938C010E947300C82F882359F071
:100EE00081E00E9499008EE294E00E94F5068DE276
:100EF00094E00E94DE06C23481F0C434C9F0C134EB
:100F000079F580912E04882321F0815080932E045E
:100F100027C081E080932E0423C080912E0481118C
:100F200004C081E080932E041BC010922E0418C0D0
:100F300020912E0480912D0490E0820F911D81302C
:100F4000910541F08230910549F0892B49F4F8016F
:100F5000108206C081E0F801808302C00E94D206A0
:100F6000CF911F910F9108950F931F93CF938C01F1
:100F70000E947300C82F882359F081E00E949900D5
:100F800085E294E00E94F50684E294E00E94DE0689
:100F9000C23489F0C334D1F0C13409F03FC080912C
:100FA0002504882321F081508093250437C085E0F3
:100FB0008093250433C080912504853020F48F5F11
:100FC000809325042BC01092250428C0809125040D
:100FD000E0912404F0E0E80FF11DE730F105F0F4B2
:100FE000E65DFF4F0C940B0E81E00E94760016C068
:100FF00082E00E94760012C083E00E9476000EC05C
:1010000084E00E9476000AC085E00E94760006C057
:101010000E942C0503C083E0F8018083CF911F91CB
:101020000F9108950F931F93CF93DF93EC018B01E2
:101030000E947300823441F0833451F0813451F4C2
:1010400088818F5F888306C088818150888302C031
:10105000F8011082DF91CF911F910F910895CF93E6
:10106000DF93EC0180912C04811104C00E94730075
:1010700080932B0480912B048823A9F00E94B30451
:10108000609328047093290480932A0481E00E94CD
:10109000990068E274E087E294E00E941E0786E20D
:1010A00094E00E94DE0680912B04823489F0833420
:1010B000D1F0813409F06DC080912704882321F09C
:1010C00081508093270465C081E08093270461C02C
:1010D00080912704811104C081E08093270459C0C6
:1010E0001092270456C0209127048091260490E096
:1010F000820F911D8130910571F01CF4892B41F014
:1011000048C08230910529F1039709F440C041C0DD
:101110000E94A1043EC081E080932C046CE274E044
:1011200089E294E00E941208E8E2F4E081818132D1
:1011300008F080E290912A04891708F4892F8183AE
:1011400080912C04811125C088E294E00E94A804BB
:1011500020C081E080932C046CE274E08AE294E089
:101160000E941208E8E2F4E08281823108F482E110
:1011700090912904981708F4892F828380912C0478
:10118000811107C088E294E00E94A80402C083E0B5
:101190008883DF91CF91089581E00E9499008FE5C7
:1011A00091E00E94350167E081E00E942301809177
:1011B000300490E00E944B0108950E94CF068823DE
:1011C000D1F080912F0481111EC080916100813087
:1011D00041F060F08330E1F481E690E00E9467071F
:1011E000089581E690E00E942F08089581E690E03E
:1011F0000E94B407089580912F04811104C00E94B9
:10120000910A882319F00E94CC0808950E94A7062D
:1012100008950E945C0380E00E940A0486E00E9418
:10122000120485ED96E00E9418040E94140483E0E5
:101230000E940E04089587E690E00E946F040895CE
:10124000CF92DF92EF92FF920F931F93CF93DF9392
:101250007C01062F8FE691E00E947A04C0E010E046
:10126000015011090F2EF3E8CF2EF0E0DF2EF02D04
:1012700042C00E9489048A3011F08D30B1F4C83028
:1012800009F43FC080E891E00E947A042FEF83EDDB
:1012900090E3215080409040E1F700C000008FE6CD
:1012A00091E00E947A04C0E026C08830B1F4CC23DB
:1012B00011F1DFEFDC0FF701ED0FF11D10828FE66A
:1012C00091E00E947A04DD23A9F0C0E08C2D0E94F9
:1012D0007604CF5FDC13FACF0EC090ED980F9A30F2
:1012E00050F4F701EC0FF11D8083CF5F8C2D0E942D
:1012F000760401C0CD2F8C2F90E0801791070CF45D
:10130000B8CFF701EC0FF11D1082DF91CF911F9143
:101310000F91FF90EF90DF90CF900895AF92BF9222
:10132000CF92DF92EF92FF921F93CF93DF931F92A2
:10133000CDB7DEB75C016A017B0141E063ED70E08F
:10134000CE0101960E94390319811A3030F54FE021
:1013500050E0B50185E095E00E94380EE5E0F5E04B
:10136000C08AD18AE28AF38A81E0810F848B85E189
:10137000189FB00111246C527F4F45E1CF010E94AC
:10138000150389818F5F898341E063ED70E0CE01B1
:1013900001960E94150380E001C081E00F90DF916B
:1013A000CF911F91FF90EF90DF90CF90BF90AF90C3
:1013B00008959FEF980F9A3088F4FB01282F30E0B2
:1013C0002150310985E1829FB001839F700D112466
:1013D0006C527F4F45E1CF010E9439030895AF92CF
:1013E000BF92CF92DF92EF92FF920F931F93CF9312
:1013F000DF93CDB7DEB7E2970FB6F894DEBF0FBE2E
:10140000CDBF82E991E00E947A0405E015E0F12C5D
:101410000F2EF9EAAF2EF1E0BF2EF02D0F2EF2E3E2
:10142000EF2EF02DCE0101966C01F39465E075E08E
:101430008F2D0E94D909F80184891F928F931F93E1
:101440000F93BF92AF921F92EF92DF92CF920E94C2
:101450004F0EC6010E947A040B5E1F4F0FB6F89420
:10146000DEBF0FBECDBF9AE0F912DFCFE2960FB616
:10147000F894DEBF0FBECDBFDF91CF911F910F91CA
:10148000FF90EF90DF90CF90BF90AF9008951F93A3
:10149000CF93DF93CDB7DEB764970FB6F894DEBF76
:1014A0000FBECDBF86E990E00E947A040E948904B5
:1014B000182F8FEF810F8A3028F565E075E0812FB6
:1014C0000E94D90982E690E00E947A0464E1CE018C
:1014D00001960E9420096091150570911605CE01B4
:1014E00001960E942F0E892B41F483EC91E00E941B
:1014F0007A0481E08093310409C085ED91E00E9477
:101500007A0404C080EF91E00E947A04812F6496EF
:101510000FB6F894DEBF0FBECDBFDF91CF911F9104
:101520000895809131040895109231040895CF9365
:10153000DF93CDB7DEB769970FB6F894DEBF0FBE65
:10154000CDBF80913204811134C00E941B098BE011
:1015500092E00E947A0481E292E00E947A04CE0135
:1015600001960E948D0469E0CE0141960E942009F7
:10157000CE0141960E94110EAC01990F660B770BBC
:10158000CE0101960E948E09811105C082E392E08E
:101590000E947A040BC0813029F48BE492E00E940F
:1015A0007A0404C086E692E00E947A0481E0809387
:1015B000320469960FB6F894DEBF0FBECDBFDF913F
:1015C000CF910895CF93DF93CDB7DEB769970FB66C
:1015D000F894DEBF0FBECDBF82E892E00E947A048D
:1015E00081E292E00E947A04CE0101960E948D046D
:1015F00069E0CE0141960E942009CE0141960E94E9
:10160000110EAC01990F660B770BCE0101960E946B
:101610008E09811105C082E392E00E947A040BC01A
:10162000813029F48BE492E00E947A0404C086E6BB
:1016300092E00E947A0469960FB6F894DEBF0FBE5E
:10164000CDBFDF91CF910895CF93DF93CDB7DEB7B4
:1016500069970FB6F894DEBF0FBECDBF82E892E067
:101660000E947A0481E292E00E947A04CE010196FF
:101670000E948D0469E0CE0141960E942009CE01AE
:1016800041960E94110EAC01990F660B770BCE01AB
:1016900001960E94A805811105C082E392E00E9494
:1016A0007A040BC0813029F48BE492E00E947A0422
:1016B00004C086E692E00E947A0469960FB6F89418
:1016C000DEBF0FBECDBFDF91CF91089587E992E0D5
:1016D0000E947A0482EA92E00E947A0480ED92E00D
:1016E0000E947A048AED92E00E947A0484EE92E0ED
:1016F0000E947A048EEE92E00E947A0488EF92E0D3
:101700000E947A0482E093E00E947A040E94890495
:101710008330A1F028F4813049F0823059F01DC0A7
:101720008530A1F078F08630A9F017C081E00E94E2
:101730007600089582E00E947600089583E00E947A
:101740007600089584E00E947600089585E00E9466
:10175000760008950E942C0508958DE093E00E9484
:101760007A04089580E393E00E947A040E94B3040F
:1017700061111AC00EC00E947A040E948904843547
:1017800019F40E94A104089588E393E00E947A046A
:1017900008958DE091E00E947A0484E493E00E9431
:1017A0007A0488E091E0E7CF88E091E00E947A0433
:1017B00084E493E00E947A048DE091E0DCCF87E539
:1017C00093E00E947A0483E693E00E947A048DE617
:1017D00093E00E947A0484E793E00E947A040E94D6
:1017E0008904823339F0833341F0813359F40E9404
:1017F000660BE5CF0E94B20BE2CF0E94940A0E94D2
:10180000070C08958DE093E00E947A04D8CFCF931F
:10181000DF93CDB7DEB765970FB6F894DEBF0FBE86
:10182000CDBF0E94EF090E94470ABE016F5F7F4F44
:101830000E94D9098D89813039F40E94910A882348
:1018400019F00E94320C05C00E94910A81110E9479
:10185000DF0B65960FB6F894DEBF0FBECDBFDF91EC
:10186000CF9108958FE793E00E947A048CE893E08B
:101870000E947A0487EA93E00E947A0481EC93E064
:101880000E947A048FED93E00E947A040E948904FA
:10189000823361F018F4813331F013C0833349F09F
:1018A000843351F00EC00E94E20ADCCF0E94240B68
:1018B000D9CF0E94FC04D6CF0E94940A0E94070C44
:1018C00008958DE093E00E947A04CCCF8AEE93E0F5
:1018D0000E947A040E94970A0E94070C08950E94B1
:1018E000830C0C94640D0E945D0D58F00E94560DFF
:1018F00040F029F45F3F29F00C944D0D51110C94E8
:10190000980D0C94530D0E94750D68F39923B1F353
:10191000552391F3951B550BBB27AA276217730715
:10192000840738F09F5F5F4F220F331F441FAA1FA9
:10193000A9F335D00E2E3AF0E0E832D09150504065
:10194000E695001CCAF72BD0FE2F29D0660F771F13
:10195000881FBB1F261737074807AB07B0E809F0F9
:10196000BB0B802DBF01FF2793585F4F3AF09E3F7E
:10197000510578F00C944D0D0C94980D5F3FE4F3F5
:10198000983ED4F3869577956795B795F7959F5FC1
:10199000C9F7880F911D9695879597F90895E1E00D
:1019A000660F771F881FBB1F621773078407BA076C
:1019B00020F0621B730B840BBA0BEE1F88F7E095C7
:1019C00008950E947D0D88F09F5798F0B92F9927B0
:1019D000B751B0F0E1F0660F771F881F991F1AF01A
:1019E000BA95C9F714C0B13091F00E94970DB1E0DB
:1019F00008950C94970D672F782F8827B85F39F0DA
:101A0000B93FCCF3869577956795B395D9F73EF4B2
:101A100090958095709561957F4F8F4F9F4F08955A
:101A2000E89409C097FB3EF4909580957095619578
:101A30007F4F8F4F9F4F9923A9F0F92F96E9BB272E
:101A40009395F695879577956795B795F111F8CFAA
:101A5000FAF4BB0F11F460FF1BC06F5F7F4F8F4F15
:101A60009F4F16C0882311F096E911C0772321F00B
:101A70009EE8872F762F05C0662371F096E8862FA3
:101A800070E060E02AF09A95660F771F881FDAF7FA
:101A9000880F9695879597F9089597F99F6780E83D
:101AA00070E060E008959FEF80EC089500240A94B0
:101AB0001616170618060906089500240A94121629
:101AC0001306140605060895092E0394000C11F45C
:101AD000882352F0BB0F40F4BF2B11F460FF04C009
:101AE0006F5F7F4F8F4F9F4F089557FD9058440F62
:101AF000551F59F05F3F71F04795880F97FB991F6D
:101B000061F09F3F79F08795089512161306140629
:101B1000551FF2CF4695F1DF08C0161617061806B6
:101B2000991FF1CF86957105610508940895E89491
:101B3000BB2766277727CB0197F908950E94B10D3F
:101B40000C94640D0E94560D38F00E945D0D20F03B
:101B5000952311F00C944D0D0C94530D11240C94FD
:101B6000980D0E94750D70F3959FC1F3950F50E08D
:101B7000551F629FF001729FBB27F00DB11D639F3F
:101B8000AA27F00DB11DAA1F649F6627B00DA11DE5
:101B9000661F829F2227B00DA11D621F739FB00D8B
:101BA000A11D621F839FA00D611D221F749F3327FB
:101BB000A00D611D231F849F600D211D822F762F94
:101BC0006A2F11249F5750409AF0F1F088234AF071
:101BD000EE0FFF1FBB1F661F771F881F91505040DD
:101BE000A9F79E3F510580F00C944D0D0C94980D73
:101BF0005F3FE4F3983ED4F3869577956795B79564
:101C0000F795E7959F5FC1F7FE2B880F911D96957D
:101C1000879597F90895EE0FFF1F0590F491E02D39
:101C20000994FC0188279927E89421912032E9F34F
:101C3000293010F02E30C8F32B3241F02D3239F418
:101C4000689404C00E94470E820F911D2191205379
:101C50002A30C0F31EF4909581959F4F0895FB01A3
:101C6000DC018D91019080190110D9F3990B089531
:101C7000FB01DC014150504048F001900D920020E2
:101C8000C9F701C01D9241505040E0F708957AE035
:101C9000979F902D879F802D910D11240895AEE080
:101CA000B0E0E5E5FEE00C9440110D891E898F89B6
:101CB000988D26E02C831A83098397FF02C080E069
:101CC00090E801979E838D83AE01455E5F4F698DDD
:101CD0007A8DCE0101960E94A10E4D815E8157FD45
:101CE0000AC02F813885421753070CF49A01F80176
:101CF000E20FF31F10822E96E4E00C945C11AEE02C
:101D0000B0E0E5E8FEE00C9440110D891E8986E004
:101D10008C831A8309838FEF9FE79E838D83AE01A7
:101D2000475E5F4F6F89788DCE0101960E94A10EAC
:101D3000EF81F885E00FF11F10822E96E4E00C94FD
:101D40005C11ABE0B0E0E7EAFEE00C9432116C010C
:101D50007B018A01FC0117821682838181FFCCC13D
:101D6000CE0101963C01F6019381F70193FD859127
:101D700093FF81917F01882309F4BAC1853239F438
:101D800093FD859193FF81917F01853229F4B601FE
:101D900090E00E949810E7CF912C212C312CFFE18C
:101DA000F315D8F08B3279F038F4803279F0833241
:101DB000A1F4232D20611DC08D3261F0803369F4C0
:101DC000232D216016C0832D8260382EE32DE46020
:101DD0003E2E2AC0F32DF8601DC037FC2DC020ED2B
:101DE000280F2A3040F08E32B9F436FC81C1232D01
:101DF0002064322E19C036FE06C08AE0989E200D5F
:101E00001124922E11C0EAE02E9E200D1124222EC4
:101E1000F32DF0623F2E08C08C3621F4832D8068AC
:101E2000382E02C0883641F4F70193FD859193FF67
:101E300081917F018111B3CF982F9F7D955493306D
:101E400028F40C5F1F4F9FE399830DC0833631F058
:101E5000833771F0833509F059C021C0F8018081C2
:101E600089830E5F1F4F88248394912C530113C0E4
:101E70002801F2E04F0E511CF801A080B18036FE1F
:101E800003C0692D70E002C06FEF7FEFC5010E94B3
:101E90008D104C018201F32DFF773F2E16C02801D3
:101EA00022E0420E511CF801A080B18036FE03C032
:101EB000692D70E002C06FEF7FEFC5010E948210B4
:101EC0004C01F32DF0683F2E820133FC1BC0822DA4
:101ED00090E088169906B0F4B60180E290E00E9486
:101EE00098102A94F4CFF50137FC859137FE819143
:101EF0005F01B60190E00E94981021102A9421E021
:101F0000821A91088114910471F7E8C0843611F0A7
:101F1000893641F5F80137FE07C060817181828101
:101F200093810C5F1F4F08C060817181072E000CE8
:101F3000880B990B0E5F1F4FF32DFF763F2E97FFF7
:101F400009C090958095709561957F4F8F4F9F4FF9
:101F5000F0683F2E2AE030E0A3010E94D410882EC2
:101F6000861845C0853731F4232D2F7EB22E2AE006
:101F700030E025C0932D997FB92E8F36C1F018F42B
:101F8000883579F0B5C0803719F0883721F0B0C0B6
:101F9000E92FE061BE2EB4FE0DC0FB2DF460BF2E14
:101FA00009C034FE0AC0292F2660B22E06C028E0E0
:101FB00030E005C020E130E002C020E132E0F8016D
:101FC000B7FE07C060817181828193810C5F1F4FD2
:101FD00006C06081718180E090E00E5F1F4FA30119
:101FE0000E94D410882E8618FB2DFF773F2E36FED8
:101FF0000DC0232D2E7FA22E891458F434FE0BC061
:1020000032FC09C0832D8E7EA82E05C0B82CA32CCF
:1020100003C0B82C01C0B92CA4FE0FC0FE01E80D0E
:10202000F11D8081803321F49A2D997EA92E09C05B
:10203000A2FE06C0B394B39404C08A2D867809F03A
:10204000B394A3FC11C0A0FE06C0B21488F4280CFF
:10205000922C9B180EC0B21460F4B60180E290E09E
:102060000E949810B394F7CFB21418F42B1802C042
:10207000982C212CA4FE10C0B60180E390E00E94B1
:102080009810A2FE17C0A1FC03C088E790E002C030
:1020900088E590E0B6010CC08A2D867859F0A1FE43
:1020A00002C08BE201C080E2A7FC8DE2B60190E0A5
:1020B0000E949810891438F4B60180E390E00E94E1
:1020C00098109A94F7CF8A94F301E80DF11D80815E
:1020D000B60190E00E9498108110F5CF222009F4FB
:1020E00042CEB60180E290E00E9498102A94F6CF8A
:1020F000F6018681978102C08FEF9FEF2B96E2E178
:102100000C944E11FC010590615070400110D8F7FD
:10211000809590958E0F9F1F0895FC01615070402F
:1021200001900110D8F7809590958E0F9F1F08950C
:102130000F931F93CF93DF93FB01238121FD03C0F6
:102140008FEF9FEF2CC022FF16C04681578124815C
:1021500035814217530744F4A081B1819D012F5F5F
:102160003F4F318320838C93268137812F5F3F4FF0
:102170003783268314C08B01EC01FB010084F185B9
:10218000E02D0995892BE1F6D80116968D919C9149
:102190001797019617969C938E931697CE01DF9111
:1021A000CF911F910F910895FA01AA27283051F17C
:1021B000203181F1E8946F936E7F6E5F7F4F8F4F78
:1021C0009F4FAF4FB1E03ED0B4E03CD0670F781FD7
:1021D000891F9A1FA11D680F791F8A1F911DA11DBC
:1021E0006A0F711D811D911DA11D20D009F46894F5
:1021F0003F912AE0269F11243019305D3193DEF69D
:10220000CF010895462F4770405D4193B3E00FD052
:10221000C9F7F6CF462F4F70405D4A3318F0495D3D
:1022200031FD4052419302D0A9F7EACFB4E0A69520
:102230009795879577956795BA95C9F70097610542
:10224000710508959B01AC010A2E06945795479598
:1022500037952795BA95C9F7620F731F841F951F8D
:10226000A01D08952F923F924F925F926F927F929E
:102270008F929F92AF92BF92CF92DF92EF92FF9296
:102280000F931F93CF93DF93CDB7DEB7CA1BDB0B42
:102290000FB6F894DEBF0FBECDBF09942A883988E7
:1022A00048885F846E847D848C849B84AA84B984EE
:1022B000C884DF80EE80FD800C811B81AA81B981FA
:1022C000CE0FD11D0FB6F894DEBF0FBECDBFED010E
:0622D0000895F894FFCF11
:1022D6000103456E7465722050617373776F726483
:1022E6003A00496E76616C69642050617373776F4A
:1022F6007264002A00557365723A2025732C2049B2
:10230600443A20256400456E7465722055736572E3
:102316002049443A004C6F67696E205375636365C4
:10232600737366756C004572726F723A20496E63FC
:102336006F72726563742050617373776F72640095
:102346004572726F723A20496E76616C69642055E7
:10235600736572204F72646572004C4544204F4E7F
:102366002F4F464600414320436F6E74726F6C00D8
:102376004C6F672D6F7574005B4F4E5D005B4F466B
:10238600465D004C616D703120004C616D703220ED
:10239600004C616D703320004C616D703420004C30
:1023A600616D7035200044696D4C616D702000527E
:1023B600657475726E004143200052756E20546537
:1023C6006D703A0053746F702054656D703A0061F9
:1023D600637469766520646576696365733A00455A
:1023E6006E7465722050617373776F72643A0A0077
:1023F600496E76616C69642050617373776F72649D
:102406000A00446973706C6179696E6720616C6C4F
:102416002075736572733A0A0052656D6F74653A7A
:1024260020557365723A2025732C2049443A20259D
:10243600640A004C6F67696E205375636365737336
:1024460066756C0A004572726F723A20496E636F48
:1024560072726563742050617373776F72640A00D9
:102466004572726F723A20496E76616C69642055C6
:10247600736572204F726465720A005265676973EC
:1024860074657220617320616E2061646D696E0AE5
:1024960000456E74657220757365726E616D653A7E
:1024A6002000526567697374726174696F6E207378
:1024B60075636365737366756C0A004572726F7235
:1024C6003A205573657220617272617920697320B2
:1024D60066756C6C0A004572726F723A20454550FB
:1024E600524F4D207772697465206661696C656428
:1024F6000A0052656769737465722061206E65779C
:1025060020757365720A004C616D70204D656E759D
:102516000A0043686F6F7365206C616D70206E757D
:102526006D62657220796F752077616E7420746FA5
:10253600207475726E206F6E2F6F66663A200A00E1
:10254600312E204C616D70310A00322E204C616DA7
:1025560070320A00332E204C616D70330A00342E1F
:10256600204C616D70340A00352E204C616D70353B
:102576000A00362E2044696D6D65720A00496E7632
:10258600616C69642063686F6963652E20506C65B1
:102596006173652074727920616761696E2E0A0025
:1025A6004143204D656E750057726F6E6720496E08
:1025B6007075740050726573732028542920746FE7
:1025C600207475726E200055736572204D656E75A8
:1025D6003A0A00312E204C616D70730A00322E20AB
:1025E60041430A00332E204C6F676F75740A004111
:1025F600646D696E204D656E753A0A00312E205263
:102606006567697374657220557365722028526513
:102616006D6F7465290A00322E20526567697374DE
:102626006572205573657220284C6F63616C290AA8
:1026360000332E20436F6E74726F6C20446F6F727E
:1026460020284F70656E2F436C6F7365290A00341E
:102656002E204C6F676F75740A0053797374656D1D
:10266600206973207374617274696E6720696E20C5
:0E26760072656D6F7465206D6F64650A0000FB
:00000001FF
