S0110000536D617274486F6D652E7372656383
S11300000C942A000C94BD010C94E6010C940F028C
S11300100C94F2020C94C9020C9447000C9447000F
S11300200C9447000C948E020C9465020C943C02D0
S11300300C9447000C9443030C9447000C94470021
S11300400C9447000C9447000C9447000C94470010
S11300500C94470011241FBECFE5D8E0DEBFCDBF0E
S113006012E0A0E6B0E0ECE0F5E102C005900D92EC
S1130070A63FB107D9F725E0A6EFB2E001C01D9273
S1130080AC31B207E1F70E9449000C94840A0C9445
S113009000000E94810387E690E00E941B030E94F7
S11300A0B3040E945F002FEF89EF90E0215080405D
S11300B09040E1F700C000000E947707F4CF0E944F
S11300C070000895CF93C82F0E948A00EC2FF0E0AF
S11300D0EB50FD4F908181E089278083CF91089573
S11300E041E060E080E00E94C70041E061E080E020
S11300F00E94C70041E062E080E00E94C70041E046
S113010063E080E00E94C70041E064E080E00E9478
S1130110C70008958330A9F028F4813041F082307B
S113012059F00895843091F08530A9F0089560E085
S113013080E00E943C01089561E080E00E943C015F
S1130140089562E080E00E943C01089563E080E04D
S11301500E943C01089564E080E00E943C010895FF
S1130160CF92EF920F93CF93C22F0E94C7008C2D92
S11301700E94C1024E2D602F8C2F0E94B702CF9196
S11301800F91EF90CF9008950E94C5020895813099
S113019011F130F08230D1F1833009F452C0089566
S11301A0413059F42AB381E090E002C0880F991FCE
S11301B06A95E2F7822B8ABB089541115CC02AB389
S11301C081E090E002C0880F991F6A95E2F780955C
S11301D082238ABB0895413059F427B381E090E02B
S11301E002C0880F991F6A95E2F7822B87BB089596
S11301F0411141C027B381E090E002C0880F991FEC
S11302006A95E2F78095822387BB0895413059F4BB
S113021024B381E090E002C0880F991F6A95E2F749
S1130220822B84BB0895411126C024B381E090E061
S113023002C0880F991F6A95E2F78095822384BBD8
S11302400895413059F421B381E090E002C0880F51
S1130250991F6A95E2F7822B81BB089541110BC067
S113026021B381E090E002C0880F991F6A95E2F7FC
S11302708095822381BB0895813089F028F08230F3
S1130280C9F0833011F108952BB381E090E002C0EE
S1130290880F991F6A95E2F782278BBB089528B3CC
S11302A081E090E002C0880F991F6A95E2F78227E7
S11302B088BB089525B381E090E002C0880F991FA0
S11302C06A95E2F7822785BB089522B381E090E026
S11302D002C0880F991F6A95E2F7822782BB0895AE
S11302E0E199FECF9FBB8EBB6DBBE29AE19A089564
S11302F0E199FECF9FBB8EBBE09A8DB30895EF9238
S1130300FF920F931F93CF93DF938C01EB017B013B
S1130310E40EF11C6E157F0550F4F80161918F0114
S1130320CE010E9470012196CE15DF05B0F3DF9156
S1130330CF911F910F91FF90EF900895EF92FF924C
S11303400F931F93CF93DF938C01EB017B01E40E9A
S1130350F11C6E157F0550F4CE010E947801F8015E
S113036081938F012196CE15DF05B0F3DF91CF91F4
S11303701F910F91FF90EF9008951F920F920FB667
S11303800F9211242F933F934F935F936F937F9317
S11303908F939F93AF93BF93EF93FF93E091FF02EB
S11303A0F0910003309709F00995FF91EF91BF9107
S11303B0AF919F918F917F916F915F914F913F91F9
S11303C02F910F900FBE0F901F9018951F920F92B0
S11303D00FB60F9211242F933F934F935F936F9314
S11303E07F938F939F93AF93BF93EF93FF93E0918A
S11303F0FD02F091FE02309709F00995FF91EF910B
S1130400BF91AF919F918F917F916F915F914F9128
S11304103F912F910F900FBE0F901F9018951F9230
S11304200F920FB60F9211242F933F934F935F9324
S11304306F937F938F939F93AF93BF93EF93FF93A8
S1130440E091FB02F091FC02309709F00995FF91CD
S1130450EF91BF91AF919F918F917F916F915F9138
S11304604F913F912F910F900FBE0F901F901895B1
S11304708FB780688FBF08951F920F920FB60F92A7
S113048011242F933F934F935F936F937F938F9395
S11304909F93AF93BF93EF93FF93E0910303F09186
S11304A00403309709F00995FF91EF91BF91AF9143
S11304B09F918F917F916F915F914F913F912F9178
S11304C00F900FBE0F901F9018951F920F920FB6AA
S11304D00F9211242F933F934F935F936F937F93C6
S11304E08F939F93AF93BF93EF93FF93E091010397
S11304F0F0910203309709F00995FF91EF91BF91B4
S1130500AF919F918F917F916F915F914F913F91A7
S11305102F910F900FBE0F901F9018951F920F925E
S11305200FB60F9211242F933F934F935F936F93C2
S11305307F938F939F93AF93BF93EF93FF93E09138
S11305400503F0910603309709F00995FF91EF91A7
S1130550BF91AF919F918F917F916F915F914F91D7
S11305603F912F910F900FBE0F901F9018959FB53C
S1130570892B8FBD8EB5682B6EBD8EB5482B4EBDB5
S1130580089590E097BD86BD089590E09BBD8ABD17
S113059008951F920F920FB60F9211242F933F9339
S11305A04F935F936F937F938F939F93AF93BF9377
S11305B0EF93FF93E0910903F0910A03309709F058
S11305C00995FF91EF91BF91AF919F918F917F9189
S11305D06F915F914F913F912F910F900FBE0F90AC
S11305E01F9018951F920F920FB60F9211242F93FC
S11305F03F934F935F936F937F938F939F93AF93A7
S1130600BF93EF93FF93E0910703F09108033097B2
S113061009F00995FF91EF91BF91AF919F918F914F
S11306207F916F915F914F913F912F910F900FBEEA
S11306300F901F90189589B990BD539A549A579A60
S113064086E880BD0E94380208955D9BFECF8CB978
S11306500895CF93DF93EC018881882331F02196AC
S11306600E94250389918111FBCFDF91CF910895D9
S113067080910B03882329F010920B0380911003BF
S113068008958FEF08951F920F920FB60F921124C1
S11306908F938CB18093100381E080930B038F912F
S11306A00F900FBE0F901F9018950F931F93CF9329
S11306B08C010E943803833269F0C0E08F3F29F037
S11306C0F801EC0FF11D8083CF5F0E943803833261
S11306D0A9F701C0C0E0F801EC0FF11D1082CF9121
S11306E01F910F910895E1E1F3E0908181E0892762
S11306F08083089560911103709112038091130314
S11307000895CF92DF92EF920F930F2EF7E8CF2E3A
S1130710F3E1DF2EF02D0F2EF3E0EF2EF02D08E1A4
S113072022E841E065E083E00E94B0000F91EF9081
S1130730DF90CF90089588E592E00E94C40081E0A4
S113074080930C0308958EE591E00E94C4001092FA
S11307500C03089580910C03811103C00E949B0334
S113076008950E94A30308959091600081E0892771
S11307708093600008950F931F93CF93DF938C01B0
S11307808AE1689FE0011124BE016F5F7F4F40E161
S1130790C8010E947F01BE016F5E7F4F49E0C8011E
S11307A040960E947F01F801618DCE014A960E9415
S11307B07001DF91CF911F910F910895CF92DF9235
S11307C0EF92FF920F931F93CF93C0910D03CA3002
S11307D038F56B01BC018AE1C89F80011124F8013E
S11307E0EC5EFC4F7F01CF010E948507B601C80172
S11307F08C5D9C4F0E94850781E08C0FF701818FEF
S11308006C2F84E193E00E94BB0360910D036F5F42
S113081060930D038FE090E00E94700180E001C0BE
S113082081E0CF911F910F91FF90EF90DF90CF90D7
S11308300895CF93DF93EC0186E690E00E942903AC
S1130840CE010E9455038EEB91E00E942903DF91B3
S1130850CF9108950F931F93CF93DF938C018AE177
S1130860689FE0011124CF5FDD4F40E1BE01C80164
S11308700E947F01BE01605F7F4F49E0C80140963E
S11308800E947F01F801618DCE0149960E9470019A
S1130890DF91CF911F910F9108950F931F93CF93E1
S11308A0DF938C018AE1689FE0011124CF5FDD4F63
S11308B040E1BE01C8010E949E01BE01605F7F4FFE
S11308C049E0C80140960E949E01CE0149960E94CB
S11308D07801F801818FDF91CF911F910F910895D5
S11308E0CF92DF92EF92FF920F931F93CF93C09119
S11308F00E03CA3038F56B01BC018AE1C89F800140
S11309001124F801E85EFB4F7F01CF010E948507A7
S1130910B601C801885D9B4F0E94850781E08C0F5A
S1130920F701818F6C2F88E194E00E942A04609182
S11309300E036F5F60930E0380E090E00E947001ED
S113094080E001C081E0CF911F910F91FF90EF9063
S1130950DF90CF9008958A3028F49B01682FC90155
S11309600E944D040895CF9380E090E00E947801A6
S11309708F3F39F460910E0380E090E00E94700193
S113098013C080E090E00E94780180930E038823D6
S113099059F0C0E068E174E08C2F0E94AB04CF5F93
S11309A080910E03C817B0F387E690E00E941B0302
S11309B0CF910895BF92CF92DF92EF92FF920F935F
S11309C01F93CF93DF93CDB7DEB7E2970FB6F894BA
S11309D0DEBF0FBECDBF86E790E00E942903809161
S11309E00E03882371F110E00F2EFAE1BF2EF02DD3
S11309F00F2EFDE8CF2EF0E0DF2EF02D02E3CE0126
S1130A0001967C01B19EF0011124E85EFB4F818DBB
S1130A101F928F93FF93EF93DF92CF921F920F93C6
S1130A20FF92EF920E948C07C7010E9429031F5F67
S1130A300FB6F894DEBF0FBECDBF80910E0318171A
S1130A4008F3E2960FB6F894DEBF0FBECDBFDF9178
S1130A50CF911F910F91FF90EF90DF90CF90BF90B7
S1130A6008950F931F93CF93DF93CDB7DEB72997E4
S1130A700FB6F894DEBF0FBECDBF8091610088230E
S1130A8031F087EA90E00E942903109261000E94ED
S1130A903803182F8F3F89F18EEB91E00E942903D0
S1130AA000ED010F11531A3018F5CE0101960E9482
S1130AB01904802F90E001972AE1289FB001299F13
S1130AC0700D1124685D7B4FCE0101960E947C0756
S1130AD0892B41F486EB90E00E94290381E0809306
S1130AE00F0304C088EC90E00E942903102F05C076
S1130AF083EE90E00E942903102F812F29960FB6D0
S1130B00F894DEBF0FBECDBFDF91CF911F910F913F
S1130B10089580910F0310920F03089510920F030C
S1130B200895CF93DF93CDB7DEB769970FB6F894E6
S1130B30DEBF0FBECDBF80E090E00E94780181113E
S1130B402DC08BEF90E00E94290381E191E00E9487
S1130B502903CE0101960E9455038EEB91E00E9479
S1130B602903CE0141960E941904BE016F5E7F4F96
S1130B70CE0101960E947004811105C082E291E0C9
S1130B800E9429030BC0813029F48BE391E00E9479
S1130B90290304C086E591E00E94290369960FB6F3
S1130BA0F894DEBF0FBECDBFDF91CF910895CF93F0
S1130BB0DF93CDB7DEB769970FB6F894DEBF0FBEEB
S1130BC0CDBF82E791E00E94290381E191E00E9478
S1130BD02903CE0101960E945503CE0141960E943D
S1130BE01904BE016F5E7F4FCE0101960E9470040E
S1130BF0811105C082E291E00E9429030BC081307B
S1130C0029F48BE391E00E94290304C086E591E076
S1130C100E94290369960FB6F894DEBF0FBECDBFBC
S1130C20DF91CF910895CF93DF93CDB7DEB7699766
S1130C300FB6F894DEBF0FBECDBF82E791E00E94ED
S1130C40290381E191E00E942903CE0101960E94CB
S1130C505503CE0141960E941904BE016F5E7F4F79
S1130C60CE0101960E94DE03811105C082E291E06B
S1130C700E9429030BC0813029F48BE391E00E9488
S1130C80290304C086E591E00E94290369960FB602
S1130C90F894DEBF0FBECDBFDF91CF910895809150
S1130CA06200882311F187E891E00E94290382E918
S1130CB091E00E94290380EC91E00E9429038AECD0
S1130CC091E00E94290384ED91E00E9429038EEDB6
S1130CD091E00E94290388EE91E00E94290382EFAB
S1130CE091E00E942903109262000E94380380530D
S1130CF08F3F61F18330A1F028F4813049F08230D4
S1130D0059F01DC08530A1F078F08630A9F017C0E5
S1130D1081E00E94620017C082E00E94620013C05A
S1130D2083E00E9462000FC084E00E9462000BC056
S1130D3085E00E94620007C00E94B40304C08DEFE6
S1130D4091E00E94290381E08093620008958BE280
S1130D5092E00E9429030E947A0361111AC00EC016
S1130D600E9429030E943803843519F40E947303F6
S1130D70089583E392E00E942903089580E292E0BB
S1130D800E9429038FE392E00E94290386E292E005
S1130D90E7CF86E292E00E9429038FE392E00E946B
S1130DA0290380E292E0DCCF80916400882391F0F3
S1130DB082E592E00E9429038EE592E00E942903D5
S1130DC088E692E00E9429038FE692E00E942903BC
S1130DD0109264000E9438038F3FC1F0823339F0CF
S1130DE0833341F0813359F40E944F060CC00E94B2
S1130DF0A70609C00E948E050E94070708958DEF7B
S1130E0091E00E94290381E0809364000895809119
S1130E106500882321F00E94DA04109265000E9484
S1130E203105813051F40E948905882331F00E94F4
S1130E30270781E08093650008950E94890588232F
S1130E4029F00E94D40681E0809365000895809182
S1130E5063008823F1F08AE792E00E94290387E87F
S1130E6092E00E94290382EA92E00E9429038CEB1B
S1130E7092E00E94290386EC92E00E9429038DEC03
S1130E8092E00E9429038BEE92E00E9429031092C3
S1130E9063000E9438038F3F49F1833391F028F4B3
S1130EA0813349F0823351F01AC0853381F060F008
S1130EB0863381F014C00E94D70515C00E94130622
S1130EC012C00E944F060FC00E94A7060CC00E94C9
S1130ED0AA0309C00E948E050E94070708958DEF9A
S1130EE091E00E94290381E08093630008950E94A9
S1130EF091050E9407070895FB01DC018D91019083
S1130F0080190110D9F3990B0895FB01DC010190BC
S1130F100D920020E1F70895AEE0B0E0E2E9F7E0D9
S1130F200C945B0A0D891E898F89988D26E02C8389
S1130F301A83098397FF02C080E090E801979E839B
S1130F408D83AE01455E5F4F698D7A8DCE0101962A
S1130F500E94BC074D815E8157FD0AC02F813885F0
S1130F60421753070CF49A01F801E20FF31F1082A1
S1130F702E96E4E00C94770AABE0B0E0E2ECF7E004
S1130F800C944D0A6C017B018A01FC0117821682C4
S1130F90838181FFCCC1CE0101963C01F60193818E
S1130FA0F70193FD859193FF81917F01882309F4D3
S1130FB0BAC1853239F493FD859193FF81917F0104
S1130FC0853229F4B60190E00E94B309E7CF912C51
S1130FD0212C312CFFE1F315D8F08B3279F038F461
S1130FE0803279F08332A1F4232D20611DC08D322B
S1130FF061F0803369F4232D216016C0832D826053
S1131000382EE32DE4603E2E2AC0F32DF8601DC077
S113101037FC2DC020ED280F2A3040F08E32B9F471
S113102036FC81C1232D2064322E19C036FE06C041
S11310308AE0989E200D1124922E11C0EAE02E9E83
S1131040200D1124222EF32DF0623F2E08C08C3681
S113105021F4832D8068382E02C0883641F4F701CC
S113106093FD859193FF81917F018111B3CF982FD7
S11310709F7D9554933028F40C5F1F4F9FE3998311
S11310800DC0833631F0833771F0833509F059C0D0
S113109021C0F801808189830E5F1F4F88248394C7
S11310A0912C530113C02801F2E04F0E511CF8019A
S11310B0A080B18036FE03C0692D70E002C06FEFDE
S11310C07FEFC5010E94A8094C018201F32DFF772F
S11310D03F2E16C0280122E0420E511CF801A080C8
S11310E0B18036FE03C0692D70E002C06FEF7FEF60
S11310F0C5010E949D094C01F32DF0683F2E820129
S113110033FC1BC0822D90E088169906B0F4B6011A
S113111080E290E00E94B3092A94F4CFF50137FCF1
S1131120859137FE81915F01B60190E00E94B30979
S113113021102A9421E0821A91088114910471F7F4
S1131140E8C0843611F0893641F5F80137FE07C04E
S113115060817181828193810C5F1F4F08C060811F
S11311607181072E000C880B990B0E5F1F4FF32D16
S1131170FF763F2E97FF09C09095809570956195F5
S11311807F4F8F4F9F4FF0683F2E2AE030E0A3013E
S11311900E94EF09882E861845C0853731F4232D27
S11311A02F7EB22E2AE030E025C0932D997FB92EF0
S11311B08F36C1F018F4883579F0B5C0803719F04E
S11311C0883721F0B0C0E92FE061BE2EB4FE0DC017
S11311D0FB2DF460BF2E09C034FE0AC0292F2660FF
S11311E0B22E06C028E030E005C020E130E002C0A5
S11311F020E132E0F801B7FE07C06081718182818D
S113120093810C5F1F4F06C06081718180E090E084
S11312100E5F1F4FA3010E94EF09882E8618FB2D35
S1131220FF773F2E36FE0DC0232D2E7FA22E89146C
S113123058F434FE0BC032FC09C0832D8E7EA82ED8
S113124005C0B82CA32C03C0B82C01C0B92CA4FE33
S11312500FC0FE01E80DF11D8081803321F49A2D29
S1131260997EA92E09C0A2FE06C0B394B39404C00B
S11312708A2D867809F0B394A3FC11C0A0FE06C0A1
S1131280B21488F4280C922C9B180EC0B21460F48B
S1131290B60180E290E00E94B309B394F7CFB21490
S11312A018F42B1802C0982C212CA4FE10C0B601EF
S11312B080E390E00E94B309A2FE17C0A1FC03C022
S11312C088E790E002C088E590E0B6010CC08A2D62
S11312D0867859F0A1FE02C08BE201C080E2A7FC2F
S11312E08DE2B60190E00E94B309891438F4B60186
S11312F080E390E00E94B3099A94F7CF8A94F301B3
S1131300E80DF11D8081B60190E00E94B3098110BF
S1131310F5CF222009F442CEB60180E290E00E948B
S1131320B3092A94F6CFF6018681978102C08FEF24
S11313309FEF2B96E2E10C94690AFC010590615041
S113134070400110D8F7809590958E0F9F1F0895D7
S1131350FC016150704001900110D8F78095909580
S11313608E0F9F1F08950F931F93CF93DF93FB015D
S1131370238121FD03C08FEF9FEF2CC022FF16C0F5
S113138046815781248135814217530744F4A08153
S1131390B1819D012F5F3F4F318320838C93268140
S11313A037812F5F3F4F3783268314C08B01EC01B5
S11313B0FB010084F185E02D0995892BE1F6D80124
S11313C016968D919C911797019617969C938E93E0
S11313D01697CE01DF91CF911F910F910895FA01D5
S11313E0AA27283051F1203181F1E8946F936E7F60
S11313F06E5F7F4F8F4F9F4FAF4FB1E03ED0B4E051
S11314003CD0670F781F891F9A1FA11D680F791F91
S11314108A1F911DA11D6A0F711D811D911DA11DA2
S113142020D009F468943F912AE0269F11243019B2
S1131430305D3193DEF6CF010895462F4770405D4D
S11314404193B3E00FD0C9F7F6CF462F4F70405DFC
S11314504A3318F0495D31FD4052419302D0A9F757
S1131460EACFB4E0A6959795879577956795BA9551
S1131470C9F700976105710508959B01AC010A2E17
S113148006945795479537952795BA95C9F7620FEE
S1131490731F841F951FA01D08952F923F924F9292
S11314A05F926F927F928F929F92AF92BF92CF92F0
S11314B0DF92EF92FF920F931F93CF93DF93CDB7F9
S11314C0DEB7CA1BDB0B0FB6F894DEBF0FBECDBF71
S11314D009942A88398848885F846E847D848C8442
S11314E09B84AA84B984C884DF80EE80FD800C814B
S11314F01B81AA81B981CE0FD11D0FB6F894DEBF2E
S10F15000FBECDBFED010895F894FFCF9D
S113150C010101010101456E746572205061737310
S113151C776F72643A00446973706C6179696E67B1
S113152C20616C6C2075736572733A0A0052656D98
S113153C6F74653A20557365723A2025732C2049D3
S113154C443A2025640A00456E746572205573650F
S113155C722049443A004C6F67696E20537563637B
S113156C65737366756C0A004572726F723A204922
S113157C6E636F72726563742050617373776F72EC
S113158C640A004572726F723A20496E76616C6916
S113159C6420557365722049440A00526567697367
S11315AC74657220617320616E2061646D696E0ACA
S11315BC00456E74657220757365726E616D653A63
S11315CC2000526567697374726174696F6E20735D
S11315DC75636365737366756C0A004572726F721A
S11315EC3A20557365722061727261792069732097
S11315FC66756C6C0A004572726F723A20454550E0
S113160C524F4D207772697465206661696C65640C
S113161C0A0052656769737465722061206E657780
S113162C20757365720A004C616D70204D656E7582
S113163C0A0043686F6F7365206C616D70206E7562
S113164C6D62657220796F752077616E7420746F8A
S113165C207475726E206F6E2F6F66663A200A00C6
S113166C312E204C616D70310A00322E204C616D8C
S113167C70320A00332E204C616D70330A00342E04
S113168C204C616D70340A00352E204C616D703520
S113169C0A00362E2044696D6D65720A00496E7617
S11316AC616C69642063686F6963652E20506C6596
S11316BC6173652074727920616761696E2E0A000A
S11316CC5B4F46465D005B4F4E5D004143204D65CC
S11316DC6E750057726F6E6720496E70757400508A
S11316EC726573732028542920746F207475726E7C
S11316FC200055736572204D656E753A0A00312EC3
S113170C204C616D70730A00322E2041430A003361
S113171C2E204C6F676F75740A0041646D696E20DE
S113172C4D656E753A0A00312E20526567697374E3
S113173C65722055736572202852656D6F74652926
S113174C0A00322E205265676973746572205573D2
S113175C657220284C6F63616C290A00332E204C6F
S113176C616D70730A00342E2041430A00352E201B
S113177C436F6E74726F6C20446F6F7220284F70BD
S113178C656E2F436C6F7365290A00362E204C6FDF
S109179C676F75740A007A
S9030000FC
