S0110000536D617274486F6D652E7372656383
S11300000C942A000C9447000C9447000C9447006D
S11300100C94B7030C948E030C9447000C94470083
S11300200C9447000C9461030C9438030C940F0354
S11300300C9447000C9447000C9447000C94470020
S11300400C9447000C9447000C9447000C94470010
S11300500C94470011241FBECFE5D8E0DEBFCDBF0E
S113006013E0A0E6B0E0ECE2F5E102C005900D92E9
S1130070A831B107D9F724E0A8E1B3E001C01D928B
S1130080A133B207E1F70E9449000C94940A0C943E
S113009000000E94100187E690E00E94E0030E94A5
S11300A074072FEF83ED90E3215080409040E1F7F7
S11300B000C00000F4CFCF93C82F0E947201EC2F30
S11300C0F0E0E85EFC4F908181E089278083CF9146
S11300D008958FE99FE00197F1F700C0000041E027
S11300E064E082E00E9410028FE99FE00197F1F73B
S11300F000C0000040E064E082E00E9410028FE94A
S11301009FE00197F1F700C000000895CF93C82F36
S113011040E066E082E00E941002C4FB442740F9FC
S113012060E082E00E941002C5FB442740F961E0D0
S113013082E00E941002C6FB442740F962E082E09C
S11301400E9410024C2F441F4427441F63E082E0A6
S11301500E9410020E9469004C2F417060E082E00E
S11301600E941002C1FB442740F961E082E00E9432
S11301701002C2FB442740F962E082E00E941002B0
S1130180C3FB442740F963E082E00E9410020E940E
S11301906900CF910895CF93C82F41E066E082E0D3
S11301A00E941002C4FB442740F960E082E00E94F0
S11301B01002C5FB442740F961E082E00E9410026E
S11301C0C6FB442740F962E082E00E9410024C2FF3
S11301D0441F4427441F63E082E00E9410020E94EF
S11301E069004C2F417060E082E00E941002C1FB64
S11301F0442740F961E082E00E941002C2FB4427D8
S113020040F962E082E00E941002C3FB442740F9F7
S113021063E082E00E9410020E946900CF91089579
S113022041E066E082E00E949B0141E065E082E0FB
S11302300E949B0141E064E082E00E949B0141E056
S113024060E082E00E949B0141E061E082E00E9464
S11302509B0141E062E082E00E949B0141E063E097
S113026082E00E949B0140E065E082E00E9410026F
S113027080E00E94CB002FEF86E791E02150804080
S11302809040E1F700C0000083E00E9486008FE107
S11302909EE40197F1F700C0000083E00E9486000D
S11302A087E592E00197F1F700C0000083E00E9427
S11302B0860082E00E94860082E00E94860088E236
S11302C00E94860088E00E94860080E00E948600EA
S11302D08CE00E94860080E00E94860086E00E94F6
S11302E0860008958330A9F028F4813041F08230EB
S11302F059F00895843091F08530A9F0089560E0B4
S113030080E00E948502089561E080E00E948502F9
S1130310089562E080E00E948502089563E080E031
S11303200E948502089564E080E00E948502089599
S11303300E948A030895813011F130F08230D1F1A6
S1130340833009F452C00895413059F42AB381E04E
S113035090E002C0880F991F6A95E2F7822B8ABB4E
S1130360089541115CC02AB381E090E002C0880F77
S1130370991F6A95E2F7809582238ABB08954130DC
S113038059F427B381E090E002C0880F991F6A9561
S1130390E2F7822B87BB0895411141C027B381E066
S11303A090E002C0880F991F6A95E2F78095822336
S11303B087BB0895413059F424B381E090E002C032
S11303C0880F991F6A95E2F7822B84BB0895411127
S11303D026C024B381E090E002C0880F991F6A957B
S11303E0E2F78095822384BB0895413059F421B308
S11303F081E090E002C0880F991F6A95E2F7822B92
S113040081BB089541110BC021B381E090E002C08B
S1130410880F991F6A95E2F78095822381BB08951E
S1130420813011F130F08230D1F1833009F452C0BF
S11304300895413059F42BB381E090E002C0880F55
S1130440991F6A95E2F7822B8BBB089541115CC01A
S11304502BB381E090E002C0880F991F6A95E2F700
S1130460809582238BBB0895413059F428B381E0F1
S113047090E002C0880F991F6A95E2F7822B88BB2F
S11304800895411141C028B381E090E002C0880F73
S1130490991F6A95E2F78095822388BB08954130BD
S11304A059F425B381E090E002C0880F991F6A9542
S11304B0E2F7822B85BB0895411126C025B381E064
S11304C090E002C0880F991F6A95E2F78095822315
S11304D085BB0895413059F422B381E090E002C015
S11304E0880F991F6A95E2F7822B82BB0895411108
S11304F00BC022B381E090E002C0880F991F6A9577
S1130500E2F78095822382BB0895813089F028F038
S11305108230C9F0833011F108952BB381E090E06B
S113052002C0880F991F6A95E2F782278BBB089552
S113053028B381E090E002C0880F991F6A95E2F722
S1130540822788BB089525B381E090E002C0880F1C
S1130550991F6A95E2F7822785BB089522B381E04B
S113056090E002C0880F991F6A95E2F7822782BB48
S11305700895E199FECF80931E006DBBE29AE19A43
S11305800895E199FECF80931E00E09A8DB30895FB
S1130590EF92FF920F931F93CF93DF93EB014423CA
S11305A0A1F0082F192F4150E42EF12C8FEFE81AF7
S11305B0F80AE60EF71EF80161918F01CE010E9440
S11305C0B9022196CE15DF05B1F7DF91CF911F91C6
S11305D00F91FF90EF900895EF92FF920F931F9366
S11305E0CF93DF938C01EB01442391F04150E42E2F
S11305F0F12C8FEFE81AF80AE60EF71ECE010E94DE
S1130600C102F80181938F012196EC16FD06B1F722
S1130610DF91CF911F910F91FF90EF9008951F925A
S11306200F920FB60F9211242F933F934F935F9322
S11306306F937F938F939F93AF93BF93EF93FF93A6
S1130640E0911F03F0912003309709F00995FF9181
S1130650EF91BF91AF919F918F917F916F915F9136
S11306604F913F912F910F900FBE0F901F901895AF
S11306701F920F920FB60F9211242F933F934F9313
S11306805F936F937F938F939F93AF93BF93EF93F6
S1130690FF93E0911D03F0911E03309709F0099533
S11306A0FF91EF91BF91AF919F918F917F916F9146
S11306B05F914F913F912F910F900FBE0F901F901C
S11306C018951F920F920FB60F9211242F933F93F8
S11306D04F935F936F937F938F939F93AF93BF9346
S11306E0EF93FF93E0912103F0912203309709F0F7
S11306F00995FF91EF91BF91AF919F918F917F9158
S11307006F915F914F913F912F910F900FBE0F907A
S11307101F90189590E09BBD8ABD08951F920F927B
S11307200FB60F9211242F933F934F935F936F93C0
S11307307F938F939F93AF93BF93EF93FF93E09136
S11307402503F0912603309709F00995FF91EF9165
S1130750BF91AF919F918F917F916F915F914F91D5
S11307603F912F910F900FBE0F901F9018951F92DD
S11307700F920FB60F9211242F933F934F935F93D1
S11307806F937F938F939F93AF93BF93EF93FF9355
S1130790E0912303F0912403309709F00995FF9128
S11307A0EF91BF91AF919F918F917F916F915F91E5
S11307B04F913F912F910F900FBE0F901F9018955E
S11307C089B990BD539A549A86E880BD08955D9B7B
S11307D0FECF8CB90895CF93DF93EC0188818823F1
S11307E031F021960E94E70389918111FBCFDF91BB
S11307F0CF9108955F9BFECF8CB10895EF92FF9245
S11308000F931F93CF937C010E94FA03F701808317
S1130810833261F0C0E0CF5F87010C0F111D0E948D
S1130820FA03F80180838332B1F701C08701F8012C
S11308301082CF911F910F91FF90EF900895EAE2FB
S1130840F3E0908181E089278083089560912A03F1
S113085070912B0380912C03089588E592E00E9407
S1130860980181E08093270308958EE591E00E942A
S1130870980110922703089580912703811103C0E2
S11308800E942D0408950E943504089590916000FB
S113089081E08927809360000895CF92DF92EF92E0
S11308A0FF921F93CF93DF93CDB7DEB76B970FB64D
S11308B0F894DEBF0FBECDBF6C017B0141E060E068
S11308C070E0CE0101960E94EC0219811A3040F5C5
S11308D04FE050E0B601CE0102960E948D0748E039
S11308E050E0B701CE0142960E948D0781E0810F4E
S11308F08B8F8AE1189FB00111246F5F7F4F4AE10B
S1130900CE0102960E94C80289818F5F898341E0EB
S113091060E070E0CE0101960E94C80280E001C050
S113092081E06B960FB6F894DEBF0FBECDBFDF91AA
S1130930CF911F91FF90EF90DF90CF90089587E6BD
S113094090E00E94E0030895CF93DF93EC0181E6E9
S113095090E00E94EB03CE010E94FE038DEC91E037
S11309600E94EB03DF91CF910895CF92DF92EF9233
S1130970FF921F93CF93DF931F92CDB7DEB76C0125
S11309807B0141E060E971E0CE0101960E94EC0236
S113099019811A3028F5B6018DE293E00E9486078A
S11309A0B7018DE393E00E94860781E0810F809375
S11309B046038AE1189FB00111246F567E4F4AE125
S11309C08DE293E00E94C80289818F5F898341E0B0
S11309D060E971E0CE0101960E94C80280E001C086
S11309E081E00F90DF91CF911F91FF90EF90DF9006
S11309F0CF9008959FEF980F9A3088F4FB01282F29
S1130A0030E0215031098AE1829FB001839F700D4B
S1130A1011246F567E4F4AE1CF010E94EC020895E3
S1130A20AF92BF92CF92DF92EF92FF920F931F93F8
S1130A30CF93DF93CDB7DEB7E2970FB6F894DEBF5E
S1130A400FBECDBF82E790E00E94EB030DE213E0FE
S1130A50F12C0F2EF9E8AF2EF0E0BF2EF02D0F2E63
S1130A60F2E3EF2EF02DCE0101966C01F3946DE2CA
S1130A7073E08F2D0E94FA04F801818D1F928F93E9
S1130A801F930F93BF92AF921F92EF92DF92CF9278
S1130A900E949C07C6010E94EB03065E1F4F0FB61F
S1130AA0F894DEBF0FBECDBF9AE0F912DFCFE29615
S1130AB00FB6F894DEBF0FBECDBFDF91CF911F916B
S1130AC00F91FF90EF90DF90CF90BF90AF9008957B
S1130AD01F93CF93DF93CDB7DEB764970FB6F89427
S1130AE0DEBF0FBECDBF83EA90E00E94EB030E94FD
S1130AF0FA03182F8FEF810F8A3010F56DE273E03F
S1130B00812F0E94FA0482EB90E00E94EB03CE0155
S1130B1001960E94A4046DE373E0CE0101960E9445
S1130B207D07892B41F482EC90E00E94EB0381E085
S1130B308093280309C084ED90E00E94EB0304C075
S1130B408FEE90E00E94EB03812F64960FB6F89429
S1130B50DEBF0FBECDBFDF91CF911F91089580916D
S1130B602803109228030895109228030895CF9320
S1130B70DF93CDB7DEB769970FB6F894DEBF0FBE2B
S1130B80CDBF8091290381112EC00E949F048AE069
S1130B9091E00E94EB0380E291E00E94EB03CE011E
S1130BA001960E94FE03CE0141960E94A404BE0158
S1130BB06F5E7F4FCE0101960E94B504811105C07E
S1130BC081E391E00E94EB030BC0813029F48AE4B5
S1130BD091E00E94EB0304C085E691E00E94EB03E0
S1130BE081E08093290369960FB6F894DEBF0FBEA7
S1130BF0CDBFDF91CF910895CF93DF93CDB7DEB70B
S1130C0069970FB6F894DEBF0FBECDBF81E891E0BF
S1130C100E94EB0380E291E00E94EB03CE01019677
S1130C200E94FE03CE0141960E94A404BE016F5EA1
S1130C307F4FCE0101960E94B504811105C081E366
S1130C4091E00E94EB030BC0813029F48AE491E027
S1130C500E94EB0304C085E691E00E94EB036996D1
S1130C600FB6F894DEBF0FBECDBFDF91CF910895CC
S1130C70CF93DF93CDB7DEB769970FB6F894DEBF95
S1130C800FBECDBF81E891E00E94EB0380E291E0CA
S1130C900E94EB03CE0101960E94FE03CE01419611
S1130CA00E94A404BE016F5E7F4FCE0101960E9494
S1130CB04D04811105C081E391E00E94EB030BC058
S1130CC0813029F48AE491E00E94EB0304C085E6B4
S1130CD091E00E94EB0369960FB6F894DEBF0FBE55
S1130CE0CDBFDF91CF91089586E991E00E94EB0397
S1130CF081EA91E00E94EB038FEC91E00E94EB0308
S1130D0089ED91E00E94EB0383EE91E00E94EB03F6
S1130D108DEE91E00E94EB0387EF91E00E94EB03DC
S1130D2081E092E00E94EB030E94FA038330A1F079
S1130D3028F4813049F0823059F01DC08530A1F08B
S1130D4078F08630A9F017C081E00E945B00089516
S1130D5082E00E945B00089583E00E945B00089596
S1130D6084E00E945B00089585E00E945B00089582
S1130D700E94460408958CE092E00E94EB030895DB
S1130D808AE392E00E94EB030E94260461111AC0D8
S1130D900EC00E94EB030E94FA03843519F40E94EA
S1130DA01F04089582E492E00E94EB0308958FE209
S1130DB092E00E94EB038EE492E00E94EB0385E351
S1130DC092E0E7CF85E392E00E94EB038EE492E0A9
S1130DD00E94EB038FE292E0DCCF81E692E00E9476
S1130DE0EB038DE692E00E94EB0387E792E00E941A
S1130DF0EB038EE792E00E94EB030E94FA03823336
S1130E0039F0833341F0813359F40E947406E5CFFD
S1130E100E94C006E2CF0E94B4050E9415070895FF
S1130E208CE092E00E94EB03D8CFCF93DF93CDB751
S1130E30DEB76A970FB6F894DEBF0FBECDBF0E942F
S1130E4010050E946805BE016F5F7F4F0E94FA047F
S1130E508A8D813039F40E94AF05882319F00E94ED
S1130E60400705C00E94AF0581110E94ED066A96F5
S1130E700FB6F894DEBF0FBECDBFDF91CF910895BA
S1130E8089E892E00E94EB0386E992E00E94EB037A
S1130E9081EB92E00E94EB038BEC92E00E94EB0367
S1130EA089EE92E00E94EB030E94FA03823361F020
S1130EB018F4813331F013C0833349F0843351F093
S1130EC00EC00E94FC05DCCF0E943806D9CF0E94D8
S1130ED03C04D6CF0E94B4050E94150708958CE007
S1130EE092E00E94EB03CCCF84EF92E00E94EB03EC
S1130EF00E94B7050E9415070895FB01DC018D913E
S1130F00019080190110D9F3990B0895FB01DC01BC
S1130F1001900D920020E1F70895FB01DC0141509E
S1130F20504048F001900D920020C9F701C01D9275
S1130F3041505040E0F70895AEE0B0E0E2EAF7E057
S1130F400C946B0A0D891E898F89988D26E02C8359
S1130F501A83098397FF02C080E090E801979E837B
S1130F608D83AE01455E5F4F698D7A8DCE0101960A
S1130F700E94CC074D815E8157FD0AC02F813885C0
S1130F80421753070CF49A01F801E20FF31F108281
S1130F902E96E4E00C94870AABE0B0E0E2EDF7E0D3
S1130FA00C945D0A6C017B018A01FC011782168294
S1130FB0838181FFCCC1CE0101963C01F60193816E
S1130FC0F70193FD859193FF81917F01882309F4B3
S1130FD0BAC1853239F493FD859193FF81917F01E4
S1130FE0853229F4B60190E00E94C309E7CF912C21
S1130FF0212C312CFFE1F315D8F08B3279F038F441
S1131000803279F08332A1F4232D20611DC08D320A
S113101061F0803369F4232D216016C0832D826032
S1131020382EE32DE4603E2E2AC0F32DF8601DC057
S113103037FC2DC020ED280F2A3040F08E32B9F451
S113104036FC81C1232D2064322E19C036FE06C021
S11310508AE0989E200D1124922E11C0EAE02E9E63
S1131060200D1124222EF32DF0623F2E08C08C3661
S113107021F4832D8068382E02C0883641F4F701AC
S113108093FD859193FF81917F018111B3CF982FB7
S11310909F7D9554933028F40C5F1F4F9FE39983F1
S11310A00DC0833631F0833771F0833509F059C0B0
S11310B021C0F801808189830E5F1F4F88248394A7
S11310C0912C530113C02801F2E04F0E511CF8017A
S11310D0A080B18036FE03C0692D70E002C06FEFBE
S11310E07FEFC5010E94B8094C018201F32DFF77FF
S11310F03F2E16C0280122E0420E511CF801A080A8
S1131100B18036FE03C0692D70E002C06FEF7FEF3F
S1131110C5010E94AD094C01F32DF0683F2E8201F8
S113112033FC1BC0822D90E088169906B0F4B601FA
S113113080E290E00E94C3092A94F4CFF50137FCC1
S1131140859137FE81915F01B60190E00E94C30949
S113115021102A9421E0821A91088114910471F7D4
S1131160E8C0843611F0893641F5F80137FE07C02E
S113117060817181828193810C5F1F4F08C06081FF
S11311807181072E000C880B990B0E5F1F4FF32DF6
S1131190FF763F2E97FF09C09095809570956195D5
S11311A07F4F8F4F9F4FF0683F2E2AE030E0A3011E
S11311B00E94FF09882E861845C0853731F4232DF7
S11311C02F7EB22E2AE030E025C0932D997FB92ED0
S11311D08F36C1F018F4883579F0B5C0803719F02E
S11311E0883721F0B0C0E92FE061BE2EB4FE0DC0F7
S11311F0FB2DF460BF2E09C034FE0AC0292F2660DF
S1131200B22E06C028E030E005C020E130E002C084
S113121020E132E0F801B7FE07C06081718182816C
S113122093810C5F1F4F06C06081718180E090E064
S11312300E5F1F4FA3010E94FF09882E8618FB2D05
S1131240FF773F2E36FE0DC0232D2E7FA22E89144C
S113125058F434FE0BC032FC09C0832D8E7EA82EB8
S113126005C0B82CA32C03C0B82C01C0B92CA4FE13
S11312700FC0FE01E80DF11D8081803321F49A2D09
S1131280997EA92E09C0A2FE06C0B394B39404C0EB
S11312908A2D867809F0B394A3FC11C0A0FE06C081
S11312A0B21488F4280C922C9B180EC0B21460F46B
S11312B0B60180E290E00E94C309B394F7CFB21460
S11312C018F42B1802C0982C212CA4FE10C0B601CF
S11312D080E390E00E94C309A2FE17C0A1FC03C0F2
S11312E088E790E002C088E590E0B6010CC08A2D42
S11312F0867859F0A1FE02C08BE201C080E2A7FC0F
S11313008DE2B60190E00E94C309891438F4B60155
S113131080E390E00E94C3099A94F7CF8A94F30182
S1131320E80DF11D8081B60190E00E94C30981108F
S1131330F5CF222009F442CEB60180E290E00E946B
S1131340C3092A94F6CFF6018681978102C08FEFF4
S11313509FEF2B96E2E10C94790AFC010590615011
S113136070400110D8F7809590958E0F9F1F0895B7
S1131370FC016150704001900110D8F78095909560
S11313808E0F9F1F08950F931F93CF93DF93FB013D
S1131390238121FD03C08FEF9FEF2CC022FF16C0D5
S11313A046815781248135814217530744F4A08133
S11313B0B1819D012F5F3F4F318320838C93268120
S11313C037812F5F3F4F3783268314C08B01EC0195
S11313D0FB010084F185E02D0995892BE1F6D80104
S11313E016968D919C911797019617969C938E93C0
S11313F01697CE01DF91CF911F910F910895FA01B5
S1131400AA27283051F1203181F1E8946F936E7F3F
S11314106E5F7F4F8F4F9F4FAF4FB1E03ED0B4E030
S11314203CD0670F781F891F9A1FA11D680F791F71
S11314308A1F911DA11D6A0F711D811D911DA11D82
S113144020D009F468943F912AE0269F1124301992
S1131450305D3193DEF6CF010895462F4770405D2D
S11314604193B3E00FD0C9F7F6CF462F4F70405DDC
S11314704A3318F0495D31FD4052419302D0A9F737
S1131480EACFB4E0A6959795879577956795BA9531
S1131490C9F700976105710508959B01AC010A2EF7
S11314A006945795479537952795BA95C9F7620FCE
S11314B0731F841F951FA01D08952F923F924F9272
S11314C05F926F927F928F929F92AF92BF92CF92D0
S11314D0DF92EF92FF920F931F93CF93DF93CDB7D9
S11314E0DEB7CA1BDB0B0FB6F894DEBF0FBECDBF51
S11314F009942A88398848885F846E847D848C8422
S11315009B84AA84B984C884DF80EE80FD800C812A
S11315101B81AA81B981CE0FD11D0FB6F894DEBF0D
S10F15200FBECDBFED010895F894FFCF7D
S113152C01456E7465722050617373776F72643AFF
S113153C0A00446973706C6179696E6720616C6C24
S113154C2075736572733A0A0052656D6F74653A4F
S113155C20557365723A2025732C2049443A202572
S113156C640A00456E746572205573657220494493
S113157C3A00456E7465722050617373776F7264B0
S113158C3A004C6F67696E205375636365737366B9
S113159C756C0A004572726F723A20496E636F72F1
S11315AC726563742050617373776F72640A0045BB
S11315BC72726F723A20496E76616C69642055734D
S11315CC6572204F726465720A00526567697374A0
S11315DC657220617320616E2061646D696E0A000E
S11315EC456E74657220757365726E616D653A2013
S11315FC00526567697374726174696F6E207375D8
S113160C636365737366756C0A004572726F723A24
S113161C205573657220617272617920697320663A
S113162C756C6C0A004572726F723A2045455052C3
S113163C4F4D207772697465206661696C65640A24
S113164C0052656769737465722061206E6577203A
S113165C757365720A004C616D70204D656E750A68
S113166C0043686F6F7365206C616D70206E756DCF
S113167C62657220796F752077616E7420746F20A7
S113168C7475726E206F6E2F6F66663A200A003185
S113169C2E204C616D70310A00322E204C616D701D
S11316AC320A00332E204C616D70330A00342E2024
S11316BC4C616D70340A00352E204C616D70350A06
S11316CC00362E2044696D6D65720A00496E766190
S11316DC6C69642063686F6963652E20506C656166
S11316EC73652074727920616761696E2E0A005BE0
S11316FC4F46465D005B4F4E5D004143204D656E89
S113170C750057726F6E6720496E70757400507255
S113171C6573732028542920746F207475726E209D
S113172C0055736572204D656E753A0A00312E2092
S113173C4C616D70730A00322E2041430A00332E23
S113174C204C6F676F75740A0041646D696E204D8F
S113175C656E753A0A00312E20526567697374659B
S113176C722055736572202852656D6F7465290A51
S113177C00322E2052656769737465722055736547
S113178C7220284C6F63616C290A00332E20436F3E
S113179C6E74726F6C20446F6F7220284F70656E7C
S11317AC2F436C6F7365290A00342E204C6F676FBE
S11317BC75740A0053797374656D2069732073749E
S11317CC617274696E6720696E2072656D6F7465E1
S10B17DC206D6F64650A000032
S9030000FC
