:100000000C942A000C9430040C9459040C9482042F
:100010000C9483050C945A050C9447000C944700EB
:100020000C9447000C941E050C94D8040C94AF0457
:100030000C9447000C94AC050C9447000C944700BA
:100040000C9447000C9447000C9447000C94470014
:100050000C94470011241FBECFE5D8E0DEBFCDBF12
:1000600011E0A0E6B0E0EEE5F8E102C005900D92E7
:10007000A230B107D9F721E0A2E0B1E001C01D92A2
:10008000AF31B207E1F70E9449000C942D0C0C949B
:1000900000000E944B010E94C5050E9404060E94B8
:1000A0008D070E94A1002FEF89EF90E02150804042
:1000B0009040E1F700C000000E94EB050E94070697
:1000C0000E948507F0CF41E066E080E00E94960242
:1000D000089541E066E080E00E940B03089540E04F
:1000E00066E080E00E940B03089565E088E60E94C8
:1000F00001050E94620241E063E081E00E949602F5
:1001000008950E946502BC0180E090E00E944808CA
:1001100020E030EC4FE754E40E94A70720E030E0F5
:1001200048EC52E40E94D6080E941908862F0E94CB
:100130000805089580E00E94080508950E945C0269
:1001400008950E94690208958FE99FE00197F1F7F1
:1001500000C0000041E064E082E00E940B038FE9F0
:100160009FE00197F1F700C0000040E064E082E00A
:100170000E940B038FE99FE00197F1F700C0000098
:100180000895CF93C82F40E066E082E00E940B0301
:10019000C4FB442740F960E082E00E940B03C5FBEA
:1001A000442740F961E082E00E940B03C6FB44272C
:1001B00040F962E082E00E940B034C2F441F442769
:1001C000441F63E082E00E940B030E94A4004C2FB6
:1001D000417060E082E00E940B03C1FB442740F9BC
:1001E00061E082E00E940B03C2FB442740F962E019
:1001F00082E00E940B03C3FB442740F963E082E0E6
:100200000E940B030E94A400CF910895CF93C82FA2
:1002100041E066E082E00E940B03C4FB442740F902
:1002200060E082E00E940B03C5FB442740F961E0D7
:1002300082E00E940B03C6FB442740F962E082E0A3
:100240000E940B034C2F441F4427441F63E082E0AD
:100250000E940B030E94A4004C2F417060E082E0DA
:100260000E940B03C1FB442740F961E082E00E9439
:100270000B03C2FB442740F962E082E00E940B03BB
:10028000C3FB442740F963E082E00E940B030E9415
:10029000A400CF91089541E066E082E00E949602BA
:1002A00041E065E082E00E94960241E064E082E085
:1002B0000E94960241E060E082E00E94960241E0E6
:1002C00061E082E00E94960241E062E082E00E94EA
:1002D000960241E063E082E00E94960240E065E021
:1002E00082E00E940B0380E00E9406012FEF86E768
:1002F00091E0215080409040E1F700C0000083E091
:100300000E94C1008FE19EE40197F1F700C0000058
:1003100083E00E94C10087E592E00197F1F700C0F9
:10032000000083E00E94C10082E00E94C10082E0E0
:100330000E94C10088E20E94C10088E00E94C100C2
:1003400080E00E94C1008CE00E94C10080E00E9419
:10035000C10086E00E94C1000895882319F0813011
:1003600031F0089580E8860F0E94C100089580EC66
:10037000860F0E94C10008950E94060108950F9300
:100380001F93CF93FC018081882359F08F01C0E037
:100390000E940601CF5FF801EC0FF11D80818111F1
:1003A000F7CFCF911F910F9108950F931F93CF9384
:1003B000DF93CDB7DEB7A1970FB6F894DEBF0FBEBF
:1003C000CDBF9F938F9383E690E09F938F938E0191
:1003D0000F5F1F4F1F930F930E944309C8010E9494
:1003E000BF010F900F900F900F900F900F90A1965C
:1003F0000FB6F894DEBF0FBECDBFDF91CF911F9136
:100400000F9108950E948302089585E00E94890259
:10041000BC0180E090E00E9448082AE137E64CE900
:1004200050E40E94D60820E030E040E251E40E940F
:10043000A7070E941908CB0108950F931F93CF932C
:10044000DF9304E0C0E0D0E010E0602F81E00E9484
:10045000800390E00C2E02C0880F991F0A94E2F7E7
:10046000182B21960F5FC430D10579F7E12FF0E00A
:10047000EA59FF4F808180936000DF91CF911F91F7
:100480000F910895CF93C4E040E06C2F81E00E946B
:100490009602CF5FC830C1F76DE172E080E00E9444
:1004A0001B0462E080E00E94C00380E00E94AE0373
:1004B0000E94AB04CF910895809160009FEF9093CC
:1004C000600008950E948302089587E00E948902D7
:1004D000089541E060E080E00E94960241E061E022
:1004E00080E00E94960241E062E080E00E94960275
:1004F00041E063E080E00E94960241E064E080E039
:100500000E9496020895379A86B1876086B93E9A0E
:10051000089597B1907E97B997B1892B87B9369A8C
:10052000349BFECF349A84B195B10895813011F196
:1005300030F08230D1F1833009F452C00895413057
:1005400059F42AB381E090E002C0880F991F6A95A0
:10055000E2F7822B8ABB089541115CC02AB381E087
:1005600090E002C0880F991F6A95E2F78095822378
:100570008ABB0895413059F427B381E090E002C06E
:10058000880F991F6A95E2F7822B87BB0895411166
:1005900041C027B381E090E002C0880F991F6A959F
:1005A000E2F78095822387BB0895413059F424B344
:1005B00081E090E002C0880F991F6A95E2F7822BD4
:1005C00084BB0895411126C024B381E090E002C0AD
:1005D000880F991F6A95E2F78095822384BB08955E
:1005E000413059F421B381E090E002C0880F991F97
:1005F0006A95E2F7822B81BB089541110BC021B3AC
:1006000081E090E002C0880F991F6A95E2F780951B
:10061000822381BB0895813011F130F08230D1F115
:10062000833009F452C00895413059F42BB381E06E
:1006300090E002C0880F991F6A95E2F7822B8BBB6E
:10064000089541115CC02BB381E090E002C0880F97
:10065000991F6A95E2F7809582238BBB08954130FC
:1006600059F428B381E090E002C0880F991F6A9581
:10067000E2F7822B88BB0895411141C028B381E085
:1006800090E002C0880F991F6A95E2F78095822357
:1006900088BB0895413059F425B381E090E002C051
:1006A000880F991F6A95E2F7822B85BB0895411147
:1006B00026C025B381E090E002C0880F991F6A959B
:1006C000E2F78095822385BB0895413059F422B327
:1006D00081E090E002C0880F991F6A95E2F7822BB3
:1006E00082BB089541110BC022B381E090E002C0AB
:1006F000880F991F6A95E2F78095822382BB08953F
:10070000813079F028F08230A9F08330E1F024C004
:1007100089B390E002C0959587956A95E2F781705C
:10072000089586B390E002C0959587956A95E2F7A3
:100730008170089583B390E002C0959587956A957E
:10074000E2F78170089580B390E002C09595879597
:100750006A95E2F78170089580E00895813041F054
:1007600018F0823049F008958BB780648BBF0895EC
:100770008BB780688BBF08958BB780628BBF08955D
:10078000813049F120F0823009F449C008956111A7
:1007900007C085B78E7F85BF85B78D7F85BF0895DC
:1007A000613039F485B7816085BF85B78D7F85BF9E
:1007B0000895623039F485B78E7F85BF85B7826032
:1007C00085BF08956330B1F585B7816085BF85B772
:1007D000826085BF0895611107C085B78B7F85BF93
:1007E00085B7877F85BF0895613039F485B7846008
:1007F00085BF85B7877F85BF0895623039F485B797
:100800008B7F85BF85B7886085BF0895633091F47D
:1008100085B7846085BF85B7886085BF08956230DD
:1008200021F484B78F7B84BF0895633019F484B7B3
:10083000806484BF0895813049F018F0823059F007
:100840000895709307016093060108957093050160
:100850006093040108957093030160930201089569
:100860001F920F920FB60F9211242F933F934F9325
:100870005F936F937F938F939F93AF93BF93EF9308
:10088000FF93E0910601F0910701309709F0099577
:10089000FF91EF91BF91AF919F918F917F916F9158
:1008A0005F914F913F912F910F900FBE0F901F902E
:1008B00018951F920F920FB60F9211242F933F930A
:1008C0004F935F936F937F938F939F93AF93BF9358
:1008D000EF93FF93E0910401F0910501309709F047
:1008E0000995FF91EF91BF91AF919F918F917F916A
:1008F0006F915F914F913F912F910F900FBE0F908D
:100900001F9018951F920F920FB60F9211242F93DC
:100910003F934F935F936F937F938F939F93AF9387
:10092000BF93EF93FF93E0910201F09103013097A1
:1009300009F00995FF91EF91BF91AF919F918F9130
:100940007F916F915F914F913F912F910F900FBECB
:100950000F901F9018958FB780688FBF08951F92D2
:100960000F920FB60F9211242F933F934F935F93E3
:100970006F937F938F939F93AF93BF93EF93FF9367
:10098000E0910A01F0910B01309709F00995FF9170
:10099000EF91BF91AF919F918F917F916F915F91F7
:1009A0004F913F912F910F900FBE0F901F90189570
:1009B0001F920F920FB60F9211242F933F934F93D4
:1009C0005F936F937F938F939F93AF93BF93EF93B7
:1009D000FF93E0910801F0910901309709F0099522
:1009E000FF91EF91BF91AF919F918F917F916F9107
:1009F0005F914F913F912F910F900FBE0F901F90DD
:100A0000189593B7892B83BF83B7682B63BF08956D
:100A1000682F70E080E090E00E94480820E030E01D
:100A200048EC52E40E94A70720E030E04FE753E48F
:100A30000E94D6080E9419086CBF08951F920F9259
:100A40000FB60F9211242F933F934F935F936F93A1
:100A50007F938F939F93AF93BF93EF93FF93E09117
:100A60000C01F0910D01309709F00995FF91EF917C
:100A7000BF91AF919F918F917F916F915F914F91B6
:100A80003F912F910F900FBE0F901F90189595B525
:100A9000892B85BD089595B5892B85BD089584BDA5
:100AA000089589B7806489BF089590931101809358
:100AB000100108951F920F920FB60F9211242F93D9
:100AC0003F934F935F936F937F938F939F93AF93D6
:100AD000BF93EF93FF93E0911001F09111013097D4
:100AE00009F00995FF91EF91BF91AF919F918F917F
:100AF0007F916F915F914F913F912F910F900FBE1A
:100B00000F901F9018951F920F920FB60F921124FD
:100B10002F933F934F935F936F937F938F939F9305
:100B2000AF93BF93EF93FF93E0910E01F0910F010C
:100B3000309709F00995FF91EF91BF91AF919F9187
:100B40008F917F916F915F914F913F912F910F9076
:100B50000FBE0F901F9018951F920F920FB60F9215
:100B600011248F939F939CB180911B01981731F0B2
:100B70008CB180931B0181E0809312019F918F9132
:100B80000F900FBE0F901F9018950E9463000E9457
:100B90000202ECE1F1E081E080838CE1818385E178
:100BA00082830895ECE1F1E0908181E089278083E0
:100BB0000895DC0111962C911197ECE1F1E021836D
:100BC00012968C918283089560911C0170911D0191
:100BD00080911E01089580911C01882391F081303D
:100BE00091F40E94050290911D01981718F40E943B
:100BF0006900089590911E01891728F40E946F00E2
:100C000008950E946F0008950E94750008958091D4
:100C10006100882329F0813029F40E948100089521
:100C20000E949A000895809113018F5F80931301B1
:100C300086E00E944F050895FC018081882319F009
:100C4000813049F0089560E080E00E94AD018EE3BC
:100C50000E94BC01089560E081E00E94AD018EE336
:100C60000E94BC0108950F931F93CF93DF93EC0173
:100C70008B0161E080E00E94AD018881882319F03A
:100C8000813009F134C088ED90E00E94BF01F80185
:100C90008081811103C08AE990E002C083ED90E079
:100CA0000E94BF0161E081E00E94AD018CED90E007
:100CB0000E94BF01F801818190E00E94D50183E488
:100CC0000E94BC0114C086EE90E00E94BF01F801B2
:100CD000828190E00E94D50183E40E94BC0161E022
:100CE00081E00E94AD018CEC90E00E94BF01DF9199
:100CF000CF911F910F910895FC01DB019C919923E5
:100D000019F09130B1F00895309719F0319769F0EA
:100D10000895FA018081882319F081508083089515
:100D2000208381E0FB018083089581E0DB018C93C7
:100D30000895309719F0319721F00895FB01108242
:100D40000895DA018C91821718F48F5F8C930895BF
:100D5000FA011082DB011C9208950F931F93CF9329
:100D6000DF93EC018B010E949E008234910551F0CB
:100D70008334910559F08134910551F488818F5F56
:100D8000888306C088818150888302C0F801108260
:100D9000DF91CF911F910F910895CF93DF93EC01D5
:100DA00080911A01811104C00E949E008093190154
:100DB000809119018F3F39F080911A01811103C090
:100DC00081E00E94C1000E94E405609316017093C7
:100DD00017018093180166E171E085E191E00E94BE
:100DE000330684E191E00E941C068091190182344F
:100DF000E1F0833489F1813409F084C021E045E1D8
:100E000051E064E171E080E090E00E947C0681E0C6
:100E10000E94C10066E171E085E191E00E94330625
:100E200084E191E00E941C066DC021E045E151E0A3
:100E300064E171E081E090E00E947C0681E00E9424
:100E4000C10066E171E085E191E00E94330684E132
:100E500091E00E941C0656C020911501809114015A
:100E600090E0820F911D8130910571F01CF4892B67
:100E700041F048C08230910529F1039709F440C040
:100E800041C00E94D2053EC081E080931A016AE110
:100E900071E087E191E00E94AD06E6E1F1E0818139
:100EA000813208F080E290911801891708F4892FA7
:100EB000818380911A01811125C086E191E00E9411
:100EC000D90520C081E080931A016AE171E088E1D0
:100ED00091E00E94AD06E6E1F1E08281823108F402
:100EE00082E190911701981708F4892F82838091ED
:100EF0001A01811107C086E191E00E94D90502C064
:100F000083E08883DF91CF91089581E08093620030
:100F100082E690E00E94CD0608950E94AB0480E036
:100F20000E94470586E00E944F0583E196E00E94FB
:100F300055050E94510583E00E944B0547E050E0B3
:100F400064E070E081E090E00E94420208950E9417
:100F5000BB070C949C080E94950858F00E948E08CC
:100F600040F029F45F3F29F00C94850851110C944E
:100F7000D0080C948B080E94AD0868F39923B1F354
:100F8000552391F3951B550BBB27AA2762177307AF
:100F9000840738F09F5F5F4F220F331F441FAA1F43
:100FA000A9F335D00E2E3AF0E0E832D091505040FF
:100FB000E695001CCAF72BD0FE2F29D0660F771FAD
:100FC000881FBB1F261737074807AB07B0E809F093
:100FD000BB0B802DBF01FF2793585F4F3AF09E3F18
:100FE000510578F00C9485080C94D0085F3FE4F329
:100FF000983ED4F3869577956795B795F7959F5F5B
:10100000C9F7880F911D9695879597F90895E1E0A6
:10101000660F771F881FBB1F621773078407BA0705
:1010200020F0621B730B840BBA0BEE1F88F7E09560
:1010300008950E94B50888F09F5798F0B92F992716
:10104000B751B0F0E1F0660F771F881F991F1AF0B3
:10105000BA95C9F714C0B13091F00E94CF08B1E041
:1010600008950C94CF08672F782F8827B85F39F040
:10107000B93FCCF3869577956795B395D9F73EF44C
:1010800090958095709561957F4F8F4F9F4F0895F4
:10109000E89409C097FB3EF4909580957095619512
:1010A0007F4F8F4F9F4F9923A9F0F92F96E9BB27C8
:1010B0009395F695879577956795B795F111F8CF44
:1010C000FAF4BB0F11F460FF1BC06F5F7F4F8F4FAF
:1010D0009F4F16C0882311F096E911C0772321F0A5
:1010E0009EE8872F762F05C0662371F096E8862F3D
:1010F00070E060E02AF09A95660F771F881FDAF794
:10110000880F9695879597F9089597F99F6780E8D6
:1011100070E060E008959FEF80EC089500240A9449
:101120001616170618060906089500240A941216C2
:101130001306140605060895092E0394000C11F4F5
:10114000882352F0BB0F40F4BF2B11F460FF04C0A2
:101150006F5F7F4F8F4F9F4F089557FD9058440FFB
:10116000551F59F05F3F71F04795880F97FB991F06
:1011700061F09F3F79F087950895121613061406C3
:10118000551FF2CF4695F1DF08C016161706180650
:10119000991FF1CF86957105610508940895E8942B
:1011A000BB2766277727CB0197F908950E94E908A6
:1011B0000C949C080E948E0838F00E94950820F03C
:1011C000952311F00C9485080C948B0811240C9431
:1011D000D0080E94AD0870F3959FC1F3950F50E0C1
:1011E000551F629FF001729FBB27F00DB11D639FD9
:1011F000AA27F00DB11DAA1F649F6627B00DA11D7F
:10120000661F829F2227B00DA11D621F739FB00D24
:10121000A11D621F839FA00D611D221F749F332794
:10122000A00D611D231F849F600D211D822F762F2D
:101230006A2F11249F5750409AF0F1F088234AF00A
:10124000EE0FFF1FBB1F661F771F881F9150504076
:10125000A9F79E3F510580F00C9485080C94D008A6
:101260005F3FE4F3983ED4F3869577956795B795FD
:10127000F795E7959F5FC1F7FE2B880F911D969517
:10128000879597F90895AEE0B0E0E9E4F9E00C94B1
:10129000040C0D891E8986E08C831A8309838FEFE5
:1012A0009FE79E838D83AE01475E5F4F6F89788D88
:1012B000CE0101960E946509EF81F885E00FF11FCC
:1012C00010822E96E4E00C94200CABE0B0E0EBE64C
:1012D000F9E00C94F60B6C017B018A01FC0117828A
:1012E0001682838181FFCCC1CE0101963C01F601BB
:1012F0009381F70193FD859193FF81917F0188236D
:1013000009F4BAC1853239F493FD859193FF819137
:101310007F01853229F4B60190E00E945C0BE7CF93
:10132000912C212C312CFFE1F315D8F08B3279F080
:1013300038F4803279F08332A1F4232D20611DC06E
:101340008D3261F0803369F4232D216016C0832D26
:101350008260382EE32DE4603E2E2AC0F32DF86023
:101360001DC037FC2DC020ED280F2A3040F08E32F2
:10137000B9F436FC81C1232D2064322E19C036FE0B
:1013800006C08AE0989E200D1124922E11C0EAE03A
:101390002E9E200D1124222EF32DF0623F2E08C028
:1013A0008C3621F4832D8068382E02C0883641F4B3
:1013B000F70193FD859193FF81917F018111B3CF57
:1013C000982F9F7D9554933028F40C5F1F4F9FE317
:1013D00099830DC0833631F0833771F0833509F07E
:1013E00059C021C0F801808189830E5F1F4F882476
:1013F0008394912C530113C02801F2E04F0E511C2D
:10140000F801A080B18036FE03C0692D70E002C0F3
:101410006FEF7FEFC5010E94510B4C018201F32D4C
:10142000FF773F2E16C0280122E0420E511CF80122
:10143000A080B18036FE03C0692D70E002C06FEF5E
:101440007FEFC5010E94460B4C01F32DF0683F2E43
:10145000820133FC1BC0822D90E088169906B0F4FF
:10146000B60180E290E00E945C0B2A94F4CFF50173
:1014700037FC859137FE81915F01B60190E00E94B3
:101480005C0B21102A9421E0821A910881149104A6
:1014900071F7E8C0843611F0893641F5F80137FE5E
:1014A00007C060817181828193810C5F1F4F08C0EA
:1014B00060817181072E000C880B990B0E5F1F4F06
:1014C000F32DFF763F2E97FF09C09095809570957C
:1014D00061957F4F8F4F9F4FF0683F2E2AE030E09D
:1014E000A3010E94980B882E861845C0853731F4D9
:1014F000232D2F7EB22E2AE030E025C0932D997F38
:10150000B92E8F36C1F018F4883579F0B5C0803720
:1015100019F0883721F0B0C0E92FE061BE2EB4FE8B
:101520000DC0FB2DF460BF2E09C034FE0AC0292F68
:101530002660B22E06C028E030E005C020E130E091
:1015400002C020E132E0F801B7FE07C0608171817E
:10155000828193810C5F1F4F06C06081718180E0A2
:1015600090E00E5F1F4FA3010E94980B882E8618F3
:10157000FB2DFF773F2E36FE0DC0232D2E7FA22E92
:10158000891458F434FE0BC032FC09C0832D8E7EC2
:10159000A82E05C0B82CA32C03C0B82C01C0B92CB0
:1015A000A4FE0FC0FE01E80DF11D8081803321F4FF
:1015B0009A2D997EA92E09C0A2FE06C0B394B394B9
:1015C00004C08A2D867809F0B394A3FC11C0A0FE54
:1015D00006C0B21488F4280C922C9B180EC0B214CA
:1015E00060F4B60180E290E00E945C0BB394F7CF08
:1015F000B21418F42B1802C0982C212CA4FE10C091
:10160000B60180E390E00E945C0BA2FE17C0A1FC33
:1016100003C088E790E002C088E590E0B6010CC006
:101620008A2D867859F0A1FE02C08BE201C080E2CB
:10163000A7FC8DE2B60190E00E945C0B891438F49F
:10164000B60180E390E00E945C0B9A94F7CF8A94F5
:10165000F301E80DF11D8081B60190E00E945C0B62
:101660008110F5CF222009F442CEB60180E290E04D
:101670000E945C0B2A94F6CFF6018681978102C006
:101680008FEF9FEF2B96E2E10C94120CFC0105907A
:10169000615070400110D8F7809590958E0F9F1F74
:1016A0000895FC016150704001900110D8F78095B9
:1016B00090958E0F9F1F08950F931F93CF93DF93E5
:1016C000FB01238121FD03C08FEF9FEF2CC022FF80
:1016D00016C046815781248135814217530744F44F
:1016E000A081B1819D012F5F3F4F318320838C9377
:1016F000268137812F5F3F4F3783268314C08B01AC
:10170000EC01FB010084F185E02D0995892BE1F6C0
:10171000D80116968D919C911797019617969C93D8
:101720008E931697CE01DF91CF911F910F9108955F
:10173000FA01AA27283051F1203181F1E8946F9302
:101740006E7F6E5F7F4F8F4F9F4FAF4FB1E03ED0A8
:10175000B4E03CD0670F781F891F9A1FA11D680F46
:10176000791F8A1F911DA11D6A0F711D811D911D79
:10177000A11D20D009F468943F912AE0269F1124EE
:101780003019305D3193DEF6CF010895462F477052
:10179000405D4193B3E00FD0C9F7F6CF462F4F70AD
:1017A000405D4A3318F0495D31FD4052419302D00B
:1017B000A9F7EACFB4E0A6959795879577956795B1
:1017C000BA95C9F700976105710508959B01AC01B1
:1017D0000A2E06945795479537952795BA95C9F7D8
:1017E000620F731F841F951FA01D08952F923F92B3
:1017F0004F925F926F927F928F929F92AF92BF9221
:10180000CF92DF92EF92FF920F931F93CF93DF93CC
:10181000CDB7DEB7CA1BDB0B0FB6F894DEBF0FBE29
:10182000CDBF09942A88398848885F846E847D8476
:101830008C849B84AA84B984C884DF80EE80FD8078
:101840000C811B81AA81B981CE0FD11D0FB6F894EE
:0E185000DEBF0FBECDBFED010895F894FFCFAF
:10185E00FF010325640023002A440102034304050B
:10186E000642070809414C4544204F4E2F4F46462D
:10187E0000414320436F6E74726F6C004C6F672D86
:10188E006F7574005B4F4E5D20005B4F46465D00EA
:10189E004C616D703120004C616D703220004C61D6
:1018AE006D703320004C616D703420004C616D7092
:1018BE0035200044696D4C616D7020005265747561
:1018CE00726E005B4F4E5D004143200052756E20DC
:1018DE0054656D703A0053746F702054656D703A94
:1018EE000061637469766520646576696365733A31
:0218FE000000E8
:00000001FF
