:100000000C9431000C944E000C944E000C944E0055
:100010000C9409050C94E0040C944E000C944E00D2
:100020000C944E000C9492040C944C040C942304F5
:100030000C944E000C9453050C944E000C944E00FE
:100040000C944E000C944E000C944E000C944E00F8
:100050000C944E00D407D807DC07E007E407E80754
:10006000EB0711241FBECFE5D8E0DEBFCDBF13E004
:10007000A0E6B0E0ECEDF1E202C005900D92AC39E3
:10008000B107D9F725E0ACE9B3E001C01D92AB3C64
:10009000B207E1F70E9450000C94EC100C940000A1
:1000A0000E947E050E94BD050E94F0050E94DF08A7
:1000B0000E946C0187E690E00E9432050E948B0945
:1000C0000E948F060E94B4000E94A4050E94F305BE
:1000D0000E94BD080E94170C2FEF83ED90E3215082
:1000E00080409040E1F700C00000EECF41E066E0C4
:1000F00080E00E94B402089541E066E080E00E9442
:100100002903089540E066E080E00E9429030895F5
:1001100061E088E60E9475040E94430241E063E0CA
:1001200081E00E94B40208950E944602BC0180E072
:1001300090E00E94C10C20E030EC4FE754E40E94B4
:10014000200C20E030E048EC52E40E944F0D0E9469
:10015000920C862F0E947C04089580E00E947C040B
:1001600008950E943E0208950E944A020895CF9386
:10017000C82F0E946402EC2FF0E0E456FC4F9081FF
:1001800081E089278083CF9108958FE99FE00197CF
:10019000F1F700C0000041E064E082E00E94290322
:1001A0008FE99FE00197F1F700C0000040E064E0B4
:1001B00082E00E9429038FE99FE00197F1F700C0D8
:1001C00000000895CF93C82F40E066E082E00E94CF
:1001D0002903C4FB442740F960E082E00E94290320
:1001E000C5FB442740F961E082E00E942903C6FB79
:1001F000442740F962E082E00E9429034C2F441F0B
:100200004427441F63E082E00E9429030E94C50046
:100210004C2F417060E082E00E942903C1FB44271B
:1002200040F961E082E00E942903C2FB442740F9C3
:1002300062E082E00E942903C3FB442740F963E0A7
:1002400082E00E9429030E94C500CF910895CF93B8
:10025000C82F41E066E082E00E942903C4FB4427E6
:1002600040F960E082E00E942903C5FB442740F981
:1002700061E082E00E942903C6FB442740F962E066
:1002800082E00E9429034C2F441F4427441F63E04F
:1002900082E00E9429030E94C5004C2F417060E05B
:1002A00082E00E942903C1FB442740F961E082E01B
:1002B0000E942903C2FB442740F962E082E00E94C9
:1002C0002903C3FB442740F963E082E00E9429032D
:1002D0000E94C500CF91089541E066E082E00E944F
:1002E000B40241E065E082E00E94B40241E064E0D3
:1002F00082E00E94B40241E060E082E00E94B40229
:1003000041E061E082E00E94B40241E062E082E00C
:100310000E94B40241E063E082E00E94B40240E047
:1003200065E082E00E94290380E00E9427012FEF10
:1003300086E791E0215080409040E1F700C0000046
:1003400083E00E94E2008FE19EE40197F1F700C094
:10035000000083E00E94E20087E592E00197F1F758
:1003600000C0000083E00E94E20082E00E94E20000
:1003700082E00E94E20088E20E94E20088E00E949F
:10038000E20080E00E94E2008CE00E94E20080E057
:100390000E94E20086E00E94E2000895882319F09E
:1003A000813031F0089580E8860F0E94E2000895C0
:1003B00080EC860F0E94E20008950E9427010895B4
:1003C0000F931F93CF93FC018081882359F08F01F5
:1003D000C0E00E942701CF5FF801EC0FF11D808182
:1003E0008111F7CFCF911F910F9108950F931F9314
:1003F000CF93DF93CDB7DEB7A1970FB6F894DEBFEA
:100400000FBECDBF9F938F9382E690E09F938F9313
:100410008E010F5F1F4F1F930F930E94020EC801A2
:100420000E94E0010F900F900F900F900F900F908F
:10043000A1960FB6F894DEBF0FBECDBFDF91CF916E
:100440001F910F9108950E94A102089585E00E94D6
:10045000A702BC0180E090E00E94C10C2AE137E6CF
:100460004CE950E40E944F0D20E030E040E251E4BE
:100470000E94200C0E94920CCB0108958091A10350
:100480001092A10308950E94A102089587E00E949E
:10049000A702089541E060E080E00E94B40241E0DC
:1004A00061E080E00E94B40241E062E080E00E94EE
:1004B000B40241E063E080E00E94B40241E064E005
:1004C00080E00E94B40208958330A9F028F48130BE
:1004D00041F0823059F00895843091F08530A9F0D0
:1004E000089560E080E00E949E03089561E080E04E
:1004F0000E949E03089562E080E00E949E0308959A
:1005000063E080E00E949E03089564E080E00E9422
:100510009E030895CF92EF920F93CF93C22F0E9424
:10052000B4028C2D0E94C5044E2D602F8C2F0E948A
:10053000BB04CF910F91EF90CF9008950E94C90412
:100540000895379A86B1876086B93E9A089597B123
:10055000907E97B997B1892B87B9369A349BFECF95
:10056000349A84B195B10895813011F130F0823020
:10057000D1F1833009F452C00895413059F42AB3BF
:1005800081E090E002C0880F991F6A95E2F7822B04
:100590008ABB089541115CC02AB381E090E002C09B
:1005A000880F991F6A95E2F7809582238ABB089588
:1005B000413059F427B381E090E002C0880F991FC1
:1005C0006A95E2F7822B87BB0895411141C027B39A
:1005D00081E090E002C0880F991F6A95E2F780954C
:1005E000822387BB0895413059F424B381E090E021
:1005F00002C0880F991F6A95E2F7822B84BB089589
:10060000411126C024B381E090E002C0880F991FF9
:100610006A95E2F78095822384BB0895413059F4AE
:1006200021B381E090E002C0880F991F6A95E2F73C
:10063000822B81BB089541110BC021B381E090E072
:1006400002C0880F991F6A95E2F78095822381BBCB
:100650000895813011F130F08230D1F1833009F406
:1006600052C00895413059F42BB381E090E002C0AC
:10067000880F991F6A95E2F7822B8BBB0895411171
:100680005CC02BB381E090E002C0880F991F6A958F
:10069000E2F7809582238BBB0895413059F428B34B
:1006A00081E090E002C0880F991F6A95E2F7822BE3
:1006B00088BB0895411141C028B381E090E002C099
:1006C000880F991F6A95E2F78095822388BB089569
:1006D000413059F425B381E090E002C0880F991FA2
:1006E0006A95E2F7822B85BB0895411126C025B398
:1006F00081E090E002C0880F991F6A95E2F780952B
:10070000822385BB0895413059F422B381E090E003
:1007100002C0880F991F6A95E2F7822B82BB089569
:1007200041110BC022B381E090E002C0880F991FF5
:100730006A95E2F78095822382BB0895813089F023
:1007400028F08230C9F0833011F108952BB381E095
:1007500090E002C0880F991F6A95E2F782278BBB51
:10076000089528B381E090E002C0880F991F6A9530
:10077000E2F7822788BB089525B381E090E002C0AC
:10078000880F991F6A95E2F7822785BB089522B3E7
:1007900081E090E002C0880F991F6A95E2F78227F6
:1007A00082BB0895E199FECF9FBB8EBB6DBBE29AE1
:1007B000E19A0895E199FECF9FBB8EBBE09A8DB37D
:1007C0000895EF92FF920F931F93CF93DF938C01C5
:1007D000EB017B01E40EF11C6E157F0550F4F8016E
:1007E00061918F01CE010E94D2032196CE15DF05C3
:1007F000B0F3DF91CF911F910F91FF90EF9008958B
:10080000EF92FF920F931F93CF93DF938C01EB0135
:100810007B01E40EF11C6E157F0550F4CE010E94A1
:10082000DA03F80181938F012196CE15DF05B0F32D
:10083000DF91CF911F910F91FF90EF9008958FB7A7
:1008400080688FBF08951F920F920FB60F921124E8
:100850002F933F934F935F936F937F938F939F93C8
:10086000AF93BF93EF93FF93E091A403F091A5039F
:10087000309709F00995FF91EF91BF91AF919F914A
:100880008F917F916F915F914F913F912F910F9039
:100890000FBE0F901F9018951F920F920FB60F92D8
:1008A00011242F933F934F935F936F937F938F9375
:1008B0009F93AF93BF93EF93FF93E091A203F091C7
:1008C000A303309709F00995FF91EF91BF91AF9184
:1008D0009F918F917F916F915F914F913F912F9158
:1008E0000F900FBE0F901F90189593B7892B83BF61
:1008F00083B7682B63BF0895682F70E080E090E0B5
:100900000E94C10C20E030E048EC52E40E94200C30
:1009100020E030E04FE753E40E944F0D0E94920C1C
:100920006CBF08951F920F920FB60F9211242F9350
:100930003F934F935F936F937F938F939F93AF9367
:10094000BF93EF93FF93E091A603F091A703309735
:1009500009F00995FF91EF91BF91AF919F918F9110
:100960007F916F915F914F913F912F910F900FBEAB
:100970000F901F9018959FB5892B8FBD8EB5682B52
:100980006EBD8EB5482B4EBD089590E097BD86BDD7
:10099000089590E09BBD8ABD089595B5892B85BDCE
:1009A000089595B5892B85BD089584BD089589B7AF
:1009B000806489BF08959093AB038093AA03089540
:1009C0001F920F920FB60F9211242F933F934F93C4
:1009D0005F936F937F938F939F93AF93BF93EF93A7
:1009E000FF93E091AA03F091AB03309709F00995CA
:1009F000FF91EF91BF91AF919F918F917F916F91F7
:100A00005F914F913F912F910F900FBE0F901F90CC
:100A100018951F920F920FB60F9211242F933F93A8
:100A20004F935F936F937F938F939F93AF93BF93F6
:100A3000EF93FF93E091A803F091A903309709F099
:100A40000995FF91EF91BF91AF919F918F917F9108
:100A50006F915F914F913F912F910F900FBE0F902B
:100A60001F90189589B990BD539A549A579A86E861
:100A700080BD08955D9BFECF8CB90895CF93DF9321
:100A8000EC018881882331F021960E943A058991F2
:100A90008111FBCFDF91CF9108958091BF039FEF2C
:100AA0009093BF0308951F920F920FB60F921124D7
:100AB0008F938CB18093BF038F910F900FBE0F90D7
:100AC0001F901895DC018091BF039FEF9093BF03A7
:100AD0008C938F3F91F0833271F090E08FEF9F5FA6
:100AE000FD01E90FF11D2091BF038093BF03208317
:100AF0002332A9F701C0FD01108208950E947600FB
:100B00000E942302E0ECF3E081E080838CE18183AA
:100B100085E182830895E0ECF3E0908181E089270C
:100B200080830895DC0111962C911197E0ECF3E09D
:100B3000218312968C91828308956091C0037091F5
:100B4000C1038091C20308958091C003882391F06E
:100B5000813091F40E9426029091C103981718F4F5
:100B60000E947C0008959091C203891728F40E9486
:100B7000820008950E9482000895CF92DF92EF9242
:100B80000F930F2EF7E8CF2EF3E1DF2EF02D0F2E6F
:100B9000F3E0EF2EF02D08E122E841E065E083E08C
:100BA0000E948A020F91EF90DF90CF90089588E520
:100BB00092E00E949E0281E08093AC0308958EE54E
:100BC00091E00E949E021092AC0308958091AC03C4
:100BD000811103C00E94D70508950E94DF05089582
:100BE0000E948800089580916000882329F0813058
:100BF00029F40E94940008950E94AD0008959091F8
:100C0000600081E089278093600008950F931F930F
:100C1000CF93DF938C018AE1689FE0011124BE012C
:100C20006F5F7F4F40E1C8010E94E103BE016F5E2C
:100C30007F4F49E0C80140960E94E103F801618DB1
:100C4000CE014A960E94D203DF91CF911F910F915E
:100C500008950F931F93CF93DF938C018AE1689FD0
:100C6000E0011124BE016F5F7F4F40E1C8010E9487
:100C70000004BE016F5E7F4F49E0C80140960E94AC
:100C80000004CE014A960E94DA03F801818FDF91B9
:100C9000CF911F910F910895CF92DF92EF92FF9223
:100CA0000F931F93CF93C091AD03CA3038F56B01FA
:100CB000BC018AE1C89F80011124F801ED53FC4F6B
:100CC0007F01CF010E94CB0DB601C8018D529C4F10
:100CD0000E94CB0D81E08C0FF701818F6C2F83EC8C
:100CE00093E00E9406066091AD036F5F6093AD03D1
:100CF0008FE090E00E94D20380E001C081E0CF91BC
:100D00001F910F91FF90EF90DF90CF9008958A3060
:100D100028F49B01682FC9010E9429060895CF93EA
:100D20008FE090E00E94DA038F3F39F46091AD03C9
:100D30008FE090E00E94D20313C08FE090E00E9409
:100D4000DA038093AD03882359F0C0E063EC73E0CD
:100D50008C2F0E948706CF5F8091AD03C817B0F338
:100D6000CF9108951092AE0308958091AF038F5FE5
:100D70008093AF0386E00E94D5040895FC01808132
:100D8000882319F0813049F0089560E080E00E94E6
:100D9000CE018EE30E94DD01089560E081E00E94B3
:100DA000CE018EE30E94DD010895CF93DF93EC0125
:100DB00061E080E00E94CE018881882319F08130B3
:100DC00071F019C085E690E00E94E00161E081E0E9
:100DD0000E94CE0180E790E00E94E0010CC080E715
:100DE00090E00E94E00161E081E00E94CE018BE78B
:100DF00090E00E94E001DF91CF9108950F931F933F
:100E0000CF93DF93EC018B0161E080E00E94CE0183
:100E10008881882319F0813009F134C081EC90E099
:100E20000E94E001F8018081811103C088E890E010
:100E300002C083E890E00E94E00161E081E00E944E
:100E4000CE0185EC90E00E94E001F801818190E004
:100E50000E94F60183E40E94DD0114C08FEC90E053
:100E60000E94E001F801828190E00E94F60183E493
:100E70000E94DD0161E081E00E94CE018AEB90E0FA
:100E80000E94E001DF91CF911F910F9108950F9380
:100E90001F93CF938C010E94B100C82F882359F073
:100EA00081E00E94E2008AEB93E00E94D50689EB84
:100EB00093E00E94BE06C23481F0C434C9F0C1344C
:100EC00079F58091BA03882321F081508093BA0389
:100ED00027C081E08093BA0323C08091BA038111B7
:100EE00004C081E08093BA031BC01092BA0318C0FB
:100EF0002091BA038091B90390E0820F911D813057
:100F0000910541F08230910549F0892B49F4F801AF
:100F1000108206C081E0F801808302C00E94B20600
:100F2000CF911F910F9108950F931F93CF938C0131
:100F30000E94B100C82F882359F081E00E94E2008E
:100F400081EB93E00E94D50680EB93E00E94BE0601
:100F5000C23489F0C334D1F0C13409F03FC080916C
:100F6000B103882321F081508093B10337C085E01D
:100F70008093B10333C08091B103853020F48F5F3B
:100F80008093B1032BC01092B10328C08091B103AC
:100F9000E091B003F0E0E80FF11DE730F105F0F467
:100FA000E65DFF4F0C94BC0D81E00E94B70016C0B7
:100FB00082E00E94B70012C083E00E94B7000EC01A
:100FC00084E00E94B7000AC085E00E94B70006C016
:100FD0000E94FF0503C083E0F8018083CF911F9139
:100FE0000F9108950F931F93CF93DF93EC018B0123
:100FF0000E94B100823441F0833451F0813451F4C5
:1010000088818F5F888306C088818150888302C071
:10101000F8011082DF91CF911F910F910895CF9326
:10102000DF93EC018091B803811104C00E94B100EC
:101030008093B7038091B7038823A9F00E949D0590
:101040006093B4037093B5038093B60381E00E946C
:10105000E20064EB73E083EB93E00E94FE0682EB18
:1010600093E00E94BE068091B703823489F08334F6
:10107000D1F0813409F06DC08091B303882321F051
:1010800081508093B30365C081E08093B30361C056
:101090008091B303811104C081E08093B30359C0F0
:1010A0001092B30356C02091B3038091B20390E035
:1010B000820F911D8130910571F01CF4892B41F054
:1010C00048C08230910529F1039709F440C041C01E
:1010D0000E948B053EC081E08093B80368EB73E00B
:1010E00085EB93E00E94F207E4EBF3E0818181322B
:1010F00008F080E29091B603891708F4892F818364
:101100008091B803811125C084EB93E00E94920581
:1011100020C081E08093B80368EB73E086EB93E036
:101120000E94F207E4EBF3E08281823108F482E16D
:101130009091B503981708F4892F82838091B803A2
:10114000811107C084EB93E00E94920502C083E006
:101150008883DF91CF91089581E00E94E2008AEDBB
:1011600090E00E94E00167E081E00E94CE01809162
:10117000BC0390E00E94F60108958091BB038111A9
:101180001BC080916100813041F060F0833079F4C0
:1011900081E690E00E944707089581E690E00E9472
:1011A0000F08089581E690E00E94940708958AEE62
:1011B00090E00E94E00108950E94AC0808950E940A
:1011C0001F0480E00E94CD0486E00E94D50485EBD8
:1011D00096E00E94DB040E94D70483E00E94D104C1
:1011E0000895CF93DF93EC0180EF90E00E943E05DD
:1011F000CE010E9462058BE492E00E943E05DF91E1
:10120000CF9108950F931F93CF93DF938C018AE1C1
:10121000689FE0011124CF5FDD4F40E1BE01C801AE
:101220000E94E103BE01605F7F4F49E0C801409624
:101230000E94E103F801618DCE0149960E94D2031C
:10124000DF91CF911F910F9108950F931F93CF932B
:10125000DF938C018AE1689FE0011124CF5FDD4FAD
:1012600040E1BE01C8010E940004BE01605F7F4FE3
:1012700049E0C80140960E940004CE0149960E94B0
:10128000DA03F801818FDF91CF911F910F910895BB
:10129000CF92DF92EF92FF920F931F93CF93C09163
:1012A000BD03CA3038F56B01BC018AE1C89F8001DB
:1012B0001124F801E953FB4F7F01CF010E94CB0DB0
:1012C000B601C80189529B4F0E94CB0D81E08C0F63
:1012D000F701818F6C2F87EC94E00E9402096091E6
:1012E000BD036F5F6093BD0380E090E00E94D20376
:1012F00080E001C081E0CF911F910F91FF90EF90AE
:10130000DF90CF9008958A3028F49B01682FC9019F
:101310000E9425090895CF9380E090E00E94DA03AF
:101320008F3F39F46091BD0380E090E00E94D203CA
:1013300013C080E090E00E94DA038093BD0388230D
:1013400059F0C0E067EC74E08C2F0E948309CF5FF6
:101350008091BD03C817B0F387E690E00E94320584
:10136000CF910895BF92CF92DF92EF92FF920F93A9
:101370001F93CF93DF93CDB7DEB7E2970FB6F89404
:10138000DEBF0FBECDBF80E091E00E943E058091A0
:10139000BD03882371F110E00F2EFAE1BF2EF02D6E
:1013A0000F2EF7E1CF2EF1E0DF2EF02D02E3CE017C
:1013B00001967C01B19EF0011124E953FB4F818D10
:1013C0001F928F93FF93EF93DF92CF921F920F9311
:1013D000FF92EF920E94D20DC7010E943E051F5F4F
:1013E0000FB6F894DEBF0FBECDBF8091BD031817B6
:1013F00008F3E2960FB6F894DEBF0FBECDBFDF91C3
:10140000CF911F910F91FF90EF90DF90CF90BF9001
:1014100008950F931F93CF93DF93CDB7DEB729972E
:101420000FB6F894DEBF0FBECDBF81E391E00E94FE
:101430003E050E944D05182F00ED080F8BE492E049
:101440000E943E0511531A3010F5CE0101960E94FC
:10145000F108802F90E001972AE1289FB001299F91
:10146000700D112469527B4FCE0101960E94C20D6E
:10147000892B41F480E491E00E943E0581E0809355
:10148000BE0309C082E591E00E943E0504C08DE6DE
:1014900091E00E943E05802F29960FB6F894DEBF9A
:1014A0000FBECDBFDF91CF911F910F910895809115
:1014B000BE031092BE0308951092BE030895CF9309
:1014C000DF93CDB7DEB769970FB6F894DEBF0FBED6
:1014D000CDBF80E090E00E94DA0381112DC088E842
:1014E00091E00E943E058EE991E00E943E05CE010A
:1014F00001960E9462058BE492E00E943E05CE01B7
:1015000041960E94F108BE016F5E7F4FCE010196A9
:101510000E944809811105C08FEA91E00E943E05B2
:101520000BC0813029F488EC91E00E943E0504C094
:1015300083EE91E00E943E0569960FB6F894DEBFF7
:101540000FBECDBFDF91CF910895CF93DF93CDB77D
:10155000DEB769970FB6F894DEBF0FBECDBF8FEF31
:1015600091E00E943E058EE991E00E943E05CE0189
:1015700001960E946205CE0141960E94F108BE01CB
:101580006F5E7F4FCE0101960E944809811105C010
:101590008FEA91E00E943E050BC0813029F488EC6F
:1015A00091E00E943E0504C083EE91E00E943E055A
:1015B00069960FB6F894DEBF0FBECDBFDF91CF9115
:1015C0000895CF93DF93CDB7DEB769970FB6F89440
:1015D000DEBF0FBECDBF8FEF91E00E943E058EE9CA
:1015E00091E00E943E05CE0101960E946205CE0167
:1015F00041960E94F108BE016F5E7F4FCE010196B9
:101600000E944C06811105C08FEA91E00E943E05C0
:101610000BC0813029F488EC91E00E943E0504C0A3
:1016200083EE91E00E943E0569960FB6F894DEBF06
:101630000FBECDBFDF91CF91089584E192E00E946B
:101640003E058FE192E00E943E058DE492E00E940B
:101650003E0587E592E00E943E0581E692E00E9409
:101660003E058BE692E00E943E0585E792E00E94EF
:101670003E058FE792E00E943E050E944D05805393
:101680008330A1F028F4813049F0823059F01DC038
:101690008530A1F078F08630A9F017C081E00E9473
:1016A000B700089582E00E94B700089583E00E9489
:1016B000B700089584E00E94B700089585E00E9475
:1016C000B70008950E94FF0508958AE892E00E94FD
:1016D0003E0508958DEA92E00E943E050E949D0518
:1016E00061111AC00EC00E943E050E944D0584354E
:1016F00019F40E948B05089585EB92E00E943E0547
:10170000089588E890E00E943E0581EC92E00E94F6
:101710003E0583E890E0E7CF83E890E00E943E0535
:1017200081EC92E00E943E0588E890E0DCCF84EDF9
:1017300092E00E943E0580EE92E00E943E058AEE15
:1017400092E00E943E0581EF92E00E943E050E94D9
:101750004D05823339F0833341F0813359F40E94CF
:101760001D0B08950E946A0B08950E945C0A0E9456
:10177000BF0B08958AE892E00E943E0508950E94FA
:10178000B2090E94090A813039F40E94570A88235D
:1017900019F00E94D20B08950E94570A81110E94ED
:1017A000970B08958CEF92E00E943E0589E093E04C
:1017B0000E943E0584E293E00E943E058EE393E0A2
:1017C0000E943E0588E493E00E943E058FE493E08A
:1017D0000E943E058DE693E00E943E050E944D0565
:1017E000833391F028F4813349F0823351F01AC0E9
:1017F000853381F060F0863381F014C00E94A50A21
:1018000008950E94E10A08950E941D0B08950E9408
:101810006A0B08950E94E60508950E945C0A0E94E2
:10182000BF0B08958AE892E00E943E05089588E77C
:1018300093E00E943E050E945F0A0E94BF0B08953C
:101840000E94340C0C94150D0E940E0D58F00E944D
:10185000070D40F029F45F3F29F00C94FE0C511164
:101860000C94490D0C94040D0E94260D68F39923E5
:10187000B1F3552391F3951B550BBB27AA2762178C
:101880007307840738F09F5F5F4F220F331F441F99
:10189000AA1FA9F335D00E2E3AF0E0E832D09150CD
:1018A0005040E695001CCAF72BD0FE2F29D0660FBA
:1018B000771F881FBB1F261737074807AB07B0E8FD
:1018C00009F0BB0B802DBF01FF2793585F4F3AF003
:1018D0009E3F510578F00C94FE0C0C94490D5F3F2F
:1018E000E4F3983ED4F3869577956795B795F79589
:1018F0009F5FC9F7880F911D9695879597F9089571
:10190000E1E0660F771F881FBB1F6217730784070C
:10191000BA0720F0621B730B840BBA0BEE1F88F71B
:10192000E09508950E942E0D88F09F5798F0B92FEA
:101930009927B751B0F0E1F0660F771F881F991F04
:101940001AF0BA95C9F714C0B13091F00E94480D51
:10195000B1E008950C94480D672F782F8827B85F61
:1019600039F0B93FCCF3869577956795B395D9F75C
:101970003EF490958095709561957F4F8F4F9F4F66
:101980000895E89409C097FB3EF490958095709572
:1019900061957F4F8F4F9F4F9923A9F0F92F96E9BB
:1019A000BB279395F695879577956795B795F11130
:1019B000F8CFFAF4BB0F11F460FF1BC06F5F7F4FCD
:1019C0008F4F9F4F16C0882311F096E911C07723DF
:1019D00021F09EE8872F762F05C0662371F096E8E8
:1019E000862F70E060E02AF09A95660F771F881FB7
:1019F000DAF7880F9695879597F9089597F99F6775
:101A000080E870E060E008959FEF80EC0895002486
:101A10000A941616170618060906089500240A9453
:101A200012161306140605060895092E0394000CD9
:101A300011F4882352F0BB0F40F4BF2B11F460FF68
:101A400004C06F5F7F4F8F4F9F4F089557FD905891
:101A5000440F551F59F05F3F71F04795880F97FB72
:101A6000991F61F09F3F79F087950895121613062C
:101A70001406551FF2CF4695F1DF08C0161617065B
:101A80001806991FF1CF8695710561050894089590
:101A9000E894BB2766277727CB0197F908950E9422
:101AA000620D0C94150D0E94070D38F00E940E0D6A
:101AB00020F0952311F00C94FE0C0C94040D1124CD
:101AC0000C94490D0E94260D70F3959FC1F3950F5C
:101AD00050E0551F629FF001729FBB27F00DB11DB2
:101AE000639FAA27F00DB11DAA1F649F6627B00D42
:101AF000A11D661F829F2227B00DA11D621F739F2B
:101B0000B00DA11D621F839FA00D611D221F749F38
:101B10003327A00D611D231F849F600D211D822F7F
:101B2000762F6A2F11249F5750409AF0F1F08823A6
:101B30004AF0EE0FFF1FBB1F661F771F881F9150D3
:101B40005040A9F79E3F510580F00C94FE0C0C9478
:101B5000490D5F3FE4F3983ED4F3869577956795FA
:101B6000B795F795E7959F5FC1F7FE2B880F911DFD
:101B70009695879597F90895EE0FFF1F0590F491BC
:101B8000E02D0994FB01DC018D9101908019011079
:101B9000D9F3990B0895FB01DC0101900D9200200F
:101BA000E1F70895AEE0B0E0E8EDFDE00C94C3107D
:101BB0000D891E898F89988D26E02C831A830983CD
:101BC00097FF02C080E090E801979E838D83AE016D
:101BD000455E5F4F698D7A8DCE0101960E94240E7D
:101BE0004D815E8157FD0AC02F813885421753070A
:101BF0000CF49A01F801E20FF31F10822E96E4E034
:101C00000C94DF10AEE0B0E0E8E0FEE00C94C3100E
:101C10000D891E8986E08C831A8309838FEF9FE7E5
:101C20009E838D83AE01475E5F4F6F89788DCE01B5
:101C300001960E94240EEF81F885E00FF11F1082BB
:101C40002E96E4E00C94DF10ABE0B0E0EAE2FEE0B8
:101C50000C94B5106C017B018A01FC01178216827D
:101C6000838181FFCCC1CE0101963C01F6019381B5
:101C7000F70193FD859193FF81917F01882309F4FA
:101C8000BAC1853239F493FD859193FF81917F012B
:101C9000853229F4B60190E00E941B10E7CF912C09
:101CA000212C312CFFE1F315D8F08B3279F038F488
:101CB000803279F08332A1F4232D20611DC08D3252
:101CC00061F0803369F4232D216016C0832D82607A
:101CD000382EE32DE4603E2E2AC0F32DF8601DC09F
:101CE00037FC2DC020ED280F2A3040F08E32B9F499
:101CF00036FC81C1232D2064322E19C036FE06C069
:101D00008AE0989E200D1124922E11C0EAE02E9EAA
:101D1000200D1124222EF32DF0623F2E08C08C36A8
:101D200021F4832D8068382E02C0883641F4F701F3
:101D300093FD859193FF81917F018111B3CF982FFE
:101D40009F7D9554933028F40C5F1F4F9FE3998338
:101D50000DC0833631F0833771F0833509F059C0F7
:101D600021C0F801808189830E5F1F4F88248394EE
:101D7000912C530113C02801F2E04F0E511CF801C1
:101D8000A080B18036FE03C0692D70E002C06FEF05
:101D90007FEFC5010E9410104C018201F32DFF77E7
:101DA0003F2E16C0280122E0420E511CF801A080EF
:101DB000B18036FE03C0692D70E002C06FEF7FEF87
:101DC000C5010E9405104C01F32DF0683F2E8201E1
:101DD00033FC1BC0822D90E088169906B0F4B60142
:101DE00080E290E00E941B102A94F4CFF50137FCAA
:101DF000859137FE81915F01B60190E00E941B1032
:101E000021102A9421E0821A91088114910471F71B
:101E1000E8C0843611F0893641F5F80137FE07C075
:101E200060817181828193810C5F1F4F08C0608146
:101E30007181072E000C880B990B0E5F1F4FF32D3D
:101E4000FF763F2E97FF09C090958095709561951C
:101E50007F4F8F4F9F4FF0683F2E2AE030E0A30165
:101E60000E945710882E861845C0853731F4232DDF
:101E70002F7EB22E2AE030E025C0932D997FB92E17
:101E80008F36C1F018F4883579F0B5C0803719F075
:101E9000883721F0B0C0E92FE061BE2EB4FE0DC03E
:101EA000FB2DF460BF2E09C034FE0AC0292F266026
:101EB000B22E06C028E030E005C020E130E002C0CC
:101EC00020E132E0F801B7FE07C0608171818281B4
:101ED00093810C5F1F4F06C06081718180E090E0AC
:101EE0000E5F1F4FA3010E945710882E8618FB2DEE
:101EF000FF773F2E36FE0DC0232D2E7FA22E891494
:101F000058F434FE0BC032FC09C0832D8E7EA82EFF
:101F100005C0B82CA32C03C0B82C01C0B92CA4FE5A
:101F20000FC0FE01E80DF11D8081803321F49A2D50
:101F3000997EA92E09C0A2FE06C0B394B39404C032
:101F40008A2D867809F0B394A3FC11C0A0FE06C0C8
:101F5000B21488F4280C922C9B180EC0B21460F4B2
:101F6000B60180E290E00E941B10B394F7CFB21448
:101F700018F42B1802C0982C212CA4FE10C0B60116
:101F800080E390E00E941B10A2FE17C0A1FC03C0DA
:101F900088E790E002C088E590E0B6010CC08A2D89
:101FA000867859F0A1FE02C08BE201C080E2A7FC56
:101FB0008DE2B60190E00E941B10891438F4B6013E
:101FC00080E390E00E941B109A94F7CF8A94F3016B
:101FD000E80DF11D8081B60190E00E941B10811078
:101FE000F5CF222009F442CEB60180E290E00E94B3
:101FF0001B102A94F6CFF6018681978102C08FEFDD
:102000009FEF2B96E2E10C94D110FC0105906150FA
:1020100070400110D8F7809590958E0F9F1F0895FE
:10202000FC016150704001900110D8F780959095A7
:102030008E0F9F1F08950F931F93CF93DF93FB0184
:10204000238121FD03C08FEF9FEF2CC022FF16C01C
:1020500046815781248135814217530744F4A0817A
:10206000B1819D012F5F3F4F318320838C93268167
:1020700037812F5F3F4F3783268314C08B01EC01DC
:10208000FB010084F185E02D0995892BE1F6D8014B
:1020900016968D919C911797019617969C938E9307
:1020A0001697CE01DF91CF911F910F910895FA01FC
:1020B000AA27283051F1203181F1E8946F936E7F87
:1020C0006E5F7F4F8F4F9F4FAF4FB1E03ED0B4E078
:1020D0003CD0670F781F891F9A1FA11D680F791FB9
:1020E0008A1F911DA11D6A0F711D811D911DA11DCA
:1020F00020D009F468943F912AE0269F11243019DA
:10210000305D3193DEF6CF010895462F4770405D74
:102110004193B3E00FD0C9F7F6CF462F4F70405D23
:102120004A3318F0495D31FD4052419302D0A9F77E
:10213000EACFB4E0A6959795879577956795BA9578
:10214000C9F700976105710508959B01AC010A2E3E
:1021500006945795479537952795BA95C9F7620F15
:10216000731F841F951FA01D08952F923F924F92B9
:102170005F926F927F928F929F92AF92BF92CF9217
:10218000DF92EF92FF920F931F93CF93DF93CDB720
:10219000DEB7CA1BDB0B0FB6F894DEBF0FBECDBF98
:1021A00009942A88398848885F846E847D848C8469
:1021B0009B84AA84B984C884DF80EE80FD800C8172
:1021C0001B81AA81B981CE0FD11D0FB6F894DEBF55
:0C21D0000FBECDBFED010895F894FFCFC5
:1021DC0001032564004C4544204F4E2F4F464600CA
:1021EC00414320436F6E74726F6C004C6F672D6FA0
:1021FC007574005B4F4E5D005B4F46465D004C6155
:10220C006D703120004C616D703220004C616D702E
:10221C003320004C616D703420004C616D703520A2
:10222C000044696D4C616D70200052657475726E5E
:10223C00004143200052756E2054656D703A005376
:10224C00746F702054656D703A00616374697665C3
:10225C0020646576696365733A004552524F5200AB
:10226C00456E7465722050617373776F72643A00B7
:10227C00446973706C6179696E6720616C6C207550
:10228C00736572733A0A0052656D6F74653A205526
:10229C007365723A2025732C2049443A2025640A30
:1022AC0000456E74657220557365722049443A007E
:1022BC004C6F67696E205375636365737366756CD9
:1022CC000A004572726F723A20496E636F727265C2
:1022DC0063742050617373776F72640A0045727275
:1022EC006F723A20496E76616C6964205573657221
:1022FC00204F726465720A00526567697374657267
:10230C0020617320616E2061646D696E0A00456EF8
:10231C0074657220757365726E616D653A2000523A
:10232C006567697374726174696F6E20737563632A
:10233C0065737366756C0A004572726F723A20553C
:10234C007365722061727261792069732066756C95
:10235C006C0A004572726F723A20454550524F4DCF
:10236C00207772697465206661696C65640A005235
:10237C00656769737465722061206E65772075736B
:10238C0065720A004C616D70204D656E750A0043D4
:10239C00686F6F7365206C616D70206E756D626512
:1023AC007220796F752077616E7420746F2074754C
:1023BC00726E206F6E2F6F66663A200A00312E20E7
:1023CC004C616D70310A00322E204C616D70320AF6
:1023DC0000332E204C616D70330A00342E204C617A
:1023EC006D70340A00352E204C616D70350A003644
:1023FC002E2044696D6D65720A00496E76616C69B8
:10240C00642063686F6963652E20506C6561736529
:10241C002074727920616761696E2E0A0041432035
:10242C004D656E750057726F6E6720496E707574CE
:10243C000050726573732028542920746F207475B2
:10244C00726E200055736572204D656E753A0A00E8
:10245C00312E204C616D70730A00322E2041430ADC
:10246C0000332E204C6F676F75740A0041646D69E0
:10247C006E204D656E753A0A00312E2052656769E3
:10248C00737465722055736572202852656D6F7474
:10249C0065290A00322E20526567697374657220B3
:1024AC005573657220284C6F63616C290A00332EBA
:1024BC00204C616D70730A00342E2041430A0035A4
:1024CC002E20436F6E74726F6C20446F6F722028D5
:1024DC004F70656E2F436C6F7365290A00362E2082
:1024EC004C6F676F75740A0053797374656D20694E
:1024FC0073207374617274696E6720696E207265E3
:0C250C006D6F7465206D6F64650A00003F
:00000001FF
