:100000000C9438000C94A5040C94CE040C94F704C2
:100010000C9406060C94DD050C9455000C945500C8
:100020000C9455000C9493050C944D050C942405E8
:100030000C9455000C9453060C9455000C945500E8
:100040000C9455000C9455000C9455000C945500DC
:100050000C945500510B530B590B5B0B5D0B5F0B55
:10006000640BEC0EEE0EF20EF40EF60EF80EFB0E16
:1000700011241FBECFE5D8E0DEBFCDBF14E0A0E65F
:10008000B0E0ECEAF9E202C005900D92AE37B1079C
:10009000D9F726E0AEE7B4E001C01D92AA3BB20753
:1000A000E1F70E9457000C94D4140C9400000E94B5
:1000B0006F010E947F060E94BA060E9405070E94F7
:1000C0006F0C87E690E00E942F060E94E10C0E94D0
:1000D000C0070E94B4000E9406102FEF89EF90E045
:1000E000215080409040E1F700C000000E94A5062A
:1000F0000E9407070E94400C0E940410EECF41E0CE
:1001000066E080E00C94D70241E066E080E00C9469
:10011000400340E066E080E00C94400365E088E640
:100120000E9476050E94780241E063E081E00C9431
:10013000D7020E947A02BC0180E090E00E94A910E0
:1001400020E030EC4FE754E40E94081020E030E05B
:1001500048EC52E40E9437110E947A10862F0C94CA
:100160007D0580E00C947D050C947D02CF93C82F13
:100170000E949602EC2FF0E0E358FB4F908181E063
:1001800089278083CF910895E82FF0E0E358FB4F53
:10019000808108958FE99FE00197F1F700C000008A
:1001A00041E064E082E00E9440038FE99FE0019714
:1001B000F1F700C0000040E064E082E00E944003EC
:1001C0008FE99FE00197F1F700C000000895CF93F9
:1001D000C82F40E066E082E00E944003C4FB442751
:1001E00040F960E082E00E944003C5FB442740F9EB
:1001F00061E082E00E944003C6FB442740F962E0D0
:1002000082E00E9440034C2F441F4427441F63E0B8
:1002100082E00E9440030E94CA004C2F417060E0BF
:1002200082E00E944003C1FB442740F961E082E084
:100230000E944003C2FB442740F962E082E00E9432
:100240004003C3FB442740F963E082E00E9440037F
:10025000CF910C94CA00CF93C82F41E066E082E0B2
:100260000E944003C4FB442740F960E082E00E9402
:100270004003C5FB442740F961E082E00E9440034F
:10028000C6FB442740F962E082E00E9440034C2F05
:10029000441F4427441F63E082E00E9440030E9401
:1002A000CA004C2F417060E082E00E944003C1FB15
:1002B000442740F961E082E00E944003C2FB4427EA
:1002C00040F962E082E00E944003C3FB442740F90A
:1002D00063E082E00E944003CF910C94CA0041E0A9
:1002E00066E082E00E94D70241E065E082E00E9481
:1002F000D70241E064E082E00E94D70241E060E082
:1003000082E00E94D70241E061E082E00E94D702D1
:1003100041E062E082E00E94D70241E063E082E0D7
:100320000E94D70240E065E082E00E94400380E046
:100330000E942B012FEF86E791E0215080409040F2
:10034000E1F700C0000083E00E94E7008FE19EE437
:100350000197F1F700C0000083E00E94E70087E505
:1003600092E00197F1F700C0000083E00E94E700EF
:1003700082E00E94E70082E00E94E70088E20E949B
:10038000E70088E00E94E70080E00E94E7008CE040
:100390000E94E70080E00E94E70086E00C94E700FE
:1003A000882319F0813019F0089580E801C080ECAD
:1003B000860F0C94E7000C942B010F931F93CF939F
:1003C0008C01C0E0F801EC0FF11D8081882321F041
:1003D0000E942B01CF5FF6CFCF911F910F9108950F
:1003E0000F931F93CF93DF93CDB7DEB7A1970FB6CF
:1003F000F894DEBF0FBECDBF9F938F9382E191E053
:100400009F938F938E010F5F1F4F1F930F930E9437
:10041000EA11C8010E94DD010F900F900F900F901C
:100420000F900F90A1960FB6F894DEBF0FBECDBF10
:10043000DF91CF911F910F9108950C94C40285E034
:100440000E94CA02BC0180E090E00E94A9102AE14B
:1004500037E64CE950E40E94371120E030E040E2FA
:1004600051E40E9408100E947A10CB0108950F9366
:100470001F93CF9300E010E0C0E064E0600F81E0E4
:100480000E94D903002E01C0880F0A94EAF7C82BF6
:100490000F5F1F4F0430110581F7EC2FF0E0E25998
:1004A000FF4F808180936000CF911F910F910C943A
:1004B000680CCF93C4E040E06C2F81E00E94D7022B
:1004C000CF5FC830C1F767E372E080E00E9490041C
:1004D00062E080E00E944A0480E00E943A04CF91EA
:1004E0000C942005809160009FEF90936000089528
:1004F0000C94C40287E00C94CA0241E060E080E002
:100500000E94D70241E061E080E00E94D70241E012
:1005100062E080E00E94D70241E063E080E00E9458
:10052000D70241E064E080E00C94D702833079F098
:1005300028F4813041F0823041F00895843049F050
:10054000853049F0089560E007C061E005C062E0D1
:1005500003C063E001C064E080E00C94A903CF9283
:10056000EF920F93CF93C22F0E94D7028C2D0E943F
:10057000C4054E2D602F8C2FCF910F91EF90CF900F
:100580000C94BC050C94C805379A86B1876086B96F
:100590003E9A089597B1907E97B997B1892B87B904
:1005A000369A349BFECF349A84B195B10895813048
:1005B000F9F030F08230A1F1833009F449C0089598
:1005C000413049F42AB381E090E001C0880F6A9578
:1005D000EAF7822B0BC0411152C02AB381E090E0B0
:1005E00001C0880F6A95EAF7809582238ABB089537
:1005F000413049F427B381E090E001C0880F6A954B
:10060000EAF7822B0BC041113AC027B381E090E09A
:1006100001C0880F6A95EAF78095822387BB089509
:10062000413049F424B381E090E001C0880F6A951D
:10063000EAF7822B0BC0411122C024B381E090E085
:1006400001C0880F6A95EAF78095822384BB0895DC
:10065000413049F421B381E090E001C0880F6A95F0
:10066000EAF7822B0BC041110AC021B381E090E070
:1006700001C0880F6A95EAF78095822381BB0895AF
:100680008130F9F030F08230A1F1833009F449C0B3
:100690000895413049F42BB381E090E001C0880F08
:1006A0006A95EAF7822B0BC0411152C02BB381E04F
:1006B00090E001C0880F6A95EAF7809582238BBB92
:1006C0000895413049F428B381E090E001C0880FDB
:1006D0006A95EAF7822B0BC041113AC028B381E03A
:1006E00090E001C0880F6A95EAF78095822388BB65
:1006F0000895413049F425B381E090E001C0880FAE
:100700006A95EAF7822B0BC0411122C025B381E024
:1007100090E001C0880F6A95EAF78095822385BB37
:100720000895413049F422B381E090E001C0880F80
:100730006A95EAF7822B0BC041110AC022B381E00F
:1007400090E001C0880F6A95EAF78095822382BB0A
:100750000895813081F028F08230B9F08330F9F0CB
:1007600008952BB381E090E001C0880F6A95EAF705
:1007700082278BBB089528B381E090E001C0880FE9
:100780006A95EAF7822788BB089525B381E090E057
:1007900001C0880F6A95EAF7822785BB089522B3C6
:1007A00081E090E001C0880F6A95EAF7822782BB5A
:1007B0000895813049F030F0823041F0833079F48F
:1007C00080B305C089B303C086B301C083B390E092
:1007D00002C0959587956A95E2F78170089580E04B
:1007E0000895E199FECF9FBB8EBB6DBBE29AE19A63
:1007F0000895E199FECF9FBB8EBBE09A8DB308951B
:10080000EF92FF920F931F93CF93DF938C01EB0135
:100810007B01E40EF11CCE15DF0540F4F801619177
:100820008F01CE010E94F1032196F5CFDF91CF9188
:100830001F910F91FF90EF900895EF92FF920F9309
:100840001F93CF93DF938C01EB017B01E40EF11C2E
:10085000CE15DF0540F4CE010E94F903F801819323
:100860008F012196F5CFDF91CF911F910F91FF90CE
:10087000EF900895813039F018F0823039F0089502
:100880008BB7806405C08BB7806802C08BB780626D
:100890008BBF08958130F9F018F08230B1F10895DE
:1008A000611103C085B78E7F04C0613039F485B70C
:1008B000816085BF85B78D7F85BF0895623019F44B
:1008C00085B78E7F04C0633051F585B7816085BFE1
:1008D00085B78260F1CF611103C085B78B7F04C0FB
:1008E000613031F485B7846085BF85B7877FE4CFF9
:1008F000623019F485B78B7F04C0633081F485B70B
:10090000846085BF85B78860D7CF623019F484B71B
:100910008F7B04C0633019F484B7806484BF08956A
:10092000813049F018F0823059F0089570938804AE
:1009300060938704089570938604609385040895F6
:10094000709384046093830408951F920F920FB6EE
:100950000F9211242F933F934F935F936F937F9345
:100960008F939F93AF93BF93EF93FF93E09187048F
:10097000F0918804309709F00995FF91EF91BF91AC
:10098000AF919F918F917F916F915F914F913F9127
:100990002F910F900FBE0F901F9018951F920F92DE
:1009A0000FB60F9211242F933F934F935F936F9342
:1009B0007F938F939F93AF93BF93EF93FF93E091B8
:1009C0008504F0918604309709F00995FF91EF9125
:1009D000BF91AF919F918F917F916F915F914F9157
:1009E0003F912F910F900FBE0F901F9018951F925F
:1009F0000F920FB60F9211242F933F934F935F9353
:100A00006F937F938F939F93AF93BF93EF93FF93D6
:100A1000E0918304F0918404309709F00995FF91E7
:100A2000EF91BF91AF919F918F917F916F915F9166
:100A30004F913F912F910F900FBE0F901F901895DF
:100A40008FB780688FBF08951F920F920FB60F92D5
:100A500011242F933F934F935F936F937F938F93C3
:100A60009F93AF93BF93EF93FF93E0918B04F0912B
:100A70008C04309709F00995FF91EF91BF91AF91E8
:100A80009F918F917F916F915F914F913F912F91A6
:100A90000F900FBE0F901F9018951F920F920FB6D8
:100AA0000F9211242F933F934F935F936F937F93F4
:100AB0008F939F93AF93BF93EF93FF93E09189043C
:100AC000F0918A04309709F00995FF91EF91BF9159
:100AD000AF919F918F917F916F915F914F913F91D6
:100AE0002F910F900FBE0F901F90189593B7892BE1
:100AF00083BF83B7682B63BF0895682F70E080E0E1
:100B000090E00E94A91020E030E048EC52E40E94FE
:100B1000081020E030E04FE753E40E9437110E94B4
:100B20007A106CBF08951F920F920FB60F92112486
:100B30002F933F934F935F936F937F938F939F93E5
:100B4000AF93BF93EF93FF93E0918D04F0918E04E8
:100B5000309709F00995FF91EF91BF91AF919F9167
:100B60008F917F916F915F914F913F912F910F9056
:100B70000FBE0F901F9018959FB5892B8FBD8EB516
:100B8000482B642B6EBD089590E097BD86BD0895F7
:100B900090E09BBD8ABD089595B5892B85BD0895CC
:100BA0000C94CC0584BD089589B7806489BF0895ED
:100BB000909392048093910408951F920F920FB620
:100BC0000F9211242F933F934F935F936F937F93D3
:100BD0008F939F93AF93BF93EF93FF93E091910413
:100BE000F0919204309709F00995FF91EF91BF9130
:100BF000AF919F918F917F916F915F914F913F91B5
:100C00002F910F900FBE0F901F9018951F920F926B
:100C10000FB60F9211242F933F934F935F936F93CF
:100C20007F938F939F93AF93BF93EF93FF93E09145
:100C30008F04F0919004309709F00995FF91EF919E
:100C4000BF91AF919F918F917F916F915F914F91E4
:100C50003F912F910F900FBE0F901F90189589B95B
:100C600090BD539A549A579A86E880BD0C942005FB
:100C70005D9BFECF8CB90895CF93DF93EC018991F2
:100C8000882319F00E943806FACFDF91CF9108959A
:100C900080919304882329F0109293048091AE04EC
:100CA00008958FEF08951F920F920FB60F9211249F
:100CB0008F938CB18093AE0481E0809393048F91E5
:100CC0000F900FBE0F901F9018951F93CF93DF9337
:100CD000EC010E94480610E0833251F08F3F29F06A
:100CE000FE01E10FF11D80831F5F0E944806F4CFD3
:100CF000C10FD11D1882DF91CF911F9108950E94DD
:100D00007F000E941D02EFEAF4E081E080838CE125
:100D1000818385E182830895EFEAF4E0908181E0A8
:100D2000892780830895DC0111962C911197EFEAB1
:100D3000F4E0218312968C91828308956091AF0430
:100D40007091B0048091B10408958091AF0488231C
:100D500071F0813071F40E941F029091B0049817D5
:100D600010F40C9484009091B104891710F40C9441
:100D700089000895CF92DF92EF920F9387E8C82EF3
:100D800083E1D82E93E0E92E08E122E841E065E016
:100D900083E00E94AF020F91EF90DF90CF90089513
:100DA0008CE697E00C94C20286EB93E00C94C202AE
:100DB00080916100882331F08EE790E00E943C062C
:100DC0001092610080916200882321F00E94480601
:100DD00080939404809194048F3FB1F0109262004C
:100DE000833641F08F3619F0823639F408950E9427
:100DF000D00607C00E94D40604C084EC90E00E9494
:100E00003C0681E08093620008950C948E008091EE
:100E10006300882321F0813021F40C9499000C9414
:100E2000B10008959091630081E089278093630069
:100E30000895809163000895CF92DF92EF92FF9220
:100E40000F931F93CF936C01E62E85ED90E00E94E7
:100E5000DD01C0E0F12C21E0E21AF1080C2F10E0D6
:100E60000E151F05D4F50E9472028434D9F4C830DF
:100E7000A1F181E00E94E70085EE90E00E94DD0193
:100E80008FEF93ED20E3815090402040E1F700C0C8
:100E9000000081E00E94E70085ED90E00E94DD0106
:100EA000C0E0DCCF833479F4CC23C1F2C150F60129
:100EB000EC0FF11D108281E00E94E70085ED90E0CB
:100EC0000E94DD01CBCF90ED980F9A3038F6F601F5
:100ED000E00FF11F8083CF5FC1CFF601E00FF11F5C
:100EE0001082CF911F910F91FF90EF90DF90CF90E4
:100EF00008950F931F93CF93DF938C01C0919804B3
:100F00008AE1C89FE0011124BE016F5F7F4F40E17D
:100F1000C8010E940004BE016F5E7F4F49E0C80116
:100F200040960E940004F801618DCE014A96DF913F
:100F3000CF911F910F910C94F1030F931F93CF93B7
:100F4000DF938C018AE1689FE0011124BE016F5F8D
:100F50007F4F40E1C8010E941D04BE016F5E7F4FBC
:100F600049E0C80140960E941D04CE014A960E94A5
:100F7000F903F801818FDF91CF911F910F910895AF
:100F8000CF93DF938CE291E00E94F9038F3F41F40D
:100F9000609198048CE291E0DF91CF910C94F10381
:100FA0008CE291E00E94F90380939804C0E0DAE1BA
:100FB00080919804C81750F4DC9FC00111246C2F55
:100FC0008E549B4F0E949D07CF5FF2CFDF91CF9150
:100FD0000895CF92DF92EF92FF920F931F93CF93DA
:100FE000C0919804CA3018F57B01BC018AE1C89F02
:100FF0006001112486010E541B4FC8010E94B311D9
:10100000B701C6018E539B4F0E94B311CF5FF80109
:10101000C18FC8010E947907609198046F5F609347
:1010200098048CE291E00E94F10380E001C081E02D
:10103000CF911F910F91FF90EF90DF90CF90089587
:10104000AF92BF92CF92DF92EF92FF920F931F93D6
:10105000CF93DF93CDB7DEB7E2970FB6F894DEBF3C
:101060000FBECDBF182F062F81E00E94E7008091B0
:101070009804811104C086EF90E00E94DD018AE1AE
:10108000B82E95E0E92E91E0F92E22E3A22ECE01B2
:1010900001966C01101720F580919804181700F53F
:1010A000B19EF0011124EE54FB4F818D1F928F935E
:1010B000FF93EF93FF92EF921F92AF92DF92CF9246
:1010C0000E94BA11C6010E94DD0160E081E00E9429
:1010D000D0011F5F0FB6F894DEBF0FBECDBFDACFD1
:1010E000E2960FB6F894DEBF0FBECDBFDF91CF9171
:1010F0001F910F91FF90EF90DF90CF90BF90AF9036
:1011000008951F93CF93DF93CDB7DEB729970FB61E
:10111000F894DEBF0FBECDBF85E191E00E94DD01F6
:101120000E947202182F8FEF810F8A3028F585ED0B
:1011300090E00E94DD0169E0CE0101960E941C074B
:10114000812F90E001972AE1289FB001299F700D1F
:1011500011246E537B4FCE0101960E94AA11892B58
:1011600041F484E291E00E94DD0181E080939904E2
:1011700007C085E391E002C08FE491E00E94DD01A9
:1011800029960FB6F894DEBF0FBECDBFDF91CF9189
:101190001F910895809165008F3F31F06091640048
:1011A000809197040E942008809195049091960464
:1011B000892B21F40E947202809365008091650062
:1011C000823479F08334D1F0813401F58091970431
:1011D0008230E0F0825080939704809164008250C6
:1011E0000AC0809164008B3088F4909197049E5FD0
:1011F000909397048E5F8093640008950E94810805
:1012000081E090E0909396048093950408958091F6
:10121000990408951092990408958091A5049091DD
:10122000A60401969093A6048093A50486E00E94EC
:10123000D2058091A5049091A6048037924051F484
:1012400081E00E94B6001092A6041092A50481E0ED
:101250008093A7040895FC018081882319F08130D0
:1012600021F0089560E080E002C060E081E00E942B
:10127000D0018EE30C94DB01CF93DF93EC0161E0AE
:1012800080E00E94D0018881882369F08130C9F410
:1012900084E791E00E94DD0161E081E00E94D001DD
:1012A0008FE791E00AC089E691E00E94DD0161E0EC
:1012B00081E00E94D00184E791E0DF91CF910C940E
:1012C000DD01DF91CF910895CF93DF93EC0161E0D1
:1012D00080E00E94D0018881823009F443C028F464
:1012E000882361F0813021F1ABC0843009F46DC0F6
:1012F00008F44FC0853009F48AC0A2C083E991E0A8
:101300000E94DD0181E00E94C400811103C08DE8CC
:1013100091E002C087E891E00E94DD0161E081E098
:101320000E94D0018AE991E00E94DD0182E04AC07A
:101330008AE991E00E94DD0182E00E94C4008111EF
:1013400003C08DE891E002C087E891E00E94DD01D2
:1013500061E081E00E94D00181EA91E00E94DD011C
:1013600083E030C081EA91E00E94DD0183E00E94C9
:10137000C400811103C08DE891E002C087E891E0CC
:101380000E94DD0161E081E00E94D00188EA91E0E5
:1013900016C088EA91E00E94DD0184E00E94C4004A
:1013A000811103C08DE891E002C087E891E00E94BE
:1013B000DD0161E081E00E94D0018FEA91E00E94AE
:1013C000DD0184E00E94C4001AC08FEA91E00E940F
:1013D000DD0184E00E94C400811103C08DE891E02A
:1013E00002C087E891E00E94DD0161E081E00E9497
:1013F000D00186EB91E00E94DD010E941907811166
:1014000003C08DE891E018C087E891E015C086EB35
:1014100091E00E94DD010E941907811103C08DE84F
:1014200091E002C087E891E00E94DD0161E081E087
:101430000E94D0018FEB91E0DF91CF910C94DD0100
:10144000DF91CF9108950F931F93CF93DF938C017A
:10145000EB0161E080E00E94D001F80180818130E1
:1014600099F1D0F0823009F04DC089ED91E00E94F1
:10147000DD018A8190E00E94F00183E40E94DB019B
:1014800061E081E00E94D0018FEB91E0DF91CF918C
:101490001F910F910C94DD018BEC91E00E94DD0116
:1014A0008881811103C08DE891E002C086EC91E053
:1014B0000E94DD0161E081E00E94D0018FEC91E0AB
:1014C0000E94DD01898114C08FEC91E00E94DD0152
:1014D000898190E00E94F00183E40E94DB0161E0D9
:1014E00081E00E94D00189ED91E00E94DD018A81B6
:1014F00090E00E94F00183E4DF91CF911F910F9162
:101500000C94DB01DF91CF911F910F910895DB01C6
:10151000FA013C91332319F0313079F008950097A6
:1015200019F0019739F008958081882311F08150D6
:101530000DC0208381E08C930895009751F00197AE
:1015400009F008958081821718F48F5F80830895D1
:1015500010821C9208950F931F93CF938C010E94C9
:101560007202C82F8F3F19F081E00E94E70084EAE1
:1015700094E00E943C0983EA94E00E942B09C23463
:1015800069F0C33411F1C13409F03FC021E044EAED
:1015900054E063EA74E080E090E007C021E044EAB0
:1015A00054E063EA74E081E090E00E94870A81E001
:1015B0000E94E70084EA94E00E943C0983EA94E0F8
:1015C000CF911F910F910C942B092091A40480912D
:1015D000A30490E0820F911D8130910549F0823083
:1015E000910571F0892B89F4F801108281E003C024
:1015F00081E0F8018083CF911F910F910C94E70057
:10160000CF911F910F910C940A09CF911F910F91C7
:1016100008950F931F93CF938C010E947202C82FDD
:101620008F3F19F081E00E94E7008BE994E00E946F
:1016300064098AE994E00E942B09C23469F0C3343A
:1016400011F1C13409F048C025E04BE954E06AE9E2
:1016500074E080E090E007C025E04BE954E06AE9DF
:1016600074E081E090E00E94870A81E00E94E70038
:101670008BE994E00E9464098AE994E0CF911F917C
:101680000F910C942B0980919B04E0919A04F0E057
:10169000E80FF11DE730F105F8F4E65DFF4F0C941B
:1016A000A41181E001C082E0CF911F910F910C94B1
:1016B000B60083E0F9CF84E0F7CF85E0F5CFCF9196
:1016C0001F910F910C94120783E0F801808381E051
:1016D0000E94E70010929B04CF911F910F910895F3
:1016E0000F931F93CF93DF93EC018B010E94720243
:1016F000823439F0833449F0813449F488818F5F32
:1017000002C088818150888302C0F8011082DF9175
:10171000CF911F910F910895CF93DF93EC018091AA
:10172000A204811104C00E9472028093A1048091DE
:10173000A1048F3F39F08091A204811103C081E0A0
:101740000E94E7000E949E0660939E0470939F048F
:101750008093A0046EE974E08DE994E00E94230A6E
:101760008CE994E00E942B098091A104823469F0F5
:10177000833419F1813409F070C022E04DE954E05E
:101780006CE974E080E090E007C022E04DE954E0AD
:101790006CE974E081E090E00E94870A81E00E9499
:1017A000E7006EE974E08DE994E00E94230A8CE979
:1017B00094E0DF91CF910C942B0920919D048091AE
:1017C0009C0490E0820F911D81309105A9F03CF4BA
:1017D000892B09F042C0DF91CF910C948C068230A6
:1017E000910501F10397C9F583E0888381E00E94A8
:1017F000E70010929D0431C081E08093A20462EA68
:1018000074E08FE994E00E94700B80919F04813214
:1018100008F080E29091A004891708F4892F809342
:101820009F0415C081E08093A20462EA74E080EA1C
:1018300094E00E94700B8091A004823108F482E150
:1018400090919F04981708F4892F8093A0048EE943
:1018500094E0DF91CF910C949306DF91CF9108959E
:1018600081E00E94E70084EE91E00E94DD0167E0E4
:1018700081E00E94D0018091A80490E00C94F001D6
:101880000E9407099091A7048823C9F0911117C0FD
:1018900080916600813039F050F0833061F486E643
:1018A00090E00C94AB0A86E690E00C948C0B86E6F4
:1018B00090E00C94090B84EF91E00C94DD01911100
:1018C0000C94300C0E94EB0D8111FACF0C94CA08D5
:1018D0001092A7041092A6041092A50408950E94E5
:1018E000200580E00E94D00586E00E94D2058DE0B0
:1018F00099E00E94D8050E94D40587E00E94CC059B
:101900000E946F0147E050E064E070E081E090E009
:101910000C945902CF93DF93EC0185ED90E00E9487
:101920003C06CE010E94650683E393E0DF91CF91F0
:101930000C943C060F931F93CF93DF938C01C091BF
:10194000A9048AE1C89FE0011124CF5FDD4F40E187
:10195000BE01C8010E940004BE01605F7F4F49E0E4
:10196000C80140960E940004F801618DCE0149969D
:10197000DF91CF911F910F910C94F1030F931F935F
:10198000CF93DF938C018AE1689FE0011124CF5F40
:10199000DD4F40E1BE01C8010E941D04BE01605F31
:1019A0007F4F49E0C80140960E941D04CE01499630
:1019B0000E94F903F801818FDF91CF911F910F9160
:1019C0000895CF93DF9380E090E00E94F9038F3F6A
:1019D00039F46091A90480E090E00E94F10316C000
:1019E00080E090E00E94F9038093A904C0E0DAE16E
:1019F0008091A904C81750F4DC9FC00111246C2FFA
:101A00008A549A4F0E94BE0CCF5FF2CF87E690E0D7
:101A1000DF91CF910C942F06CF92DF92EF92FF923D
:101A20000F931F93CF93C091A904CA3018F57B017F
:101A3000BC018AE1C89F6001112486010A541A4F33
:101A4000C8010E94B311B701C6018A539A4F0E9480
:101A5000B311CF5FF801C18FC8010E949A0C609149
:101A6000A9046F5F6093A90480E090E00E94F103F5
:101A700080E001C081E0CF911F910F91FF90EF9026
:101A8000DF90CF900895BF92CF92DF92EF92FF92B6
:101A90000F931F93CF93DF93CDB7DEB7E2970FB6C7
:101AA000F894DEBF0FBECDBF8AEF91E00E943C06E6
:101AB00010E00AE181E1E82E82E0F82E92E3B92EEF
:101AC000CE0101966C018091A9041817E0F4019FE2
:101AD000F0011124EA54FA4F818D1F928F93FF93E6
:101AE000EF93FF92EF921F92BF92DF92CF920E94EC
:101AF000BA11C6010E943C061F5F0FB6F894DEBF04
:101B00000FBECDBFE0CFE2960FB6F894DEBF0FBE9A
:101B1000CDBFDF91CF911F910F91FF90EF90DF909C
:101B2000CF90BF9008950F931F93CF93DF93CDB7BE
:101B3000DEB729970FB6F894DEBF0FBECDBF8091F8
:101B40006700882331F085E191E00E943C06109205
:101B500067000E944806182F8F3F89F183E393E0C6
:101B60000E943C0600ED010F11531A3000F5CE0122
:101B700001960E948A0C802F90E001972AE1289F0D
:101B8000B001299F700D11246A537A4FCE0101963E
:101B90000E94AA11892B41F48BE292E00E943C063C
:101BA00081E08093AA0407C08DE392E002C088E53B
:101BB00092E00E943C0681E080936700102F812F05
:101BC00029960FB6F894DEBF0FBECDBFDF91CF913F
:101BD0001F910F9108958091AA0408951092AA046C
:101BE0000895CF93DF93CDB7DEB769970FB6F8941A
:101BF000DEBF0FBECDBF80E090E00E94F9038111EF
:101C000029C080E792E00E943C0686E892E00E94AC
:101C10003C06CE0101960E94650683E393E00E9494
:101C20003C06CE0141960E948A0CBE016F5E7F4F3A
:101C3000CE0101960E940C0D811103C087E992E04C
:101C400007C0813019F480EB92E002C08BEC92E087
:101C50000E943C0669960FB6F894DEBF0FBECDBF5A
:101C6000DF91CF910895CF93DF93CDB7DEB769971A
:101C70000FB6F894DEBF0FBECDBF87EE92E00E9494
:101C80003C0686E892E00E943C06CE0101960E9446
:101C90006506CE0141960E948A0CBE016F5E7F4FA1
:101CA000CE0101960E940C0D811103C087E992E0DC
:101CB00007C0813019F480EB92E002C08BEC92E017
:101CC0000E943C0681E080936D0080936B008093BE
:101CD0006A0069960FB6F894DEBF0FBECDBFDF91E4
:101CE000CF910895CF93DF93CDB7DEB769970FB645
:101CF000F894DEBF0FBECDBF87EE92E00E943C0697
:101D000086E892E00E943C06CE0101960E9465069C
:101D1000CE0141960E948A0CBE016F5E7F4FCE01BC
:101D200001960E94E907811103C087E992E007C08C
:101D3000813019F480EB92E002C08BEC92E00E94BB
:101D40003C0681E080936D0080936B0080936A0075
:101D500069960FB6F894DEBF0FBECDBFDF91CF916D
:101D6000089580916900882331F18CEF92E00E9400
:101D70003C0687E093E00E943C0685E393E00E94E6
:101D80003C068FE393E00E943C0689E493E00E94C6
:101D90003C0683E593E00E943C068DE593E00E94BB
:101DA0003C0687E693E00E943C0682E793E00E94AF
:101DB0003C06109269000E9448068F3F59F1E0ED01
:101DC000E80F8E2F90E0FC013197E730F105D8F451
:101DD000EF5CFF4F0C94A41181E001C082E00E94EF
:101DE000B60015C083E0FBCF84E0F9CF85E0F7CFE4
:101DF0000E9412070CC081E080936D0080936B00FD
:101E000080936A0004C08DE793E00E943C0681E065
:101E1000809369000895CF9380916800882319F119
:101E200080EA93E00E943C060E949E06C62F611144
:101E300003C08DE891E002C086EC91E00E943C0670
:101E400088EA93E00E943C06C11103C086EC91E051
:101E500002C08DE891E00E943C068BEB93E00E946B
:101E60003C06109268000E9448068F3FA1F085341E
:101E700029F0843559F4CF910C948C0681E080933D
:101E80006D0080936B0080936A0005C08EEC93E038
:101E9000CF910C943C06CF91089580916B008823DC
:101EA00091F08AED93E00E943C0686EE93E00E945A
:101EB0003C0680EF93E00E943C0687EF93E00E948F
:101EC0003C0610926B0080916D00882321F00E94E7
:101ED00048068093AC048091AC048F3FE1F01092EF
:101EE0006D00823331F0833331F0813369F40C9427
:101EF000B10E0C940B0F0E94EE0D81E080936D00EB
:101F000080936C0080936B008DE793E00E943C0609
:101F100081E080936D00089580916A008823F1F03C
:101F200082E094E00E943C068FE094E00E943C0630
:101F30008AE294E00E943C0684E494E00E943C061D
:101F40008EE494E00E943C0685E594E00E943C0605
:101F500083E794E00E943C0610926A0080916D0035
:101F6000882321F00E9448068093AB048091AB0443
:101F70008F3F49F110926D008333C1F030F481330B
:101F800099F08233C9F40C94720E853399F080F085
:101F9000863391F40E94EE0D81E080936C00809373
:101FA0006D0080936A0008950C94330E0C94B10E6A
:101FB0000C940B0F0C94D8068DE793E00E943C061E
:101FC00081E080936D00089580916C00882341F03A
:101FD0000E94EB0D813021F00E94430D10926C00A5
:101FE0000E94EB0D882319F0813031F008950E9492
:101FF000930D8093AD0408958091AD04813011F468
:102000000C948C0F0C944D0F0C94E40F0C94F10D68
:102010000E941C100C94FD100E94F61058F00E94B3
:10202000EF1040F029F45F3F29F00C94E6105111B5
:102030000C9431110C94EC100E940E1168F399234A
:10204000B1F3552391F3951B550BBB27AA276217B4
:102050007307840738F09F5F5F4F220F331F441FC1
:10206000AA1FA9F335D00E2E3AF0E0E832D09150F5
:102070005040E695001CCAF72BD0FE2F29D0660FE2
:10208000771F881FBB1F261737074807AB07B0E825
:1020900009F0BB0B802DBF01FF2793585F4F3AF02B
:1020A0009E3F510578F00C94E6100C9431115F3F7F
:1020B000E4F3983ED4F3869577956795B795F795B1
:1020C0009F5FC9F7880F911D9695879597F9089599
:1020D000E1E0660F771F881FBB1F62177307840735
:1020E000BA0720F0621B730B840BBA0BEE1F88F744
:1020F000E09508950E94161188F09F5798F0B92F27
:102100009927B751B0F0E1F0660F771F881F991F2C
:102110001AF0BA95C9F714C0B13091F00E9430118D
:10212000B1E008950C943011672F782F8827B85F9D
:1021300039F0B93FCCF3869577956795B395D9F784
:102140003EF490958095709561957F4F8F4F9F4F8E
:102150000895E89409C097FB3EF49095809570959A
:1021600061957F4F8F4F9F4F9923A9F0F92F96E9E3
:10217000BB279395F695879577956795B795F11158
:10218000F8CFFAF4BB0F11F460FF1BC06F5F7F4FF5
:102190008F4F9F4F16C0882311F096E911C0772307
:1021A00021F09EE8872F762F05C0662371F096E810
:1021B000862F70E060E02AF09A95660F771F881FDF
:1021C000DAF7880F9695879597F9089597F99F679D
:1021D00080E870E060E008959FEF80EC08950024AF
:1021E0000A941616170618060906089500240A947C
:1021F00012161306140605060895092E0394000C02
:1022000011F4882352F0BB0F40F4BF2B11F460FF90
:1022100004C06F5F7F4F8F4F9F4F089557FD9058B9
:10222000440F551F59F05F3F71F04795880F97FB9A
:10223000991F61F09F3F79F0879508951216130654
:102240001406551FF2CF4695F1DF08C01616170683
:102250001806991FF1CF86957105610508940895B8
:10226000E894BB2766277727CB0197F908950E944A
:102270004A110C94FD100E94EF1038F00E94F610E5
:1022800020F0952311F00C94E6100C94EC1011241E
:102290000C9431110E940E1170F3959FC1F3950FAC
:1022A00050E0551F629FF001729FBB27F00DB11DDA
:1022B000639FAA27F00DB11DAA1F649F6627B00D6A
:1022C000A11D661F829F2227B00DA11D621F739F53
:1022D000B00DA11D621F839FA00D611D221F749F61
:1022E0003327A00D611D231F849F600D211D822FA8
:1022F000762F6A2F11249F5750409AF0F1F08823CF
:102300004AF0EE0FFF1FBB1F661F771F881F9150FB
:102310005040A9F79E3F510580F00C94E6100C94B4
:1023200031115F3FE4F3983ED4F386957795679536
:10233000B795F795E7959F5FC1F7FE2B880F911D25
:102340009695879597F90895EE0FFF1F0590F491E4
:10235000E02D0994FB01DC018D91019080190110A1
:10236000D9F3990B0895FB01DC0101900D92002037
:10237000E1F70895AEE0B0E0E0ECF1E10C94AB14CD
:102380000D891E898F89988D26E02C831A830983F5
:1023900097FF02C080E090E801979E838D83AE0195
:1023A000455E5F4F698D7A8DCE0101960E940C12B9
:1023B0004D815E8157FD0AC02F8138854217530732
:1023C0000CF49A01F801E20FF31F10822E96E4E05C
:1023D0000C94C714AEE0B0E0E0EFF1E10C94AB1464
:1023E0000D891E8986E08C831A8309838FEF9FE70E
:1023F0009E838D83AE01475E5F4F6F89788DCE01DE
:1024000001960E940C12EF81F885E00FF11F1082F7
:102410002E96E4E00C94C714ABE0B0E0E2E1F2E108
:102420000C949D146C017B018A01FC0117821682B9
:10243000838181FFCCC1CE0101963C01F6019381DD
:10244000F70193FD859193FF81917F01882309F422
:10245000BAC1853239F493FD859193FF81917F0153
:10246000853229F4B60190E00E940314E7CF912C45
:10247000212C312CFFE1F315D8F08B3279F038F4B0
:10248000803279F08332A1F4232D20611DC08D327A
:1024900061F0803369F4232D216016C0832D8260A2
:1024A000382EE32DE4603E2E2AC0F32DF8601DC0C7
:1024B00037FC2DC020ED280F2A3040F08E32B9F4C1
:1024C00036FC81C1232D2064322E19C036FE06C091
:1024D0008AE0989E200D1124922E11C0EAE02E9ED3
:1024E000200D1124222EF32DF0623F2E08C08C36D1
:1024F00021F4832D8068382E02C0883641F4F7011C
:1025000093FD859193FF81917F018111B3CF982F26
:102510009F7D9554933028F40C5F1F4F9FE3998360
:102520000DC0833631F0833771F0833509F059C01F
:1025300021C0F801808189830E5F1F4F8824839416
:10254000912C530113C02801F2E04F0E511CF801E9
:10255000A080B18036FE03C0692D70E002C06FEF2D
:102560007FEFC5010E94F8134C018201F32DFF7724
:102570003F2E16C0280122E0420E511CF801A08017
:10258000B18036FE03C0692D70E002C06FEF7FEFAF
:10259000C5010E94ED134C01F32DF0683F2E82011E
:1025A00033FC1BC0822D90E088169906B0F4B6016A
:1025B00080E290E00E9403142A94F4CFF50137FCE6
:1025C000859137FE81915F01B60190E00E9403146E
:1025D00021102A9421E0821A91088114910471F744
:1025E000E8C0843611F0893641F5F80137FE07C09E
:1025F00060817181828193810C5F1F4F08C060816F
:102600007181072E000C880B990B0E5F1F4FF32D65
:10261000FF763F2E97FF09C0909580957095619544
:102620007F4F8F4F9F4FF0683F2E2AE030E0A3018D
:102630000E943F14882E861845C0853731F4232D1B
:102640002F7EB22E2AE030E025C0932D997FB92E3F
:102650008F36C1F018F4883579F0B5C0803719F09D
:10266000883721F0B0C0E92FE061BE2EB4FE0DC066
:10267000FB2DF460BF2E09C034FE0AC0292F26604E
:10268000B22E06C028E030E005C020E130E002C0F4
:1026900020E132E0F801B7FE07C0608171818281DC
:1026A00093810C5F1F4F06C06081718180E090E0D4
:1026B0000E5F1F4FA3010E943F14882E8618FB2D2A
:1026C000FF773F2E36FE0DC0232D2E7FA22E8914BC
:1026D00058F434FE0BC032FC09C0832D8E7EA82E28
:1026E00005C0B82CA32C03C0B82C01C0B92CA4FE83
:1026F0000FC0FE01E80DF11D8081803321F49A2D79
:10270000997EA92E09C0A2FE06C0B394B39404C05A
:102710008A2D867809F0B394A3FC11C0A0FE06C0F0
:10272000B21488F4280C922C9B180EC0B21460F4DA
:10273000B60180E290E00E940314B394F7CFB21484
:1027400018F42B1802C0982C212CA4FE10C0B6013E
:1027500080E390E00E940314A2FE17C0A1FC03C016
:1027600088E790E002C088E590E0B6010CC08A2DB1
:10277000867859F0A1FE02C08BE201C080E2A7FC7E
:102780008DE2B60190E00E940314891438F4B6017A
:1027900080E390E00E9403149A94F7CF8A94F301A7
:1027A000E80DF11D8081B60190E00E9403148110B4
:1027B000F5CF222009F442CEB60180E290E00E94DB
:1027C00003142A94F6CFF6018681978102C08FEF19
:1027D0009FEF2B96E2E10C94B914FC010590615037
:1027E00070400110D8F7809590958E0F9F1F089527
:1027F000FC016150704001900110D8F780959095D0
:102800008E0F9F1F08950F931F93CF93DF93FB01AC
:10281000238121FD03C08FEF9FEF2CC022FF16C044
:1028200046815781248135814217530744F4A081A2
:10283000B1819D012F5F3F4F318320838C9326818F
:1028400037812F5F3F4F3783268314C08B01EC0104
:10285000FB010084F185E02D0995892BE1F6D80173
:1028600016968D919C911797019617969C938E932F
:102870001697CE01DF91CF911F910F910895FA0124
:10288000AA27283051F1203181F1E8946F936E7FAF
:102890006E5F7F4F8F4F9F4FAF4FB1E03ED0B4E0A0
:1028A0003CD0670F781F891F9A1FA11D680F791FE1
:1028B0008A1F911DA11D6A0F711D811D911DA11DF2
:1028C00020D009F468943F912AE0269F1124301902
:1028D000305D3193DEF6CF010895462F4770405D9D
:1028E0004193B3E00FD0C9F7F6CF462F4F70405D4C
:1028F0004A3318F0495D31FD4052419302D0A9F7A7
:10290000EACFB4E0A6959795879577956795BA95A0
:10291000C9F700976105710508959B01AC010A2E66
:1029200006945795479537952795BA95C9F7620F3D
:10293000731F841F951FA01D08952F923F924F92E1
:102940005F926F927F928F929F92AF92BF92CF923F
:10295000DF92EF92FF920F931F93CF93DF93CDB748
:10296000DEB7CA1BDB0B0FB6F894DEBF0FBECDBFC0
:1029700009942A88398848885F846E847D848C8491
:102980009B84AA84B984C884DF80EE80FD800C819A
:102990001B81AA81B981CE0FD11D0FB6F894DEBF7D
:0C29A0000FBECDBFED010895F894FFCFED
:1029AC00FF010101020103010101010101012300E9
:1029BC002A440102034304050642070809410A5050
:1029CC007265737320276F2720746F206F70656E8C
:1029DC002074686520646F6F722C20276327207425
:1029EC006F20636C6F73652074686520646F6F7201
:1029FC002C2027622720746F20676F206261636B25
:102A0C003A200A00496E76616C69642063686F69CC
:102A1C0063652E0A00456E7465722050617373777E
:102A2C006F72643A00496E76616C69642050617310
:102A3C0073776F7264004E6F204C6F63616C20551E
:102A4C007365727300557365723A2025732C494473
:102A5C003A20256400456E746572205573657220AA
:102A6C0049443A004C6F67696E2053756363657314
:102A7C007366756C004572726F723A20496E636FA3
:102A8C0072726563742050617373776F7264004562
:102A9C0072726F723A20496E76616C69642055735C
:102AAC006572204F72646572004C4544204F4E2F66
:102ABC004F464600414320436F6E74726F6C004C5E
:102ACC006F672D6F7574005B4F4E5D20005B4F463A
:102ADC00465D004C616D703120004C616D70322090
:102AEC00004C616D703320004C616D703420004CD3
:102AFC00616D7035200044696D4C616D7020005221
:102B0C00657475726E005B4F4E5D00414320005240
:102B1C00756E2054656D703A0053746F7020546557
:102B2C006D703A004163746976652044657669631B
:102B3C0065733A004552524F5200446973706C6190
:102B4C0079696E6720616C6C2075736572733A0AD3
:102B5C000052656D6F74653A20557365723A202585
:102B6C00732C2049443A2025640A004C6F67696E27
:102B7C00205375636365737366756C0A00457272D6
:102B8C006F723A20496E636F727265637420506184
:102B9C007373776F72640A004572726F723A2049D0
:102BAC006E76616C696420557365722049440A0025
:102BBC00526567697374657220617320616E206160
:102BCC00646D696E0A00456E74657220757365726A
:102BDC006E616D653A200052656769737472617439
:102BEC00696F6E207375636365737366756C0A0029
:102BFC004572726F723A2055736572206172726100
:102C0C00792069732066756C6C0A004572726F725C
:102C1C003A20454550524F4D2077726974652066B5
:102C2C0061696C65640A005265676973746572202A
:102C3C0061206E657720757365720A004C616D704A
:102C4C00204D656E750A0043686F6F7365206C616B
:102C5C006D70206E756D62657220796F752077616D
:102C6C006E7420746F207475726E206F6E2F6F6689
:102C7C00663A200A00312E204C616D70310A003208
:102C8C002E204C616D70320A00332E204C616D7019
:102C9C00330A00342E204C616D70340A00352E201E
:102CAC004C616D70350A00362E2044696D6D65726D
:102CBC000A00372E2052657475726E0A00496E76C2
:102CCC00616C69642063686F6963652E20506C6564
:102CDC006173652074727920616761696E2E0A00D8
:102CEC004143204D656E75005072657373202854F6
:102CFC002920746F207475726E2000507265737386
:102D0C002028452920746F20457869740A00577271
:102D1C006F6E6720496E7075740055736572204D27
:102D2C00656E753A0A00312E204C616D70730A0085
:102D3C00322E2041430A00332E204C6F676F75747E
:102D4C000A0041646D696E204D656E753A0A00315A
:102D5C002E205265676973746572205573657220F5
:102D6C002852656D6F7465290A00322E20526567F2
:102D7C006973746572205573657220284C6F63619A
:102D8C006C290A00332E204C616D70730A00342EAE
:102D9C002041430A00352E20436F6E74726F6C20F5
:102DAC00446F6F7220284F70656E2F436C6F736584
:0E2DBC00290A00362E204C6F676F75740A00CE
:00000001FF
